:100000005EC000000AC400002FC400007DC00000D4
:100010007BC0000079C0000077C00000A2C30000D0
:1000200073C0000071C000006FC000006DC0000010
:100030006BC0000069C0000067C0000065C0000020
:1000400046C4000061C0000086C10000B6C10000C7
:100050005BC0000059C0000057C0000055C0000040
:1000600053C0000051C0000002000000080002015F
:10007000000003040700000000000000000102046B
:10008000081020408001020408102001020408101A
:100090002004040404040404040202020202020311
:1000A000030303030300000000250028002B0000C9
:1000B000000000240027002A00000B027702112410
:1000C0001FBECFEFD8E0DEBFCDBF11E0A0E0B1E0B2
:1000D000E8EEFDE002C005900D92A633B107D9F716
:1000E00021E0A6E3B1E001C01D92A93EB207E1F70D
:1000F00010E0CFE5D0E003C02197FE016DD6CD35ED
:10010000D107D1F7DAD36EC67BCFFC01918D228D5A
:10011000892F90E0805C9F4F821B91098F739927F4
:100120000895FC01918D828D981731F0828DE80F32
:10013000F11D858D90E008958FEF9FEF0895FC01EC
:10014000918D828D981761F0828DDF01A80FB11D0E
:100150005D968C91928D9F5F9F73928F90E0089532
:100160008FEF9FEF089582E092E0892B41F080E0CD
:1001700090E0892B21F046D181110C940000089564
:10018000FC01848DDF01A80FB11DA35ABF4F2C9134
:10019000848D90E001968F739927848FA689B78903
:1001A0002C93A089B1898C9180648C93938D848DDC
:1001B000981306C00288F389E02D80818F7D8083AB
:1001C0000895CF93DF93EC01888D8823C1F0EA89ED
:1001D000FB89808185FD05C0A889B9898C9186FD40
:1001E0000EC00FB607FCF5CF808185FFF2CFA8893E
:1001F000B9898C9185FFEDCFCE01C2DFE8CFDF91C9
:10020000CF910895EF92FF920F931F93CF93DF93B7
:10021000EC0181E0888F9B8D8C8D981305C0E88957
:10022000F989808185FD23C0F62E0B8D10E00F5FCC
:100230001F4F0F731127E02E8C8DE8120BC00FB6E5
:1002400007FCFACFE889F989808185FFF5CFCE01D7
:1002500097DFF2CF8B8DFE01E80FF11DE35AFF4FC0
:10026000F0820B8FEA89FB898081806207C0EE896A
:10027000FF896083E889F98980818064808381E0D7
:1002800090E0DF91CF911F910F91FF90EF90089533
:10029000CF92DF92EF92FF921F93CF93DF93EC0107
:1002A0006A017B01122FE889F98982E08083411578
:1002B000514E61057105A9F060E079E08DE390E0B1
:1002C000A701960153D5DA01C9010197A109B10926
:1002D000B695A79597958795AC01411580E158078C
:1002E000A0F0E889F989108260E874E88EE190E076
:1002F000A70196013BD5BA01A901415051096109F5
:1003000071097695679557954795EC85FD855083DE
:10031000EE85FF854083188EEC89FD891083EA897C
:10032000FB89808180618083EA89FB898081886084
:100330008083EA89FB89808180688083EA89FB89E0
:1003400080818F7D8083DF91CF911F91FF90EF900F
:10035000DF90CF9008951F920F920FB60F92112445
:100360002F938F939F93EF93FF93E0914601F0912A
:1003700047018081E0914C01F0914D0182FD12C056
:10038000908180914F018F5F8F7320915001821770
:1003900051F0E0914F01F0E0EA5CFE4F958F8093C1
:1003A0004F0101C08081FF91EF919F918F912F911B
:1003B0000F900FBE0F901F9018951F920F920FB6BF
:1003C0000F9211242F933F934F935F936F937F93DB
:1003D0008F939F93AF93BF93EF93FF9386E391E047
:1003E000CFDEFF91EF91BF91AF919F918F917F9160
:1003F0006F915F914F913F912F910F900FBE0F9092
:100400001F90189586E391E080DE21E0892B09F4A6
:1004100020E0822F0895E6E3F1E01382128288EE55
:1004200093E0A0E0B0E084839583A683B78384E162
:1004300091E09183808385EC90E09587848784ECBC
:1004400090E09787868780EC90E0918B808B81ECA1
:1004500090E0938B828B82EC90E0958B848B86EC82
:1004600090E0978B868B118E128E138E148E0895CA
:100470008F929F92AF92BF92CF92DF92EF92FF92B4
:100480000F931F93CF93DF937C018B016C0182E06C
:10049000C80ED11C4701E5E08E0E911CC0E0D0E0F3
:1004A000F60161916F014AE050E0C80120D15C0182
:1004B0006EE2C80167D08A0D9B1DC80FD91FC814F2
:1004C000D90471F74AE050E0F7016581C8010FD106
:1004D0008C0F9D1FDF91CF911F910F91FF90EF9097
:1004E000DF90CF90BF90AF909F908F900895E3EDF5
:1004F000F1E084E291E0918380831282138214827E
:1005000015820895CF92DF92EF92FF920F931F937F
:10051000CF93DF936C017A018B01C0E0D0E0CE1560
:10052000DF0589F0D8016D918D01D601ED91FC9127
:100530000190F081E02DC6010995892B11F47E010F
:1005400002C02196ECCFC701DF91CF911F910F918F
:10055000FF90EF90DF90CF9008956115710579F0CD
:10056000FB0101900020E9F73197AF01461B570BC3
:10057000DC01ED91FC910280F381E02D099480E093
:1005800090E00895DC01ED91FC910190F081E02D67
:10059000099466E271E0E1CF8F929F92AF92BF9291
:1005A000CF92DF92EF92FF920F931F93CF93DF933F
:1005B000CDB7DEB7A1970FB6F894DEBF0FBECDBFA3
:1005C0007C01D42EC52EDB0119A2223008F42AE0CA
:1005D0008E010F5D1F4F822E912CA12CB12C6D2D01
:1005E0007C2DCD01A5019401C1D3D22EC32EDA01F9
:1005F000015011096A3071058105910510F4605DA3
:1006000001C0695CF8016083232B242B252B39F76B
:10061000B801C701A2DFA1960FB6F894DEBF0FBEE6
:10062000CDBFDF91CF911F910F91FF90EF90DF90A1
:10063000CF90BF90AF909F908F900895CF92DF9210
:10064000EF92FF920F931F93CF93DF93EC016A0118
:100650007B012115310579F4E881F9810190F08160
:10066000E02D642FDF91CF911F910F91FF90EF90BC
:10067000DF90CF9009942A303105D9F477FF18C064
:100680006DE280DF8C0144275527BA014C195D09C2
:100690006E097F092AE0CE017FDF800F911FDF9175
:1006A000CF911F910F91FF90EF90DF90CF90089521
:1006B0002AE0B701A601CE01DF91CF911F910F91E2
:1006C000FF90EF90DF90CF9067CF9A01AB01770F4B
:1006D000660B770BB3CF2115310541F4DC01ED91A9
:1006E000FC910190F081E02D642F099455CF9A017F
:1006F000462F50E060E070E0EECF813039F018F026
:10070000823051F0089510926E00089580916F002C
:100710008D7F80936F000895809170008D7F80930E
:10072000700081E08093B0008091B100887F846088
:100730008093B1001092B3000895CF93C82F809199
:100740000A018C1307C0E8E6F0E0E4918FEF809394
:100750000A0101C0EFEF8E2FD0DF60E08C2FCF9128
:1007600078C21F920F920FB60F9211242F933F93CE
:100770004F935F936F937F938F939F93AF93BF93A9
:10078000EF93FF938091DC019091DD01A091DE0158
:10079000B091DF01892B8A2B8B2B51F18091D901EC
:1007A000E091DA01F091DB019081892780838091CB
:1007B000DC019091DD01A091DE01B091DF011816FE
:1007C00019061A061B06BCF48091DC019091DD012C
:1007D000A091DE01B091DF010197A109B1098093D9
:1007E000DC019093DD01A093DE01B093DF0103C033
:1007F00080910A01A2DFFF91EF91BF91AF919F918C
:100800008F917F916F915F914F913F912F910F90B9
:100810000FBE0F901F90189508951F920F920FB65C
:100820000F9211242F933F934F935F936F937F9376
:100830008F939F93AF93BF93EF93FF93E0910B013F
:10084000F0910C010995FF91EF91BF91AF919F91AC
:100850008F917F916F915F914F913F912F910F9069
:100860000FBE0F901F9018951F920F920FB60F9208
:1008700011242F933F934F935F936F937F938F93A5
:100880009F93AF93BF93EF93FF93E0910D01F0918E
:100890000E010995FF91EF91BF91AF919F918F91BB
:1008A0007F916F915F914F913F912F910F900FBE6C
:1008B0000F901F90189508950895B1D0FDDFF8D1DD
:1008C000C3EBD0E003D22097E9F34DDCFBCF1F92BE
:1008D0000F920FB60F9211242F933F938F939F93F4
:1008E000AF93BF938091E1019091E201A091E30168
:1008F000B091E4013091E00123E0230F2D3720F483
:100900000196A11DB11D05C026E8230F0296A11D69
:10091000B11D2093E0018093E1019093E201A09347
:10092000E301B093E4018091E5019091E601A0918B
:10093000E701B091E8010196A11DB11D8093E50189
:100940009093E601A093E701B093E801BF91AF91C6
:100950009F918F913F912F910F900FBE0F901F90FD
:1009600018953FB7F8948091E5019091E601A09128
:10097000E701B091E80126B5A89B05C02F3F19F00B
:100980000196A11DB11D3FBFBA2FA92F982F88270F
:10099000820F911DA11DB11DBC01CD0142E0660F6A
:1009A000771F881F991F4A95D1F708958F929F92BC
:1009B000AF92BF92CF92DF92EF92FF926B017C01D8
:1009C000D0DF4B015C01C114D104E104F104F1F06A
:1009D00072DFC7DFDC01CB0188199909AA09BB09BD
:1009E000883E9340A105B10570F321E0C21AD108F9
:1009F000E108F10888EE880E83E0981EA11CB11C66
:100A0000C114D104E104F10421F7DDCFFF90EF9090
:100A1000DF90CF90BF90AF909F908F900895789483
:100A200084B5826084BD84B5816084BD85B58260F3
:100A300085BD85B5816085BDEEE6F0E08081816091
:100A40008083E1E8F0E01082808182608083808191
:100A500081608083E0E8F0E0808181608083E1EB69
:100A6000F0E0808184608083E0EBF0E08081816051
:100A70008083EAE7F0E08081846080838081826007
:100A800080838081816080838081806880831092F0
:100A9000C10008958E3008F08E50877020910F01AC
:100AA00090E4299F90011124822B80937C008091F7
:100AB0007A00806480937A0080917A0086FDFCCF72
:100AC000809178002091790090E0922B08951F93F7
:100AD000CF93DF93182FEB0161E07FD0209711F4C3
:100AE00060E004C0CF3FD10531F461E0812FDF9198
:100AF000CF911F91AEC0E12FF0E0E759FF4FE49195
:100B0000E330F9F048F4E130B9F0E230A1F584B512
:100B1000806284BDC8BD34C0E730E9F0E83019F127
:100B2000E43049F580918000806280938000D0930A
:100B30008B00C0938A0024C084B5806884BDC7BD83
:100B40001FC080918000806880938000D0938900CE
:100B5000C093880015C08091B00080688093B00079
:100B6000C093B3000DC08091B00080628093B0004C
:100B7000C093B40005C0C038D1050CF0B6CFB0CFDB
:100B8000DF91CF911F910895833081F028F4813057
:100B900099F08230A1F008958730A9F08830B9F03B
:100BA0008430D1F4809180008F7D03C080918000DB
:100BB0008F7780938000089584B58F7702C084B5C5
:100BC0008F7D84BD08958091B0008F7703C08091A0
:100BD000B0008F7D8093B0000895CF93DF9390E0B5
:100BE000FC01E358FF4F2491FC01EF56FF4F849125
:100BF000882361F190E0880F991FFC01E155FF4FB8
:100C0000C591D491FC01EB55FF4FA591B4916111B1
:100C100009C09FB7F8948881209582238883EC913E
:100C20002E230BC0623061F49FB7F8943881822F75
:100C3000809583238883EC912E2B2C939FBF06C035
:100C40008FB7F894E8812E2B28838FBFDF91CF9147
:100C500008951F93CF93DF93282F30E0F901E759D0
:100C6000FF4F8491F901E358FF4FD491F901EF56FA
:100C7000FF4FC491CC23C1F0162F811185DFEC2FDB
:100C8000F0E0EE0FFF1FEB55FF4FA591B4918FB72A
:100C9000F894111105C09C91ED2FE095E92302C055
:100CA000EC91ED2BEC938FBFDF91CF911F910895C5
:100CB00061E086E092DF61E087E08FDF26E040E0E0
:100CC00052EC61E070E086E391E0E2CACF92DF92FD
:100CD000EF92FF92CF93DF9380E0DCDE7C0181E036
:100CE000D9DE63E070E02FD0EB01C358DF4F9701EE
:100CF000F7FE02C02D5F3F4FB90175956795759559
:100D0000679586E0E4DE61E087E0A3DF6E010D2EEB
:100D1000000CEE08FF08C701B60148DE60E087E07E
:100D200098DFC701B60142DE4AE050E0BE0186E32B
:100D300091E0CBDC86E391E0DF91CF91FF90EF90E3
:100D4000DF90CF9026CC97FB072E16F4009406D0A8
:100D500077FD08D02DD007FC05D03EF49095819505
:100D60009F4F0895709561957F4F0895A1E21A2EC7
:100D7000AA1BBB1BFD010DC0AA1FBB1FEE1FFF1F3F
:100D8000A217B307E407F50720F0A21BB30BE40B8F
:100D9000F50B661F771F881F991F1A9469F76095D6
:100DA0007095809590959B01AC01BD01CF01089590
:100DB000AA1BBB1B51E107C0AA1FBB1FA617B70781
:100DC00010F0A61BB70B881F991F5A95A9F780959D
:100DD0009095BC01CD010895EE0FFF1F0590F49191
:080DE000E02D0994F894FFCF07
:100DE8000000E901800001000000FF0C040C040170
:100DF800000000000201820285009F009100E100CE
:100E08000000000038020D0A006E616E00696E660F
:060E1800006F7666000089
:00000001FF
