:100000005EC0000077C300009CC300007DC00000FC
:100010007BC0000079C0000077C00000EFC2000084
:1000200073C0000071C000006FC000006DC0000010
:100030006BC0000069C0000067C0000065C0000020
:10004000B3C3000061C0000023C1000053C1000021
:100050005BC0000059C0000057C0000055C0000040
:1000600053C0000051C0000002000000080002015F
:10007000000003040700000000000000000102046B
:10008000081020408001020408102001020408101A
:100090002004040404040404040202020202020311
:1000A000030303030300000000250028002B0000C9
:1000B000000000240027002A0000A80114021124D7
:1000C0001FBECFEFD8E0DEBFCDBF11E0A0E0B1E0B2
:1000D000E4EDFDE002C005900D92AE32B107D9F714
:1000E00021E0AEE2B1E001C01D92A33FB207E1F70B
:1000F00010E0CFE5D0E003C02197FE0163D6CD35F7
:10010000D107D1F747D364C67BCFFC01918D228DF7
:10011000892F90E0805C9F4F821B91098F739927F4
:100120000895FC01918D828D981731F0828DE80F32
:10013000F11D858D90E008958FEF9FEF0895FC01EC
:10014000918D828D981761F0828DDF01A80FB11D0E
:100150005D968C91928D9F5F9F73928F90E0089532
:100160008FEF9FEF08958FE991E0892B41F080E0B8
:1001700090E0892B21F0E3D081110C9400000895C8
:10018000FC01848DDF01A80FB11DA35ABF4F2C9134
:10019000848D90E001968F739927848FA689B78903
:1001A0002C93A089B1898C9180648C93938D848DDC
:1001B000981306C00288F389E02D80818F7D8083AB
:1001C0000895CF93DF93EC01888D8823C1F0EA89ED
:1001D000FB89808185FD05C0A889B9898C9186FD40
:1001E0000EC00FB607FCF5CF808185FFF2CFA8893E
:1001F000B9898C9185FFEDCFCE01C2DFE8CFDF91C9
:10020000CF910895EF92FF920F931F93CF93DF93B7
:10021000EC0181E0888F9B8D8C8D981305C0E88957
:10022000F989808185FD23C0F62E0B8D10E00F5FCC
:100230001F4F0F731127E02E8C8DE8120BC00FB6E5
:1002400007FCFACFE889F989808185FFF5CFCE01D7
:1002500097DFF2CF8B8DFE01E80FF11DE35AFF4FC0
:10026000F0820B8FEA89FB898081806207C0EE896A
:10027000FF896083E889F98980818064808381E0D7
:1002800090E0DF91CF911F910F91FF90EF90089533
:100290001F920F920FB60F9211242F938F939F935B
:1002A000EF93FF93E0913E01F0913F018081E09157
:1002B0004401F091450182FD12C090818091470177
:1002C0008F5F8F7320914801821751F0E0914701B1
:1002D000F0E0E25DFE4F958F8093470101C0808181
:1002E000FF91EF919F918F912F910F900FBE0F90E3
:1002F0001F9018951F920F920FB60F9211242F93F3
:100300003F934F935F936F937F938F939F93AF939D
:10031000BF93EF93FF938EE291E032DFFF91EF9175
:10032000BF91AF919F918F917F916F915F914F910D
:100330003F912F910F900FBE0F901F9018958EE256
:1003400091E0E3DE21E0892B09F420E0822F08957B
:10035000EEE2F1E01382128288EE93E0A0E0B0E0DA
:1003600084839583A683B7838CE191E09183808316
:1003700085EC90E09587848784EC90E0978786876A
:1003800080EC90E0918B808B81EC90E0938B828B62
:1003900082EC90E0958B848B86EC90E0978B868B3B
:1003A000118E128E138E148E08958F929F92AF929B
:1003B000BF92CF92DF92EF92FF920F931F93CF9352
:1003C000DF937C018B016C0182E0C80ED11C4701D8
:1003D000E5E08E0E911CC0E0D0E0F60161916F0166
:1003E0004AE050E0C801D0D05C016EE2C80167D09D
:1003F0008A0D9B1DC80FD91FC814D90471F74AE094
:1004000050E0F7016581C801BFD08C0F9D1FDF91BF
:10041000CF911F910F91FF90EF90DF90CF90BF9001
:10042000AF909F908F900895EBECF1E08CE291E01B
:100430009183808312821382148215820895CF9251
:10044000DF92EF92FF920F931F93CF93DF936C0194
:100450007A018B01C0E0D0E0CE15DF0589F0D8012C
:100460006D918D01D601ED91FC910190F081E02D0F
:10047000C6010995892B11F47E0102C02196ECCFAB
:10048000C701DF91CF911F910F91FF90EF90DF9007
:10049000CF9008956115710579F0FB01019000205E
:1004A000E9F73197AF01461B570BDC01ED91FC9149
:1004B0000280F381E02D099480E090E00895DC0152
:1004C000ED91FC910190F081E02D09948F929F9223
:1004D000AF92BF92CF92DF92EF92FF920F931F9352
:1004E000CF93DF93CDB7DEB7A1970FB6F894DEBFF9
:1004F0000FBECDBF7C01D42EC52EDB0119A2223048
:1005000008F42AE08E010F5D1F4F822E912CA12C42
:10051000B12C6D2D7C2DCD01A50194011DD4D22EC1
:10052000C32EDA01015011096A3071058105910568
:1005300010F4605D01C0695CF8016083232B242BFB
:10054000252B39F7B801C701A5DFA1960FB6F8949E
:10055000DEBF0FBECDBFDF91CF911F910F91FF90F6
:10056000EF90DF90CF90BF90AF909F908F900895C5
:100570002115310541F4DC01ED91FC910190F081F0
:10058000E02D642F0994A2CF9A01462F50E060E03D
:1005900070E0EECF813039F018F0823051F00895DC
:1005A00010926E00089580916F008D7F80936F0090
:1005B0000895809170008D7F8093700081E080931A
:1005C000B0008091B100887F84608093B100109268
:1005D000B3000895CF93C82F80910A018C1307C0F0
:1005E000E8E6F0E0E4918FEF80930A0101C0EFEFBD
:1005F0008E2FD0DF60E08C2FCF91A4C21F920F927C
:100600000FB60F9211242F933F934F935F936F93E5
:100610007F938F939F93AF93BF93EF93FF938091BB
:10062000D4019091D501A091D601B091D701892B29
:100630008A2B8B2B51F18091D101E091D201F09165
:10064000D3019081892780838091D4019091D50135
:10065000A091D601B091D701181619061A061B06EB
:10066000BCF48091D4019091D501A091D601B091B4
:10067000D7010197A109B1098093D4019093D501C5
:10068000A093D601B093D70103C080910A01A2DFE5
:10069000FF91EF91BF91AF919F918F917F916F915A
:1006A0005F914F913F912F910F900FBE0F901F9030
:1006B000189508958230E8F4E82FF0E0EE0FFF1F60
:1006C000E55FFE4F71836083813041F08091690066
:1006D0008C7F482B40936900E89A089580916900C7
:1006E000440F551F440F551F837F482B40936900CB
:1006F000E99A08951F920F920FB60F9211242F932B
:100700003F934F935F936F937F938F939F93AF9399
:10071000BF93EF93FF93E0910B01F0910C010995CA
:10072000FF91EF91BF91AF919F918F917F916F91C9
:100730005F914F913F912F910F900FBE0F901F909F
:1007400018951F920F920FB60F9211242F933F937B
:100750004F935F936F937F938F939F93AF93BF93C9
:10076000EF93FF93E0910D01F0910E010995FF9138
:10077000EF91BF91AF919F918F917F916F915F9119
:100780004F913F912F910F900FBE0F901F90189592
:1007900008950895BDD0FDDF7CD2C3EBD0E08BD2AD
:1007A0002097E9F3E0DCFBCF1F920F920FB60F9278
:1007B00011242F933F938F939F93AF93BF93809177
:1007C000D9019091DA01A091DB01B091DC01309167
:1007D000D80123E0230F2D3720F40196A11DB11D70
:1007E00005C026E8230F0296A11DB11D2093D80154
:1007F0008093D9019093DA01A093DB01B093DC01DF
:100800008091DD019091DE01A091DF01B091E001C6
:100810000196A11DB11D8093DD019093DE01A0938F
:10082000DF01B093E001BF91AF919F918F913F9114
:100830002F910F900FBE0F901F9018952FB7F8941F
:100840006091D9017091DA018091DB019091DC0116
:100850002FBF08953FB7F8948091DD019091DE019C
:10086000A091DF01B091E00126B5A89B05C02F3F04
:1008700019F00196A11DB11D3FBFBA2FA92F982FC6
:100880008827820F911DA11DB11DBC01CD0142E041
:10089000660F771F881F991F4A95D1F708958F9289
:1008A0009F92AF92BF92CF92DF92EF92FF926B0135
:1008B0007C01D0DF4B015C01C114D104E104F104DF
:1008C000F1F066DFC7DFDC01CB0188199909AA09BD
:1008D000BB09883E9340A105B10570F321E0C21A1F
:1008E000D108E108F10888EE880E83E0981EA11C6B
:1008F000B11CC114D104E104F10421F7DDCFFF9054
:10090000EF90DF90CF90BF90AF909F908F90089521
:10091000789484B5826084BD84B5816084BD85B5DA
:10092000826085BD85B5816085BDEEE6F0E08081A1
:1009300081608083E1E8F0E01082808182608083C2
:10094000808181608083E0E8F0E080818160808345
:10095000E1EBF0E0808184608083E0EBF0E0808177
:1009600081608083EAE7F0E0808184608083808119
:1009700082608083808181608083808180688083C1
:100980001092C10008958E3008F08E50877020912B
:100990000F0190E4299F90011124822B80937C0009
:1009A00080917A00806480937A0080917A0086FD3D
:1009B000FCCF809178002091790090E0922B0895EF
:1009C0001F93CF93DF93182FEB0161E07FD0209727
:1009D00011F460E004C0CF3FD10531F461E0812F14
:1009E000DF91CF911F91AEC0E12FF0E0E759FF4FAB
:1009F000E491E330F9F048F4E130B9F0E230A1F5E8
:100A000084B5806284BDC8BD34C0E730E9F0E83009
:100A100019F1E43049F58091800080628093800074
:100A2000D0938B00C0938A0024C084B5806884BDB5
:100A3000C7BD1FC080918000806880938000D093E4
:100A40008900C093880015C08091B00080688093B1
:100A5000B000C093B3000DC08091B000806280935D
:100A6000B000C093B40005C0C038D1050CF0B6CFBB
:100A7000B0CFDF91CF911F910895833081F028F49A
:100A8000813099F08230A1F008958730A9F0883044
:100A9000B9F08430D1F4809180008F7D03C08091C3
:100AA00080008F7780938000089584B58F7702C08F
:100AB00084B58F7D84BD08958091B0008F7703C089
:100AC0008091B0008F7D8093B0000895CF93DF9325
:100AD00090E0FC01E358FF4F2491FC01EF56FF4FDB
:100AE0008491882361F190E0880F991FFC01E15502
:100AF000FF4FC591D491FC01EB55FF4FA591B491E7
:100B0000611109C09FB7F89488812095822388835A
:100B1000EC912E230BC0623061F49FB7F8943881BA
:100B2000822F809583238883EC912E2B2C939FBF5B
:100B300006C08FB7F894E8812E2B28838FBFDF91F2
:100B4000CF9108951F93CF93DF93282F30E0F901C1
:100B5000E759FF4F8491F901E358FF4FD491F90110
:100B6000EF56FF4FC491CC23C1F0162F811185DFC2
:100B7000EC2FF0E0EE0FFF1FEB55FF4FA591B49166
:100B80008FB7F894111105C09C91ED2FE095E923E2
:100B900002C0EC91ED2BEC938FBFDF91CF911F91B1
:100BA0000895CF92DF92EF92FF920F931F9346DE4C
:100BB0006093EE017093EF018093F0019093F10147
:100BC0000091EA011091EB012091EC013091ED01CF
:100BD0006B017C01C01AD10AE20AF30A00911401E8
:100BE0001091150120911601309117010C151D056A
:100BF0002E053F0558F421E02093F2016093EA01AD
:100C00007093EB018093EC019093ED011F910F9194
:100C1000FF90EF90DF90CF900895CF92DF92EF9208
:100C2000FF920F931F930ADE6093E5017093E60134
:100C30008093E7019093E8010091E1011091E201B6
:100C40002091E3013091E4016B017C01C01AD10ACB
:100C5000E20AF30A00911001109111012091120192
:100C6000309113010C151D052E053F0558F421E0A8
:100C70002093E9016093E1017093E2018093E30125
:100C80009093E4011F910F91FF90EF90DF90CF9030
:100C9000089561E086E01ADF61E087E017DF43E056
:100CA00050E061ED75E080E005DD43E050E06DE08F
:100CB00076E081E0FFCCCF92DF92EF92FF9280E06E
:100CC00062DE6C0181E05FDE7C018091F2018130A7
:100CD00059F4B601D7FE02C06D5F7F4F75956795D9
:100CE0007595679586E06CDE8091E9018130E1F4CD
:100CF00061E087E027DFC70163E070E01AD06B0195
:100D00008DE7C80ED11C0D2C000CEE08FF08C701A2
:100D1000B601C5DD60E087E015DFC701B601FF90D1
:100D2000EF90DF90CF90BBCDFF90EF90DF90CF9012
:100D3000089597FB072E16F4009406D077FD08D08F
:100D40002DD007FC05D03EF4909581959F4F0895D6
:100D5000709561957F4F0895A1E21A2EAA1BBB1BC7
:100D6000FD010DC0AA1FBB1FEE1FFF1FA217B30777
:100D7000E407F50720F0A21BB30BE40BF50B661F8D
:100D8000771F881F991F1A9469F760957095809551
:100D900090959B01AC01BD01CF010895AA1BBB1B1F
:100DA00051E107C0AA1FBB1FA617B70710F0A61B6B
:100DB000B70B881F991F5A95A9F780959095BC018C
:100DC000CD010895EE0FFF1F0590F491E02D0994D9
:040DD000F894FFCFC5
:100DD4000000F301800001000000FF5903590301E2
:100DE40005000000050000000000000002011F02D1
:0E0DF40085009F009100E10000000000D50185
:00000001FF
