:100000005EC00000EEC3000013C400007EC000000C
:100010007CC000007AC0000078C0000066C3000009
:1000200074C0000072C0000070C000006EC000000C
:100030006CC000006AC0000068C0000066C000001C
:100040002AC4000062C0000087C10000B7C10000E0
:100050005CC000005AC0000058C0000056C000003C
:1000600054C0000052C0000002000000080002015D
:10007000000003040700000000000000000102046B
:10008000081020408001020408102001020408101A
:100090002004040404040404040202020202020311
:1000A000030303030300000000250028002B0000C9
:1000B000000000240027002A00000C02780211240E
:1000C0001FBECFEFD8E0DEBFCDBF11E0A0E0B1E0B2
:1000D000E2E8F1E102C005900D92A235B107D9F72F
:1000E00022E0A2E5B1E001C01D92AD31B207E1F717
:1000F00010E0CFE5D0E003C02197FE010DD7CD354C
:10010000D107D1F7BED30C94BF087ACFFC01918DF3
:10011000228D892F90E0805C9F4F821B91098F7305
:1001200099270895FC01918D828D981731F0828D69
:10013000E80FF11D858D90E008958FEF9FEF0895F2
:10014000FC01918D828D981761F0828DDF01A80FDF
:10015000B11D5D968C91928D9F5F9F73928F90E001
:1001600008958FEF9FEF089583E092E0892B41F08F
:1001700080E090E0892B21F046D181110C940000A1
:100180000895FC01848DDF01A80FB11DA35ABF4F54
:100190002C91848D90E001968F739927848FA68986
:1001A000B7892C93A089B1898C9180648C93938DAD
:1001B000848D981306C00288F389E02D80818F7D9D
:1001C00080830895CF93DF93EC01888D8823C1F05D
:1001D000EA89FB89808185FD05C0A889B9898C9150
:1001E00086FD0EC00FB607FCF5CF808185FFF2CFEC
:1001F000A889B9898C9185FFEDCFCE01C2DFE8CF08
:10020000DF91CF910895EF92FF920F931F93CF93B9
:10021000DF93EC0181E0888F9B8D8C8D981305C056
:10022000E889F989808185FD23C0F62E0B8D10E0C9
:100230000F5F1F4F0F731127E02E8C8DE8120BC03C
:100240000FB607FCFACFE889F989808185FFF5CFE1
:10025000CE0197DFF2CF8B8DFE01E80FF11DE35A3F
:10026000FF4FF0820B8FEA89FB898081806207C093
:10027000EE89FF896083E889F989808180648083C1
:1002800081E090E0DF91CF911F910F91FF90EF906F
:100290000895CF92DF92EF92FF921F93CF93DF9357
:1002A000EC016A017B01122FE889F98982E08083E1
:1002B0004115514E61057105A9F060E079E08DE3CB
:1002C00090E0A701960106D6DA01C9010197A109BC
:1002D000B109B695A79597958795AC01411580E131
:1002E0005807A0F0E889F989108260E874E88EE187
:1002F00090E0A7019601EED5BA01A901415051093C
:10030000610971097695679557954795EC85FD8547
:100310005083EE85FF854083188EEC89FD8910831C
:10032000EA89FB89808180618083EA89FB898081F9
:1003300088608083EA89FB89808180688083EA897C
:10034000FB8980818F7D8083DF91CF911F91FF900A
:10035000EF90DF90CF9008951F920F920FB60F92FB
:1003600011242F938F939F93EF93FF93E09162015A
:10037000F09163018081E0916801F091690182FD53
:1003800012C0908180916B018F5F8F7320916C01FF
:10039000821751F0E0916B01F0E0EE5AFE4F958F1D
:1003A00080936B0101C08081FF91EF919F918F91AC
:1003B0002F910F900FBE0F901F9018951F920F92C4
:1003C0000FB60F9211242F933F934F935F936F9328
:1003D0007F938F939F93AF93BF93EF93FF9382E5A8
:1003E00091E0CFDEFF91EF91BF91AF919F918F91FF
:1003F0007F916F915F914F913F912F910F900FBE21
:100400000F901F90189582E591E080DE21E0892B06
:1004100009F420E0822F0895E2E5F1E013821282D0
:1004200088EE93E0A0E0B0E084839583A683B78351
:100430008BE191E09183808385EC90E095878487C0
:1004400084EC90E09787868780EC90E0918B808B9E
:1004500081EC90E0938B828B82EC90E0958B848B87
:1004600086EC90E0978B868B118E128E138E148EF5
:1004700008958F929F92AF92BF92CF92DF92EF92A8
:10048000FF920F931F93CF93DF937C018B016C013D
:1004900082E0C80ED11C4701E5E08E0E911CC0E041
:1004A000D0E0F60161916F014AE050E0C801E3D06D
:1004B0005C016EE2C80167D08A0D9B1DC80FD91F71
:1004C000C814D90471F74AE050E0F7016581C8010A
:1004D000D2D08C0F9D1FDF91CF911F910F91FF9074
:1004E000EF90DF90CF90BF90AF909F908F90089546
:1004F000EFEEF1E08BE291E0918380831282138230
:10050000148215820895CF92DF92EF92FF920F939B
:100510001F93CF93DF936C017A018B01C0E0D0E091
:10052000CE15DF0589F0D8016D918D01D601ED91D1
:10053000FC910190F081E02DC6010995892B11F401
:100540007E0102C02196ECCFC701DF91CF911F91B0
:100550000F91FF90EF90DF90CF9008956115710596
:1005600079F0FB0101900020E9F73197AF01461BBC
:10057000570BDC01ED91FC910280F381E02D099491
:1005800080E090E00895DC01ED91FC910190F08114
:10059000E02D09946DE271E0E1CF0F931F93CF93AB
:1005A000DF93EC01DBDF8C01CE01F4DF800F911FC4
:1005B000DF91CF911F910F9108958F929F92AF92EB
:1005C000BF92CF92DF92EF92FF920F931F93CF9340
:1005D000DF93CDB7DEB7A1970FB6F894DEBF0FBE9D
:1005E000CDBF7C01D42EC52EDB0119A2223008F428
:1005F0002AE08E010F5D1F4F822E912CA12CB12C71
:100600006D2D7C2DCD01A501940164D4D22EC32E75
:10061000DA01015011096A3071058105910510F464
:10062000605D01C0695CF8016083232B242B252BBE
:1006300039F7B801C70192DFA1960FB6F894DEBF73
:100640000FBECDBFDF91CF911F910F91FF90EF9023
:10065000DF90CF90BF90AF909F908F90089521151D
:10066000310541F4DC01ED91FC910190F081E02D28
:10067000642F0994A2CF9A01462F50E060E070E009
:10068000EECF813039F018F0823051F00895109299
:100690006E00089580916F008D7F80936F000895A4
:1006A000809170008D7F8093700081E08093B00016
:1006B0008091B100887F84608093B1001092B30074
:1006C0000895CF93C82F80910A018C1307C0E8E6E4
:1006D000F0E0E4918FEF80930A0101C0EFEF8E2FDD
:1006E000D0DF60E08C2FCF912AC21F920F920FB6FD
:1006F0000F9211242F933F934F935F936F937F93A8
:100700008F939F93AF93BF93EF93FF938091F801E3
:100710009091F901A091FA01B091FB01892B8A2BEC
:100720008B2B51F18091F501E091F601F091F701E9
:100730009081892780838091F8019091F901A0919F
:10074000FA01B091FB01181619061A061B06BCF433
:100750008091F8019091F901A091FA01B091FB010B
:100760000197A109B1098093F8019093F901A09331
:10077000FA01B093FB0103C080910A01A2DFFF914F
:10078000EF91BF91AF919F918F917F916F915F9109
:100790004F913F912F910F900FBE0F901F90189582
:1007A00008958230E8F4E82FF0E0EE0FFF1FE55FD8
:1007B000FE4F71836083813041F0809169008C7FAE
:1007C000482B40936900E89A089580916900440F8E
:1007D000551F440F551F837F482B40936900E99AAA
:1007E00008951F920F920FB60F9211242F933F93EB
:1007F0004F935F936F937F938F939F93AF93BF9329
:10080000EF93FF93E0910B01F0910C010995FF919B
:10081000EF91BF91AF919F918F917F916F915F9178
:100820004F913F912F910F900FBE0F901F901895F1
:100830001F920F920FB60F9211242F933F934F9355
:100840005F936F937F938F939F93AF93BF93EF9338
:10085000FF93E0910D01F0910E010995FF91EF9149
:10086000BF91AF919F918F917F916F915F914F91C8
:100870003F912F910F900FBE0F901F9018950895E4
:100880000895BDD0FDDF5ED2C4EBD0E07AD22097D0
:10089000E9F36ADCFBCF1F920F920FB60F9211247F
:1008A0002F933F938F939F93AF93BF938091FD01BD
:1008B0009091FE01A091FF01B09100023091FC01E6
:1008C00023E0230F2D3720F40196A11DB11D05C093
:1008D00026E8230F0296A11DB11D2093FC018093F1
:1008E000FD019093FE01A093FF01B093000280915F
:1008F000010290910202A0910302B09104020196BC
:10090000A11DB11D8093010290930202A0930302E6
:10091000B0930402BF91AF919F918F913F912F911E
:100920000F900FBE0F901F9018952FB7F8946091FD
:10093000FD017091FE018091FF01909100022FBF97
:1009400008953FB7F8948091010290910202A0911E
:100950000302B091040226B5A89B05C02F3F19F0F1
:100960000196A11DB11D3FBFBA2FA92F982F88272F
:10097000820F911DA11DB11DBC01CD0142E0660F8A
:10098000771F881F991F4A95D1F708958F929F92DC
:10099000AF92BF92CF92DF92EF92FF926B017C01F8
:1009A000D0DF4B015C01C114D104E104F104F1F08A
:1009B00066DFC7DFDC01CB0188199909AA09BB09E9
:1009C000883E9340A105B10570F321E0C21AD10819
:1009D000E108F10888EE880E83E0981EA11CB11C86
:1009E000C114D104E104F10421F7DDCFFF90EF90B1
:1009F000DF90CF90BF90AF909F908F9008957894A4
:100A000084B5826084BD84B5816084BD85B5826013
:100A100085BD85B5816085BDEEE6F0E080818160B1
:100A20008083E1E8F0E010828081826080838081B1
:100A300081608083E0E8F0E0808181608083E1EB89
:100A4000F0E0808184608083E0EBF0E08081816071
:100A50008083EAE7F0E08081846080838081826027
:100A60008083808181608083808180688083109210
:100A7000C1000895833081F028F4813099F08230EC
:100A8000A1F008958730A9F08830B9F08430D1F40E
:100A9000809180008F7D03C0809180008F7780934C
:100AA0008000089584B58F7702C084B58F7D84BDA2
:100AB00008958091B0008F7703C08091B0008F7D42
:100AC0008093B0000895CF93DF9390E0FC01E3584A
:100AD000FF4F2491FC01EF56FF4F8491882361F171
:100AE00090E0880F991FFC01E155FF4FC591D4910B
:100AF000FC01EB55FF4FA591B491611109C09FB75F
:100B0000F8948881209582238883EC912E230BC052
:100B1000623061F49FB7F8943881822F80958323E7
:100B20008883EC912E2B2C939FBF06C08FB7F8942F
:100B3000E8812E2B28838FBFDF91CF9108951F93DB
:100B4000CF93DF93282F30E0F901E759FF4F8491CD
:100B5000F901E358FF4FD491F901EF56FF4FC491CB
:100B6000CC23C1F0162F811185DFEC2FF0E0EE0FC2
:100B7000FF1FEB55FF4FA591B4918FB7F89411115A
:100B800005C09C91ED2FE095E92302C0EC91ED2B7F
:100B9000EC938FBFDF91CF911F910895CF93DF9397
:100BA000C5E0D0E061E087E0CADF6DE770E080E09B
:100BB00090E0ECDE60E087E0C2DF6DE770E080E0AF
:100BC00090E0E4DE219771F76CE371E082E591E05B
:100BD000DF91CF91E2CCCF93DF93C5E0D0E061E02D
:100BE00086E0ADDF6AEF70E080E090E0CFDE60E0AD
:100BF00086E0A5DF6AEF70E080E090E0C7DE219735
:100C000071F762E471E082E591E0DF91CF91C5CCAC
:100C1000CF92DF92EF92FF920F931F9386DE609345
:100C200011027093120280931302909314020091A8
:100C30000D0210910E0220910F02309110026B01F3
:100C40007C01C01AD10AE20AF30A00911301109143
:100C5000140120911501309116010C151D052E056A
:100C60003F05E0F460930D0270930E0280930F0233
:100C70009093100240E050E06EEC75E08091170216
:100C8000909118029DD068E471E082E591E01F9197
:100C90000F91FF90EF90DF90CF907FCC1F910F913D
:100CA000FF90EF90DF90CF900895CF92DF92EF9278
:100CB000FF920F931F9339DE6093090270930A022B
:100CC00080930B0290930C02009105021091060292
:100CD00020910702309108026B017C01C01AD10AF1
:100CE000E20AF30A00910F01109110012091110105
:100CF000309112010C151D052E053F05E0F460939F
:100D0000050270930602809307029093080241E067
:100D100050E06BEE75E0809117029091180250D070
:100D20006DE471E082E591E01F910F91FF90EF90EB
:100D3000DF90CF9032CC1F910F91FF90EF90DF901A
:100D4000CF90089532D0909318028093170226E036
:100D500040E052EC61E070E082E591E09ADA61E017
:100D600087E0B1DE61E086E0AEDE43E050E068E0BF
:100D700076E080E016DD43E050E065E576E081E076
:100D800010CD8091170290911802A0D01816190664
:100D90005CF4809117029091180272D09093160221
:100DA00080931502FC010994089584E090E0BAD084
:100DB000009729F0FC01118210821382128208959B
:100DC000CF92DF92EF92FF920F931F93CF93DF9317
:100DD0006C017B018A0188E090E0A4D0FC010097BF
:100DE00009F445C0F182E0821383028315821482E4
:100DF00017821682E601A881B981109719F49983A8
:100E000088832FC012968D919C911397081719070C
:100E10008CF4B783A6831596FC93EE931497F9830D
:100E2000E8831FC012962D913C911397201731072C
:100E30003CF4DC0116968D919C911797009791F7E1
:100E4000B583A4839783868316968D919C9117977B
:100E5000009719F0EC01FD83EC831796FC93EE9359
:100E60001697F60182819381019693838283DF91A5
:100E7000CF911F910F91FF90EF90DF90CF90089549
:100E80000F931F93CF93DF93DC01ED91FC9130978B
:100E9000B1F000811181A681B781109721F01596DC
:100EA0001C921E921497EC01B983A883CF01CFD076
:100EB0008A819B8101979B838A83C80102C080E05D
:100EC00090E0DF91CF911F910F910895FC018281F5
:100ED00093810895A1E21A2EAA1BBB1BFD010DC030
:100EE000AA1FBB1FEE1FFF1FA217B307E407F507DA
:100EF00020F0A21BB30BE40BF50B661F771F881FB6
:100F0000991F1A9469F760957095809590959B014B
:100F1000AC01BD01CF010895EE0FFF1F0590F491C4
:100F2000E02D0994CF93DF938230910510F482E095
:100F300090E0E0911B02F0911C0220E030E0C0E064
:100F4000D0E0309711F14081518148175907C0F026
:100F50004817590761F482819381209719F09B8388
:100F60008A832BC090931C0280931B0226C02115FC
:100F7000310519F04217530718F49A01BE01DF0139
:100F8000EF010280F381E02DDCCF2115310509F15D
:100F9000281B390B2430310590F412968D919C91C9
:100FA00013976115710521F0FB019383828304C0BF
:100FB00090931C0280931B02FD01329644C0FD01F8
:100FC000E20FF31F81939193225031092D933C93AB
:100FD0003AC02091190230911A02232B41F420913A
:100FE00002013091030130931A02209319022091DB
:100FF0000001309101012115310541F42DB73EB7B3
:101000004091040150910501241B350BE091190218
:10101000F0911A02E217F307A0F42E1B3F0B2817DA
:10102000390778F0AC014E5F5F4F2417350748F061
:101030004E0F5F1F50931A024093190281939193B0
:1010400002C0E0E0F0E0CF01DF91CF9108950F936F
:101050001F93CF93DF93009709F48CC0FC01329764
:101060001382128200911B0210911C0201151105BE
:1010700081F420813181820F931F209119023091D8
:101080001A022817390779F5F0931A02E09319022A
:1010900071C0D80140E050E0AE17BF0750F412967F
:1010A0002D913C911397AD012115310509F1D9011D
:1010B000F3CF9D01DA013383228360817181860F32
:1010C000971F8217930769F4EC0128813981260F55
:1010D000371F2E5F3F4F318320838A819B8193830B
:1010E0008283452B29F4F0931C02E0931B0242C03B
:1010F0001396FC93EE931297ED01499159919E013D
:10110000240F351FE217F30771F480819181840F5A
:10111000951F029611969C938E93828193811396CC
:101120009C938E931297E0E0F0E0D80112968D9197
:101130009C911397009719F0F8018C01F6CF8D91CF
:101140009C9198012E5F3F4F820F931F20911902AF
:1011500030911A022817390769F4309729F4109250
:101160001C0210921B0202C01382128210931A02F8
:1011700000931902DF91CF911F910F910895F89478
:02118000FFCF9F
:1011820000001D02800001000000FFD003D00364B4
:1011920000000064000000000000000301830286DA
:1011A20000A0009200E2000000000039020D0A00D7
:1011B2006E616E00696E66006F76660074657374A8
:1011C2003000746573743100697372300069737230
:0211D2003100EA
:00000001FF
