:1000000059C000001AC400003FC400007AC00000BC
:1000100078C0000076C0000074C00000B2C30000C9
:1000200070C000006EC000006CC000000C94770F20
:1000300068C0000066C0000064C0000062C000002C
:1000400055C400005EC0000085C10000B5C10000BD
:1000500058C0000056C0000054C0000052C000004C
:1000600050C000004EC00000020000000800020165
:10007000000003040700000000000000000102046B
:10008000081020408001020408102001020408101A
:100090002004040404040404040202020202020311
:1000A000030303030300000000250028002B0000C9
:1000B0000A02760211241FBECFEFD8E0DEBFCDBF0B
:1000C00011E0A0E0B1E0E2E9F0E202C005900D929B
:1000D000A435B107D9F728E0A4E5B1E001C01D922D
:1000E000AA3AB207E1F710E0CAE5D0E004C02197D0
:1000F000FE010E943810C835D107C9F7EDD30C9422
:1001000047107ECFFC01918D228D892F90E0805C7D
:100110009F4F821B91098F7399270895FC01918D40
:10012000828D981731F0828DE80FF11D858D90E05A
:1001300008958FEF9FEF0895FC01918D828D9817A0
:1001400061F0828DDF01A80FB11D5D968C91928DBB
:100150009F5F9F73928F90E008958FEF9FEF0895B8
:1001600081E092E0892B41F080E090E0892B21F042
:1001700048D181110C9400000895FC01848DDF01A9
:10018000A80FB11DA35ABF4F2C91848D90E001960A
:100190008F739927848FA689B7892C93A089B189F9
:1001A0008C9180648C93938D848D981306C0028803
:1001B000F389E02D80818F7D80830895CF93DF9335
:1001C000EC01888D8823C1F0EA89FB89808185FD57
:1001D00005C0A889B9898C9186FD0EC00FB607FCB1
:1001E000F5CF808185FFF2CFA889B9898C9185FFF1
:1001F000EDCFCE01C2DFE8CFDF91CF910895EF922E
:10020000FF920F931F93CF93DF93EC0181E0888FD0
:100210009B8D8C8D981305C0E889F989808185FDB7
:1002200023C0F62E0B8D10E00F5F1F4F0F731127A9
:10023000E02E8C8DE8120BC00FB607FCFACFE889D0
:10024000F989808185FFF5CFCE0197DFF2CF8B8DC5
:10025000FE01E80FF11DE35AFF4FF0820B8FEA8990
:10026000FB898081806207C0EE89FF896083E8890D
:10027000F98980818064808381E090E0DF91CF9173
:100280001F910F91FF90EF900895CF92DF92EF9220
:10029000FF921F93CF93DF93EC016A017B01122F32
:1002A000E889F98982E080834115514E6105710525
:1002B000B1F060E079E08DE390E0A70196010E9443
:1002C0001610DA01C9010197A109B109B695A795E0
:1002D00097958795AC01411580E15807A8F0E8890A
:1002E000F989108260E874E88EE190E0A701960138
:1002F0000E941610BA01A901415051096109710902
:100300007695679557954795EC85FD855083EE85E5
:10031000FF854083188EEC89FD891083EA89FB896B
:10032000808180618083EA89FB8980818860808305
:10033000EA89FB89808180688083EA89FB898081E2
:100340008F7D8083DF91CF911F91FF90EF90DF90A1
:10035000CF9008951F920F920FB60F9211242F93F2
:100360008F939F93EF93FF93E0916401F091650168
:100370008081E0916A01F0916B0182FD12C0908151
:1003800080916D018F5F8F7320916E01821751F004
:10039000E0916D01F0E0EC5AFE4F958F80936D0176
:1003A00001C08081FF91EF919F918F912F910F90CC
:1003B0000FBE0F901F9018951F920F920FB60F92BD
:1003C00011242F933F934F935F936F937F938F935A
:1003D0009F93AF93BF93EF93FF9384E591E0CDDEBE
:1003E000FF91EF91BF91AF919F918F917F916F910D
:1003F0005F914F913F912F910F900FBE0F901F90E3
:10040000189584E591E07EDE21E0892B09F420E057
:10041000822F0895E4E5F1E01382128288EE93E0E2
:10042000A0E0B0E084839583A683B78385E191E063
:100430009183808385EC90E09587848784EC90E0BD
:100440009787868780EC90E0918B808B81EC90E0A1
:10045000938B828B82EC90E0958B848B86EC90E082
:10046000978B868B118E128E138E148E08958F9219
:100470009F92AF92BF92CF92DF92EF92FF920F9333
:100480001F93CF93DF937C018B016C0182E0C80E38
:10049000D11C4701E5E08E0E911CC0E0D0E0F601D2
:1004A00061916F014AE050E0C80131D15C016EE218
:1004B000C80168D08A0D9B1DC80FD91FC814D90464
:1004C00071F74AE050E0F7016581C80120D18C0F37
:1004D0009D1FDF91CF911F910F91FF90EF90DF90C3
:1004E000CF90BF90AF909F908F900895E1EFF1E093
:1004F00085E291E0918380831282138214821582B7
:100500000895CF92DF92EF92FF920F931F93CF93B4
:10051000DF936C017A018B01C0E0D0E0CE15DF05DE
:1005200089F0D8016D918D01D601ED91FC9101907A
:10053000F081E02DC6010995892B11F47E0102C0DE
:100540002196ECCFC701DF91CF911F910F91FF90C2
:10055000EF90DF90CF9008956115710579F0FB0160
:1005600001900020E9F73197AF01461B570BDC01E2
:10057000ED91FC910280F381E02D099480E090E000
:100580000895EACFDC01ED91FC910190F081E02D1E
:10059000099467E271E0E0CF8F929F92AF92BF9291
:1005A000CF92DF92EF92FF920F931F93CF93DF933F
:1005B000CDB7DEB7A1970FB6F894DEBF0FBECDBFA3
:1005C0007C01D42EC52EDB0119A2223008F42AE0CA
:1005D0008E010F5D1F4F822E912CA12CB12C6D2D01
:1005E0007C2DCD01A50194010E941610D22EC32EA0
:1005F000DA01015011096A3071058105910510F485
:10060000605D01C0695CF8016083232B242B252BDE
:1006100031F7B801C701A0DFA1960FB6F894DEBF8D
:100620000FBECDBFDF91CF911F910F91FF90EF9043
:10063000DF90CF90BF90AF909F908F900895CF9212
:10064000DF92EF92FF920F931F93CF93DF93EC0112
:100650006A017B012115310579F4E881F981019066
:10066000F081E02D642FDF91CF911F910F91FF90CA
:10067000EF90DF90CF9009942A303105D9F477FFBD
:1006800018C06DE27FDF8C0144275527BA014C1951
:100690005D096E097F092AE0CE017EDF800F911F80
:1006A000DF91CF911F910F91FF90EF90DF90CF904E
:1006B00008952AE0B701A601CE01DF91CF911F91E5
:1006C0000F91FF90EF90DF90CF9066CF0F931F9325
:1006D000CF93DF93EC019A01AB01770F660B770B99
:1006E000AEDF8C01CE0155DF800F911FDF91CF91DE
:1006F0001F910F9108952115310541F4DC01ED9111
:10070000FC910190F081E02D642F099445CF9A016E
:10071000462F50E060E070E0EECF813039F018F005
:10072000823051F0089510926E00089580916F000C
:100730008D7F80936F000895809170008D7F8093EE
:10074000700081E08093B0008091B100887F846068
:100750008093B1001092B3000895CF93C82F809179
:100760000A018C1307C0E8E6F0E0E4918FEF809374
:100770000A0101C0EFEF8E2FD0DF60E08C2FCF9108
:1007800063C11F920F920FB60F9211242F933F93C4
:100790004F935F936F937F938F939F93AF93BF9389
:1007A000EF93FF938091FA019091FB01A091FC01DE
:1007B000B091FD01892B8A2B8B2B51F18091F70190
:1007C000E091F801F091F90190818927808380916F
:1007D000FA019091FB01A091FC01B091FD01181666
:1007E00019061A061B06BCF48091FA019091FB01D0
:1007F000A091FC01B091FD010197A109B10980937D
:10080000FA019093FB01A093FC01B093FD0103C09A
:1008100080910A01A2DFFF91EF91BF91AF919F916B
:100820008F917F916F915F914F913F912F910F9099
:100830000FBE0F901F90189508951F920F920FB63C
:100840000F9211242F933F934F935F936F937F9356
:100850008F939F93AF93BF93EF93FF93E0910B011F
:10086000F0910C010995FF91EF91BF91AF919F918C
:100870008F917F916F915F914F913F912F910F9049
:100880000FBE0F901F9018951F920F920FB60F92E8
:1008900011242F933F934F935F936F937F938F9385
:1008A0009F93AF93BF93EF93FF93E0910D01F0916E
:1008B0000E010995FF91EF91BF91AF919F918F919B
:1008C0007F916F915F914F913F912F910F900FBE4C
:1008D0000F901F901895089553D0FDDF22D1C0EBE3
:1008E000D0E030D12097E9F33BDCFBCF1F920F9291
:1008F0000FB60F9211242F933F938F939F93AF9333
:10090000BF938091FF0190910002A0910102B091EC
:1009100002023091FE0123E0230F2D3720F40196CF
:10092000A11DB11D05C026E8230F0296A11DB11D12
:100930002093FE018093FF0190930002A093010297
:10094000B09302028091030290910402A0910502EB
:10095000B09106020196A11DB11D809303029093F0
:100960000402A0930502B0930602BF91AF919F913C
:100970008F913F912F910F900FBE0F901F90189560
:10098000789484B5826084BD84B5816084BD85B56A
:10099000826085BD85B5816085BDEEE6F0E0808131
:1009A00081608083E1E8F0E0108280818260808352
:1009B000808181608083E0E8F0E0808181608083D5
:1009C000E1EBF0E0808184608083E0EBF0E0808107
:1009D00081608083EAE7F0E08081846080838081A9
:1009E0008260808380818160808380818068808351
:1009F0001092C1000895833081F028F4813099F07D
:100A00008230A1F008958730A9F08830B9F08430A1
:100A1000D1F4809180008F7D03C0809180008F771A
:100A200080938000089584B58F7702C084B58F7D50
:100A300084BD08958091B0008F7703C08091B0008D
:100A40008F7D8093B00008951F93CF93DF93282F5D
:100A500030E0F901E759FF4F8491F901E358FF4F66
:100A6000D491F901EF56FF4FC491CC23C1F0162F5A
:100A70008111C1DFEC2FF0E0EE0FFF1FEB55FF4FB0
:100A8000A591B4918FB7F894111105C09C91ED2FE9
:100A9000E095E92302C0EC91ED2BEC938FBFDF9141
:100AA000CF911F910895CF93DF9300D0CDB7DEB7DC
:100AB0008091070290910802009749F000E022E03F
:100AC00030E040E050E0BE016F5F7F4F19D266E337
:100AD00071E084E591E055DD69817A814AE050E07A
:100AE00084E591E0F3DDE4CFCF93DF9300D0CDB781
:100AF000DEB77C01FA82E9828091070290910802B8
:100B0000009749F000E022E030E040E050E0BE0114
:100B10006F5F7F4F5FD161E070E080E090E08BD548
:100B2000E9CF26E040E052EC61E070E084E591E03E
:100B3000ACDB40E062E083E01BD19093080280933D
:100B400007020895AF92BF92CF92DF92EF92FF9289
:100B50000F93A12CB12CC12CD12CE12CF12C02E053
:100B600021E030E048EC50E06CE371E084E795E090
:100B7000EDD203E022E030E048EC50E062E471E0C6
:100B800084E795E0E3D201E020E030E048EC50E07B
:100B900068E471E083E595E0D9D20F91FF90EF9082
:100BA000DF90CF90BF90AF90C9C31F93CF93DF93D7
:100BB000EC01142F88A181110BC088819981892BA8
:100BC00009F041C08A819B8133D71B821A823CC0C5
:100BD000482F50E0111115C08C819D810E943E105C
:100BE00028A18C819D81820F911D9D838C832A81F8
:100BF0003B818217930738F1888199819D838C838B
:100C000022C08E819F810E943E1088A190E0919524
:100C1000819591092E813F81280F391F3F832E83B3
:100C2000488159812417350730F42A813B81820F8E
:100C3000931F9F838E83123031F48E8D882319F099
:100C40008E8D81508E8F80E09E8D9F5F9E8FDF9175
:100C5000CF911F910895FC01CB0140A14423A1F045
:100C600050E026813781240F351F37832683628128
:100C700073812617370720F020813181378326833F
:100C8000668177810C943E1008950F931F93CF9344
:100C9000DF93EC010FB6F8940F928C010D5E1F4F9D
:100CA0009AA119165CF48B89882341F0C801B4D548
:100CB00081115BD69AA191509AA3F2CF8FEF8AA3AC
:100CC0000F900FBE0FB6F8940F928E01085F1F4F62
:100CD00099A119165CF48885882341F0C8019CD538
:100CE000811143D699A1915099A3F2CF8FEF89A397
:100CF0000F900FBEDF91CF911F910F910895CF9369
:100D0000DF93EC010FB6F8940F92288139819F8D03
:100D100048A1949FC0011124F901E80FF91FFB833A
:100D2000EA831E8E3D832C83841B9109820F931FBF
:100D30009F838E838FEF89A38AA361110BC088855F
:100D4000882381F0CE01089667D5813059F40E943E
:100D5000C50E08C0CE0108960E94790FCE014396B9
:100D60000E94790F0F900FBE81E0DF91CF9108951F
:100D7000EF92FF921F93CF93DF931F92CDB7DEB711
:100D8000182F662331F0869F90011124C901019626
:100D900002C080E090E08396698396D67C016981E9
:100DA000009781F0611104C0FC019183808304C02D
:100DB0008396F70191838083F701178F60A361E029
:100DC000C7019DDFC7010F90DF91CF911F91FF9069
:100DD000EF900895AF92BF92CF92DF92EF92FF9281
:100DE0000F93CF93DF93CDB7DEB729970FB6F89463
:100DF000DEBF0FBECDBF7C016B012E833F834887D2
:100E0000598790E0570188E0A80EB11C0FB6F894FE
:100E10000F92F701268D878D281710F00230A9F464
:100E2000402FB601C701C1DEF7019389992339F03C
:100E3000C7014396F1D4813021F4A7D702C08111B4
:100E4000FCCF0F900FBE81E04BC04E815F81688563
:100E50007985452B462B472B19F40F900FBE3FC0C9
:100E6000911103C0CE01019614D50F900FBEA5D2EB
:100E70000FB6F8940F92F70181A18F3F09F411A2E8
:100E8000F70182A18F3F09F412A20F900FBEBE019D
:100E90006A5F7F4FCE0101960DD581111DC00FB63F
:100EA000F8940F92F701968D0F900FBE878D9813CF
:100EB0000FC04E815F8168857985C50173D4C701F4
:100EC000E4DE4ED3882311F091E0A0CF5ED7FCCFB3
:100ED000C701DBDE45D3F8CFC701D7DE41D380E0C1
:100EE00029960FB6F894DEBF0FBECDBFDF91CF912C
:100EF0000F91FF90EF90DF90CF90BF90AF9008954B
:100F0000AF92BF92CF92DF92EF92FF920F93CF9367
:100F1000DF93CDB7DEB729970FB6F894DEBF0FBECB
:100F2000CDBF7C016B012E833F834887598790E0BA
:100F3000570183E1A80EB11C0FB6F8940F92F70188
:100F4000868D882361F1A680B780B601C70183DE54
:100F5000F701011116C0868D8150868F80819181A5
:100F6000892B21F49FD5F70193838283F701808534
:100F7000882389F0C70108964FD4813061F405D7E2
:100F80000AC0B782A6828389882329F0C7014396C5
:100F900043D48111F4CF0F900FBE81E056C04E8133
:100FA0005F8168857985452B462B472B19F40F9077
:100FB0000FBE4AC0911103C0CE0101966AD40F90B2
:100FC0000FBEFBD10FB6F8940F92F70181A18F3FAE
:100FD00009F411A2F70182A18F3F09F412A20F9028
:100FE0000FBEBE016A5F7F4FCE01019663D48111AF
:100FF00028C00FB6F8940F92F701868D0F900FBEA0
:1010000081111BC080819181892B41F40FB6F89426
:101010000F9282819381ADD40F900FBE4E815F817C
:1010200068857985C501BED3C7012FDE99D2882393
:1010300011F091E081CFA9D6FCCFC70126DE90D276
:10104000F8CFC70122DE8CD280E029960FB6F89443
:10105000DEBF0FBECDBFDF91CF910F91FF90EF901C
:10106000DF90CF90BF90AF900895E0913D02F09156
:101070003E028081811104C08FEF9FEFDC010EC022
:10108000E0913D02F0913E020780F085E02D008462
:10109000F185E02D82819381A481B58180930A023C
:1010A00090930B02A0930C02B0930D020895CF927F
:1010B000DF92EF92FF92E091C302F091C40262834B
:1010C000738384839583C0901402D0901502E090BE
:1010D0001602F09017026C157D058E059F0578F4B9
:1010E0006091C3027091C40280913B0290913C02D6
:1010F0006E5F7F4FFF90EF90DF90CF9030C76B0116
:101100007C016091C3027091C40280913D02909174
:101110003E026E5F7F4F23D780910A0290910B02AF
:10112000A0910C02B0910D02C816D906EA06FB0682
:1011300040F4C0920A02D0920B02E0920C02F092AC
:101140000D02FF90EF90DF90CF9008955F926F9225
:101150007F928F929F92AF92BF92CF92DF92EF9247
:10116000FF920F931F93CF93DF934C01162F572EAF
:101170005A013901C114D10431F4CA01A5D46C015A
:10118000892B09F4CAC08CE290E09ED4EC01009750
:1011900079F0DC8ECB8E21E0A21AB108AC0CBD1C1C
:1011A000BC01635E7F4FE12FF52DCF01089606C08D
:1011B000C6011AD5B2C0E817F90749F09F0141915D
:1011C000DB014D93BD01D9012C912111F4CF1CA25B
:1011D000102F0A3008F019E01A8F1DA31EA26E010D
:1011E000B2E0CB0ED11CC60195D6CE010E9692D69A
:1011F000DB87CA878AE090E0A0E0B0E0811B91091C
:10120000A109B1098E879F87A88BB98BDF8BCE8B05
:101210001FA218A619A61AA61BA6A301B401C501F0
:101220000DD599838883E114F10419F0F701D18376
:10123000C0830FB6F8940F92809118028F5F80934D
:1012400018028091C3029091C402892B99F5D09322
:10125000C402C093C30280911802813009F039C0E2
:1012600085E5E82E82E0F82EC70143D6FBE0EF0EBD
:10127000F11C23ECE21622E0F206B1F78AE492E0D8
:1012800038D68FE392E035D680E392E032D685E21D
:1012900092E02FD689E192E02CD68AE492E09093F6
:1012A0003E0280933D028FE392E090933C02809354
:1012B0003B020FC08091120281110BC0E091C3026A
:1012C000F091C402828D081720F0D093C402C0931D
:1012D000C30280910E028F5F80930E028A8D9091DF
:1012E0001302981710F480931302ABE08A9FC00199
:1012F0001124B6018B5A9D4F11D60F900FBE8091CD
:101300001202882341F0E091C302F091C402828D61
:10131000801708F43AD581E001C08FEFDF91CF91BB
:101320001F910F91FF90EF90DF90CF90BF90AF9003
:101330009F908F907F906F905F900895AF92BF9233
:10134000CF92DF92EF92FF920F93A12CB12CC12C80
:10135000D12CE12CF12C00E020E030E045E550E01C
:101360006EE471E088E59BE0F1DE8130F1F4F89401
:101370004FEF5FEFBA0140930A0250930B02609364
:101380000C0270930D0280931202109214021092BC
:10139000150210921602109217020F91FF90EF9013
:1013A000DF90CF90BF90AF90B5C40F91FF90EF90BA
:1013B000DF90CF90BF90AF900895809109028F5F2A
:1013C0008093090208958F929F92AF92BF92EF92FD
:1013D000FF920F931F93CF93DF93809109028111A6
:1013E000A9C08091140290911502A0911602B091AB
:1013F00017020196A11DB11D80931402909315024E
:10140000A0931602B09317028090140290901502D8
:10141000A0901602B090170281149104A104B104A7
:10142000B1F480913D0290913E0220913B023091B7
:101430003C0230933E0220933D0290933C02809305
:101440003B0280910F028F5F80930F020EDE80912E
:101450000A0290910B02A0910C02B0910D02C0E023
:1014600088169906AA06BB0608F454C0DBE0E09192
:101470003D02F0913E028081811104C08FEF9FEF09
:10148000DC0113C0E0913D02F0913E020780F0853F
:10149000E02D00851185F80182819381A481B581B9
:1014A00088169906AA06BB0648F480930A02909310
:1014B0000B02A0930C02B0930D022CC07801F2E055
:1014C000EF0EF11CC7018FD5D80158968D919C91D4
:1014D0005997892B19F0C8010E9685D5F801928D80
:1014E00080911302891710F490931302D99FC001C1
:1014F0001124B7018B5A9D4F11D5E091C302F09191
:10150000C402D8015A969C91828D981708F4AFCFE7
:10151000C1E0ADCFE091C302F091C402E28DBBE027
:10152000EB9FF0011124EB5AFD4F8081823040F097
:10153000C1E006C0809111028F5F80931102C0E06C
:10154000809110028111C1E08C2FDF91CF911F910A
:101550000F91FF90EF90BF90AF909F908F90089564
:10156000EF92FF920F931F93CF93DF930FB6F894F0
:101570000F928091090281508093090280910902A3
:10158000882311F080E04EC0809118028823D1F3A7
:101590008BE0F82EEE24E39480913002882339F119
:1015A000E0913702F0913802C085D185CE010E96C8
:1015B0001AD58E010E5F1F4FC80115D59A8D8091E7
:1015C0001302891710F490931302F99EC00111249D
:1015D000B8018B5A9D4FA2D4E091C302F091C4028E
:1015E0009A8D828D9817C0F2E0921002D5CF80912B
:1015F0001102811108C080911002813009F0C2CF20
:10160000C4D381E00FC0C1E080911102882399F317
:10161000DADE8111C0931002809111028150809313
:101620001102F2CF0F900FBEDF91CF911F910F915A
:10163000FF90EF900895CF92DF92EF92FF92CF93B9
:10164000DF9300D000D0CDB7DEB7611571058105FD
:10165000910511F49AD321C069837A838B839C838B
:10166000ACDEC0901402D0901502E0901602F0900B
:10167000170269817A818B819C81C60ED71EE81E74
:10168000F91E8091C3029091C4020296ACD4C701A6
:10169000B6010DDD65DF8823E9F20F900F900F9002
:1016A0000F90DF91CF91FF90EF90DF90CF90089552
:1016B00080912402882321F180DEC091250250DF31
:1016C000CC23B1F30FB6F8940F92E0912C02F09175
:1016D0002D02C085D185CE01029685D48091180255
:1016E00081508093180280912402815080932402BB
:1016F0000F900FBE8B8D9C8D77D2CE0175D2D8CF37
:10170000809155028230A0F240D3D2CF809109025D
:10171000882321F081E08093100208951092100236
:101720009BE0E09113029E9FF0011124EB5AFD4FC4
:101730008081811106C08091130281508093130231
:10174000F0CF8091130290E04BE0489F9001499FB9
:10175000300D1124F901EB5AFD4FA181B28114968D
:101760000D90BC91A02DB283A183285A3D4FA217A2
:10177000B30731F414962D913C9115973283218350
:101780002BE0289FF001299FF00D1124EB5AFD4F0B
:101790000180F281E02D808591859093C402809331
:1017A000C3020895CF92DF92EF92FF926A017B010C
:1017B0002091C3023091C402B901625F7F4FCFD341
:1017C0008091C3029091C40202960DD48FEFC81687
:1017D000D806E806F80669F46091C3027091C40265
:1017E0006E5F7F4F89E192E0FF90EF90DF90CF90A6
:1017F00095C38091140290911502A0911602B091A8
:101800001702BC01CD016C0D7D1D8E1D9F1DFF902B
:10181000EF90DF90CF904BCC0F931F93CF93DF933C
:10182000DC011796ED91FC911897C085D1858E014A
:10183000025F1F4FC801D7D380910902811113C0E5
:101840000C501109C801CFD39A8D809113028917CA
:1018500010F490931302BBE09B9FC0011124B801C8
:101860008B5A9D4F03C0B80180E392E057D3E091BB
:10187000C302F091C4029A8D828D891720F481E011
:101880008093100201C080E0DF91CF911F910F91F2
:10189000089520910F02FC01208340911402509181
:1018A000150260911602709117024183528363837F
:1018B000748308958F929F92AF92BF92CF92DF92DE
:1018C000EF92FF920F931F93CF93DF93FB010FB61D
:1018D000F8940F92C0901402D0901502E090160276
:1018E000F090170240815181628173814F3F2FEF49
:1018F00052076207720739F1B0910F02EC01A8811B
:1019000009811A812B813C81BA1729F0C016D106B2
:10191000E206F306D0F446015701801A910AA20AA2
:10192000B30A84169506A606B70678F40C191D09A5
:101930002E093F09400F511F621F731F40835183BF
:1019400062837383A6DF80E001C081E00F900FBE49
:10195000DF91CF911F910F91FF90EF90DF90CF908B
:10196000BF90AF909F908F90089581E08093100278
:1019700008950F931F93CF93DF93FC01892B09F4F4
:1019800052C0828DA091C302B091C4025A969C911C
:10199000891708F048C0468557856089718977FDA9
:1019A00012C0A091C302B091C4025A969C914AE021
:1019B00050E060E070E0491B5109610971094687F8
:1019C0005787608B718B2BE0829FC00111248B5A4B
:1019D0009D4F2485358528173907F1F48F01EF01D4
:1019E0002296CE0100D3E091C302F091C402928D01
:1019F000F801928F80911302891710F490931302CB
:101A0000FBE09F9FC0011124BE018B5A9D4FDF91C7
:101A1000CF911F910F9182C2A091C302B091C402D5
:101A20005A968C91828FDF91CF911F910F910895DB
:101A30000F931F93CF93DF93FC01892B11F480E068
:101A40002CC086A1815086A3228D95A12917B9F3B8
:101A50008111F5CFEF018F010E5F1F4FC801C3D277
:101A60009DA19A8F4AE050E060E070E0491B510967
:101A7000610971094E875F87688B798B80911302AA
:101A8000891710F4909313022BE0929FC001112448
:101A9000B8018B5A9D4F42D281E0DF91CF911F91C7
:101AA0000F9108958091C3029091C402892B39F05F
:101AB000E091C302F091C40286A18F5F86A380915A
:101AC000C3029091C40208950F931F93CF93DF93A5
:101AD000EC0173DC8091C502811121C08FEC92E092
:101AE0009093CB028093CA021092CD021092CC0246
:101AF0008BED95E09093C9028093C8021092C702C3
:101B00001092C6029093D2028093D10286EC92E0AA
:101B10009093D0028093CF0281E08093C5022097FA
:101B200009F02496CE0101978A3D954008F053C0F4
:101B3000E091CA02F091CB02AAECB2E082819381DB
:101B40008C179D0728F022E0E63CF20749F443C0D9
:101B50002081318121153105B1F3DF01F901EECF8B
:101B60000D911C9111970C5F1F4F208131812D9396
:101B70003C938C1B9D0B8930910500F1DF01AC0F6C
:101B8000BD1F13969C938E931297D383C283129694
:101B90002D913C9113976AEC72E0EB018881998159
:101BA000EC014A815B814217530710F4BC01F5CF69
:101BB00011969C938E93EB01B983A88380910F01BA
:101BC0009091100122813381821B930B909310011D
:101BD00080930F0102C000E010E0C2DCC801DF9179
:101BE000CF911F910F910895CF93DF93009719F133
:101BF000EC012497E2DB8A819B81EAECF2E0A08190
:101C0000B18112962D913C9113972817390710F442
:101C1000FD01F5CFB983A883D183C08320910F0143
:101C200030911001820F931F9093100180930F0148
:101C3000DF91CF9195CCDF91CF91089531E1FC01F7
:101C40003083319722E220833197A3E3A083319739
:101C500060833197708331971082319760E8608399
:101C600031971082319762E06083319763E060833F
:101C7000319764E06083319765E06083319766E077
:101C80006083319767E06083319768E060833197C4
:101C900069E06083319760E16083319730833197E9
:101CA00032E13083319733E13083319734E130834F
:101CB000319735E13083319736E13083319737E121
:101CC0003083319738E13083319739E13083319770
:101CD00030E23083319731E230833197208331977E
:101CE00023E220833197408331975083319726E256
:101CF0002083319727E22083319728E22083319790
:101D000029E22083319720E32083319721E3208348
:101D10008697089589E08093890083EC80938800FA
:101D20008BE080938100EFE6F0E080818260808329
:101D3000A091C302B091C402CD91CDBFDD91DEBFB1
:101D4000FF91EF91DF91CF91BF91AF919F918F91D3
:101D50007F916F915F914F913F912F911F910F91C3
:101D6000FF90EF90DF90CF90BF90AF909F908F90BB
:101D70007F906F905F904F903F902F901F900F90AB
:101D80000FBE0F90089581E008950F920FB6F8945A
:101D90000F921F9211242F923F924F925F926F9257
:101DA0007F928F929F92AF92BF92CF92DF92EF92EB
:101DB000FF920F931F932F933F934F935F936F93D4
:101DC0007F938F939F93AF93BF93CF93DF93EF93C3
:101DD000FF93A091C302B091C4020DB60D920EB64E
:101DE0000D9294DCA091C302B091C402CD91CDBFFD
:101DF000DD91DEBFFF91EF91DF91CF91BF91AF9168
:101E00009F918F917F916F915F914F913F912F9112
:101E10001F910F91FF90EF90DF90CF90BF90AF9008
:101E20009F908F907F906F905F904F903F902F90FA
:101E30001F900F900FBE0F9008950F920FB6F89459
:101E40000F921F9211242F923F924F925F926F92A6
:101E50007F928F929F92AF92BF92CF92DF92EF923A
:101E6000FF920F931F932F933F934F935F936F9323
:101E70007F938F939F93AF93BF93CF93DF93EF9312
:101E8000FF93A091C302B091C4020DB60D920EB69D
:101E90000D9299DA81113ADCA091C302B091C4028B
:101EA000CD91CDBFDD91DEBFFF91EF91DF91CF915D
:101EB000BF91AF919F918F917F916F915F914F9162
:101EC0003F912F911F910F91FF90EF90DF90CF9056
:101ED000BF90AF909F908F907F906F905F904F904A
:101EE0003F902F901F900F900FBE0F900895A5DF89
:101EF0001895FC010396928381834FEF5FEFBA013F
:101F00004383548365837683908787839287818711
:101F100010820895FC01138612860895CF93DF93F3
:101F20009C01FB01DC011196CD91DC911297D583C8
:101F3000C4838E819F81978386838E819F81DC01FC
:101F400015967C936E9314977F836E8333872287D5
:101F5000F90180818F5F8083DF91CF910895EF92A7
:101F6000FF920F931F93CF93DF937C01FB0140817E
:101F70005181628173814F3F8FEF5807680778075F
:101F800021F4E701A985BA8512C0D70113961496EA
:101F90008D919C911597EC01088119812A813B81D3
:101FA000401751076207730710F0DC01F0CF149659
:101FB0008D919C91159795838483EC01FF83EE832B
:101FC000B783A6831596FC93EE931497F386E28667
:101FD000F70180818F5F8083DF91CF911F910F91F7
:101FE000FF90EF900895CF93DF93FC01A285B38516
:101FF0008481958126813781EC013F832E83C681C0
:10200000D7819D838C8311968D919C9112978E1709
:102010009F0721F41296DC93CE93119713861286B4
:102020008C9181508C93DF91CF910895A1E21A2E6B
:10203000AA1BBB1BFD010DC0AA1FBB1FEE1FFF1F6C
:10204000A217B307E407F50720F0A21BB30BE40BBC
:10205000F50B661F771F881F991F1A9469F7609503
:102060007095809590959B01AC01BD01CF010895BD
:10207000EE0FFF1F0590F491E02D0994FB01DC01A8
:1020800002C001900D9241505040D8F70895F89445
:02209000FFCF80
:102092000000AA08800001000000FF1C041C04DBF1
:1020A2000500000000FF00810282009C008E00DE1D
:1020B200000000000037020D0A006E616E00696EBA
:1020C20066006F7666005461736B20005461736B17
:1020D20031005461736B32005461736B33004944B5
:0420E2004C45000069
:00000001FF
