:1000000059C000001AC400003FC400007AC00000BC
:1000100078C0000076C0000074C00000B2C30000C9
:1000200070C000006EC000006CC000000C942E0F69
:1000300068C0000066C0000064C0000062C000002C
:1000400055C400005EC0000085C10000B5C10000BD
:1000500058C0000056C0000054C0000052C000004C
:1000600050C000004EC00000020000000800020165
:10007000000003040700000000000000000102046B
:10008000081020408001020408102001020408101A
:100090002004040404040404040202020202020311
:1000A000030303030300000000250028002B0000C9
:1000B0000A02760211241FBECFEFD8E0DEBFCDBF0B
:1000C00011E0A0E0B1E0E0E0F0E202C005900D92A6
:1000D000AE34B107D9F728E0AEE4B1E001C01D921B
:1000E000A43AB207E1F710E0CAE5D0E004C02197D6
:1000F000FE010E94EF0FC835D107C9F7EDD30C946C
:10010000FE0F7ECFFC01918D228D892F90E0805CC7
:100110009F4F821B91098F7399270895FC01918D40
:10012000828D981731F0828DE80FF11D858D90E05A
:1001300008958FEF9FEF0895FC01918D828D9817A0
:1001400061F0828DDF01A80FB11D5D968C91928DBB
:100150009F5F9F73928F90E008958FEF9FEF0895B8
:1001600081E092E0892B41F080E090E0892B21F042
:1001700048D181110C9400000895FC01848DDF01A9
:10018000A80FB11DA35ABF4F2C91848D90E001960A
:100190008F739927848FA689B7892C93A089B189F9
:1001A0008C9180648C93938D848D981306C0028803
:1001B000F389E02D80818F7D80830895CF93DF9335
:1001C000EC01888D8823C1F0EA89FB89808185FD57
:1001D00005C0A889B9898C9186FD0EC00FB607FCB1
:1001E000F5CF808185FFF2CFA889B9898C9185FFF1
:1001F000EDCFCE01C2DFE8CFDF91CF910895EF922E
:10020000FF920F931F93CF93DF93EC0181E0888FD0
:100210009B8D8C8D981305C0E889F989808185FDB7
:1002200023C0F62E0B8D10E00F5F1F4F0F731127A9
:10023000E02E8C8DE8120BC00FB607FCFACFE889D0
:10024000F989808185FFF5CFCE0197DFF2CF8B8DC5
:10025000FE01E80FF11DE35AFF4FF0820B8FEA8990
:10026000FB898081806207C0EE89FF896083E8890D
:10027000F98980818064808381E090E0DF91CF9173
:100280001F910F91FF90EF900895CF92DF92EF9220
:10029000FF921F93CF93DF93EC016A017B01122F32
:1002A000E889F98982E080834115514E6105710525
:1002B000B1F060E079E08DE390E0A70196010E9443
:1002C000CD0FDA01C9010197A109B109B695A7952A
:1002D00097958795AC01411580E15807A8F0E8890A
:1002E000F989108260E874E88EE190E0A701960138
:1002F0000E94CD0FBA01A90141505109610971094C
:100300007695679557954795EC85FD855083EE85E5
:10031000FF854083188EEC89FD891083EA89FB896B
:10032000808180618083EA89FB8980818860808305
:10033000EA89FB89808180688083EA89FB898081E2
:100340008F7D8083DF91CF911F91FF90EF90DF90A1
:10035000CF9008951F920F920FB60F9211242F93F2
:100360008F939F93EF93FF93E0915E01F0915F0174
:100370008081E0916401F091650182FD12C090815D
:10038000809167018F5F8F7320916801821751F010
:10039000E0916701F0E0E25BFE4F958F809367018B
:1003A00001C08081FF91EF919F918F912F910F90CC
:1003B0000FBE0F901F9018951F920F920FB60F92BD
:1003C00011242F933F934F935F936F937F938F935A
:1003D0009F93AF93BF93EF93FF938EE491E0CDDEB5
:1003E000FF91EF91BF91AF919F918F917F916F910D
:1003F0005F914F913F912F910F900FBE0F901F90E3
:1004000018958EE491E07EDE21E0892B09F420E04E
:10041000822F0895EEE4F1E01382128288EE93E0D9
:10042000A0E0B0E084839583A683B78385E191E063
:100430009183808385EC90E09587848784EC90E0BD
:100440009787868780EC90E0918B808B81EC90E0A1
:10045000938B828B82EC90E0958B848B86EC90E082
:10046000978B868B118E128E138E148E08958F9219
:100470009F92AF92BF92CF92DF92EF92FF920F9333
:100480001F93CF93DF937C018B016C0182E0C80E38
:10049000D11C4701E5E08E0E911CC0E0D0E0F601D2
:1004A00061916F014AE050E0C80131D15C016EE218
:1004B000C80168D08A0D9B1DC80FD91FC814D90464
:1004C00071F74AE050E0F7016581C80120D18C0F37
:1004D0009D1FDF91CF911F910F91FF90EF90DF90C3
:1004E000CF90BF90AF909F908F900895EBEEF1E08A
:1004F00085E291E0918380831282138214821582B7
:100500000895CF92DF92EF92FF920F931F93CF93B4
:10051000DF936C017A018B01C0E0D0E0CE15DF05DE
:1005200089F0D8016D918D01D601ED91FC9101907A
:10053000F081E02DC6010995892B11F47E0102C0DE
:100540002196ECCFC701DF91CF911F910F91FF90C2
:10055000EF90DF90CF9008956115710579F0FB0160
:1005600001900020E9F73197AF01461B570BDC01E2
:10057000ED91FC910280F381E02D099480E090E000
:100580000895EACFDC01ED91FC910190F081E02D1E
:10059000099467E271E0E0CF8F929F92AF92BF9291
:1005A000CF92DF92EF92FF920F931F93CF93DF933F
:1005B000CDB7DEB7A1970FB6F894DEBF0FBECDBFA3
:1005C0007C01D42EC52EDB0119A2223008F42AE0CA
:1005D0008E010F5D1F4F822E912CA12CB12C6D2D01
:1005E0007C2DCD01A50194010E94CD0FD22EC32EEA
:1005F000DA01015011096A3071058105910510F485
:10060000605D01C0695CF8016083232B242B252BDE
:1006100031F7B801C701A0DFA1960FB6F894DEBF8D
:100620000FBECDBFDF91CF911F910F91FF90EF9043
:10063000DF90CF90BF90AF909F908F900895CF9212
:10064000DF92EF92FF920F931F93CF93DF93EC0112
:100650006A017B012115310579F4E881F981019066
:10066000F081E02D642FDF91CF911F910F91FF90CA
:10067000EF90DF90CF9009942A303105D9F477FFBD
:1006800018C06DE27FDF8C0144275527BA014C1951
:100690005D096E097F092AE0CE017EDF800F911F80
:1006A000DF91CF911F910F91FF90EF90DF90CF904E
:1006B00008952AE0B701A601CE01DF91CF911F91E5
:1006C0000F91FF90EF90DF90CF9066CF0F931F9325
:1006D000CF93DF93EC019A01AB01770F660B770B99
:1006E000AEDF8C01CE0155DF800F911FDF91CF91DE
:1006F0001F910F9108952115310541F4DC01ED9111
:10070000FC910190F081E02D642F099445CF9A016E
:10071000462F50E060E070E0EECF813039F018F005
:10072000823051F0089510926E00089580916F000C
:100730008D7F80936F000895809170008D7F8093EE
:10074000700081E08093B0008091B100887F846068
:100750008093B1001092B3000895CF93C82F809179
:100760000A018C1307C0E8E6F0E0E4918FEF809374
:100770000A0101C0EFEF8E2FD0DF60E08C2FCF9108
:1007800063C11F920F920FB60F9211242F933F93C4
:100790004F935F936F937F938F939F93AF93BF9389
:1007A000EF93FF938091F4019091F501A091F601F0
:1007B000B091F701892B8A2B8B2B51F18091F1019C
:1007C000E091F201F091F30190818927808380917B
:1007D000F4019091F501A091F601B091F70118167E
:1007E00019061A061B06BCF48091F4019091F501DC
:1007F000A091F601B091F7010197A109B109809389
:10080000F4019093F501A093F601B093F70103C0B2
:1008100080910A01A2DFFF91EF91BF91AF919F916B
:100820008F917F916F915F914F913F912F910F9099
:100830000FBE0F901F90189508951F920F920FB63C
:100840000F9211242F933F934F935F936F937F9356
:100850008F939F93AF93BF93EF93FF93E0910B011F
:10086000F0910C010995FF91EF91BF91AF919F918C
:100870008F917F916F915F914F913F912F910F9049
:100880000FBE0F901F9018951F920F920FB60F92E8
:1008900011242F933F934F935F936F937F938F9385
:1008A0009F93AF93BF93EF93FF93E0910D01F0916E
:1008B0000E010995FF91EF91BF91AF919F918F919B
:1008C0007F916F915F914F913F912F910F900FBE4C
:1008D0000F901F901895089553D0FDDF1AD1C0EBEB
:1008E000D0E02FD12097E9F33BDCFBCF1F920F9292
:1008F0000FB60F9211242F933F938F939F93AF9333
:10090000BF938091F9019091FA01A091FB01B09100
:10091000FC013091F80123E0230F2D3720F40196DC
:10092000A11DB11D05C026E8230F0296A11DB11D12
:100930002093F8018093F9019093FA01A093FB01B1
:10094000B093FC018091FD019091FE01A091FF0107
:10095000B09100020196A11DB11D8093FD019093FD
:10096000FE01A093FF01B0930002BF91AF919F9150
:100970008F913F912F910F900FBE0F901F90189560
:10098000789484B5826084BD84B5816084BD85B56A
:10099000826085BD85B5816085BDEEE6F0E0808131
:1009A00081608083E1E8F0E0108280818260808352
:1009B000808181608083E0E8F0E0808181608083D5
:1009C000E1EBF0E0808184608083E0EBF0E0808107
:1009D00081608083EAE7F0E08081846080838081A9
:1009E0008260808380818160808380818068808351
:1009F0001092C1000895833081F028F4813099F07D
:100A00008230A1F008958730A9F08830B9F08430A1
:100A1000D1F4809180008F7D03C0809180008F771A
:100A200080938000089584B58F7702C084B58F7D50
:100A300084BD08958091B0008F7703C08091B0008D
:100A40008F7D8093B00008951F93CF93DF93282F5D
:100A500030E0F901E759FF4F8491F901E358FF4F66
:100A6000D491F901EF56FF4FC491CC23C1F0162F5A
:100A70008111C1DFEC2FF0E0EE0FFF1FEB55FF4FB0
:100A8000A591B4918FB7F894111105C09C91ED2FE9
:100A9000E095E92302C0EC91ED2BEC938FBFDF9141
:100AA000CF911F9108950F93CF93DF93EC01809125
:100AB000010290910202892B41F100E02FEF3FEFFC
:100AC000A90160E070E08091010290910202CFD113
:100AD000813099F766E371E08EE491E052DD4AE0FF
:100AE00050E0BE018EE491E0F1DD20E030E0A901AC
:100AF00060E070E08091010290910202F5D068EE12
:100B000073E080E090E04ED5D8CFDF91CF910F9188
:100B100008950F9326E040E052EC61E070E08EE42F
:100B200091E0B3DB81E076D19093020280930102E1
:100B300000E020E030E0A90160E070E0D5D00F9146
:100B40000895AF92BF92CF92DF92EF92FF920F93F0
:100B5000A12CB12CC12CD12CE12CF12C01E021E0F5
:100B600030E048EC50E06CE371E083E595E0A5D21D
:100B700002E022E030E048EC50E062E471E083E51E
:100B800095E09BD20F91FF90EF90DF90CF90BF90B8
:100B9000AF908BC31F93CF93DF93EC01142F88A1E9
:100BA00081110BC088819981892B09F041C08A810C
:100BB0009B81F5D61B821A823CC0482F50E0111150
:100BC00015C08C819D810E94F50F28A18C819D818B
:100BD000820F911D9D838C832A813B81821793070D
:100BE00038F1888199819D838C8322C08E819F8179
:100BF0000E94F50F88A190E09195819591092E8131
:100C00003F81280F391F3F832E8348815981241744
:100C1000350730F42A813B81820F931F9F838E8397
:100C2000123031F48E8D882319F08E8D81508E8F85
:100C300080E09E8D9F5F9E8FDF91CF911F910895E1
:100C4000FC01CB0140A14423A1F050E02681378173
:100C5000240F351F37832683628173812617370758
:100C600020F02081318137832683668177810C943F
:100C7000F50F08950F931F93CF93DF93EC010FB6F9
:100C8000F8940F928C010D5E1F4F9AA119165CF417
:100C90008B89882341F0C80176D581111DD69AA190
:100CA00091509AA3F2CF8FEF8AA30F900FBE0FB689
:100CB000F8940F928E01085F1F4F99A119165CF4EA
:100CC0008885882341F0C8015ED5811105D699A198
:100CD000915099A3F2CF8FEF89A30F900FBEDF91B0
:100CE000CF911F910F910895AF92BF92CF92DF9253
:100CF000EF92FF920F93CF93DF93CDB7DEB7299793
:100D00000FB6F894DEBF0FBECDBF7C016B012E8302
:100D10003F834887598790E0570188E0A80EB11CAF
:100D20000FB6F8940F92F701268D878D281710F0D3
:100D30000230A9F4402FB601C7012CDFF7019389D7
:100D4000992339F0C70143961ED5813021F4D4D7B9
:100D500002C08111FCCF0F900FBE81E04BC04E81CD
:100D60005F8168857985452B462B472B19F40F90B9
:100D70000FBE3FC0911103C0CE01019641D50F9027
:100D80000FBED2D20FB6F8940F92F70181A18F3F18
:100D900009F411A2F70182A18F3F09F412A20F906A
:100DA0000FBEBE016A5F7F4FCE0101963AD5811119
:100DB0001DC00FB6F8940F92F701968D0F900FBEDD
:100DC000878D98130FC04E815F8168857985C50135
:100DD000A0D4C7014FDF7BD3882311F091E0A0CFCF
:100DE0008BD7FCCFC70146DF72D3F8CFC70142DFF4
:100DF0006ED380E029960FB6F894DEBF0FBECDBF4C
:100E0000DF91CF910F91FF90EF90DF90CF90BF9047
:100E1000AF9008950F93CF93DF9383E290E00BD6CA
:100E2000EC01892BF9F01B821A82198218821D822B
:100E30001C821F821E821E8E81E08F8F18A28FEF70
:100E400089A38AA3CE0108960E94300FCE01439653
:100E50000E94300F00E020E030E0A90160E070E087
:100E6000CE0142DFCE01DF91CF910F910895AF9275
:100E7000BF92CF92DF92EF92FF920F93CF93DF93C7
:100E8000CDB7DEB729970FB6F894DEBF0FBECDBF42
:100E90007C016B012E833F834887598790E057017F
:100EA00083E1A80EB11C0FB6F8940F92F701868D5E
:100EB000882361F1A680B780B601C701C1DEF701C2
:100EC000011116C0868D8150868F80819181892B7A
:100ED00021F49FD5F70193838283F70180858823CE
:100EE00089F0C70108964FD4813061F405D70AC054
:100EF000B782A6828389882329F0C701439643D409
:100F00008111F4CF0F900FBE81E056C04E815F81FA
:100F100068857985452B462B472B19F40F900FBE1A
:100F20004AC0911103C0CE0101966AD40F900FBE42
:100F3000FBD10FB6F8940F92F70181A18F3F09F40E
:100F400011A2F70182A18F3F09F412A20F900FBEE8
:100F5000BE016A5F7F4FCE01019663D4811128C024
:100F60000FB6F8940F92F701868D0F900FBE811186
:100F70001BC080819181892B41F40FB6F8940F92A8
:100F800082819381ADD40F900FBE4E815F816885C1
:100F90007985C501BED3C7016DDE99D2882311F0D2
:100FA00091E081CFA9D6FCCFC70164DE90D2F8CF03
:100FB000C70160DE8CD280E029960FB6F894DEBFC0
:100FC0000FBECDBFDF91CF910F91FF90EF90DF90DB
:100FD000CF90BF90AF900895E0913702F091380222
:100FE0008081811104C08FEF9FEFDC010EC0E09182
:100FF0003702F09138020780F085E02D0084F185FA
:10100000E02D82819381A481B58180930402909325
:101010000502A0930602B09307020895CF92DF92D3
:10102000EF92FF92E091BD02F091BE026283738362
:1010300084839583C0900E02D0900F02E09010023E
:10104000F09011026C157D058E059F0578F4609176
:10105000BD027091BE0280913502909136026E5FA2
:101060007F4FFF90EF90DF90CF9030C76B017C01F6
:101070006091BD027091BE0280913702909138025A
:101080006E5F7F4F23D78091040290910502A0915B
:101090000602B0910702C816D906EA06FB0640F41C
:1010A000C0920402D0920502E0920602F09207027A
:1010B000FF90EF90DF90CF9008955F926F927F92B4
:1010C0008F929F92AF92BF92CF92DF92EF92FF9258
:1010D0000F931F93CF93DF934C01162F572E5A0176
:1010E0003901C114D10431F4CA01A5D46C01892B92
:1010F00009F4CAC08CE290E09ED4EC01009779F02C
:10110000DC8ECB8E21E0A21AB108AC0CBD1CBC0158
:10111000635E7F4FE12FF52DCF01089606C0C60113
:101120001AD5B2C0E817F90749F09F014191DB01D8
:101130004D93BD01D9012C912111F4CF1CA2102F88
:101140000A3008F019E01A8F1DA31EA26E01B2E04A
:10115000CB0ED11CC60195D6CE010E9692D6DB875A
:10116000CA878AE090E0A0E0B0E0811B9109A10964
:10117000B1098E879F87A88BB98BDF8BCE8B1FA27F
:1011800018A619A61AA61BA6A301B401C5010DD560
:1011900099838883E114F10419F0F701D183C083A6
:1011A0000FB6F8940F92809112028F5F8093120213
:1011B0008091BD029091BE02892B99F5D093BE0219
:1011C000C093BD0280911202813009F039C08FE4D2
:1011D000E82E82E0F82EC70143D6FBE0EF0EF11CAB
:1011E0002DEBE21622E0F206B1F784E492E038D665
:1011F00089E392E035D68AE292E032D68FE192E03E
:101200002FD683E192E02CD684E492E090933802CA
:101210008093370289E392E09093360280933502FF
:101220000FC080910C0281110BC0E091BD02F091C2
:10123000BE02828D081720F0D093BE02C093BD027B
:10124000809108028F5F809308028A8D90910D0231
:10125000981710F480930D02ABE08A9FC00111240F
:10126000B601815B9D4F11D60F900FBE80910C028D
:10127000882341F0E091BD02F091BE02828D80177B
:1012800008F43AD581E001C08FEFDF91CF911F9133
:101290000F91FF90EF90DF90CF90BF90AF909F9015
:1012A0008F907F906F905F900895AF92BF92CF9292
:1012B000DF92EF92FF920F93A12CB12CC12CD12C75
:1012C000E12CF12C00E020E030E045E550E068E45E
:1012D00071E08FE09BE0F1DE8130F1F4F8944FEFA4
:1012E0005FEFBA0140930402509305026093060237
:1012F0007093070280930C0210920E0210920F025C
:1013000010921002109211020F91FF90EF90DF9057
:10131000CF90BF90AF90B5C40F91FF90EF90DF904A
:10132000CF90BF90AF900895809103028F5F80931C
:10133000030208958F929F92AF92BF92EF92FF9215
:101340000F931F93CF93DF93809103028111A9C064
:1013500080910E0290910F02A0911002B0911102A3
:101360000196A11DB11D80930E0290930F02A093D0
:101370001002B093110280900E0290900F02A09084
:101380001002B090110281149104A104B104B1F4CF
:1013900080913702909138022091350230913602C7
:1013A00030933802209337029093360280933502AF
:1013B000809109028F5F809309020EDE8091040202
:1013C00090910502A0910602B0910702C0E0881634
:1013D0009906AA06BB0608F454C0DBE0E091370288
:1013E000F09138028081811104C08FEF9FEFDC0102
:1013F00013C0E0913702F09138020780F085E02DAC
:1014000000851185F80182819381A481B5818816B8
:101410009906AA06BB0648F480930402909305023D
:10142000A0930602B09307022CC07801F2E0EF0E01
:10143000F11CC7018FD5D80158968D919C91599771
:10144000892B19F0C8010E9685D5F801928D8091EF
:101450000D02891710F490930D02D99FC001112439
:10146000B701815B9D4F11D5E091BD02F091BE02A5
:10147000D8015A969C91828D981708F4AFCFC1E09D
:10148000ADCFE091BD02F091BE02E28DBBE0EB9FDB
:10149000F0011124E15BFD4F8081823040F0C1E01A
:1014A00006C080910B028F5F80930B02C0E0809199
:1014B0000A028111C1E08C2FDF91CF911F910F9112
:1014C000FF90EF90BF90AF909F908F900895EF9214
:1014D000FF920F931F93CF93DF930FB6F8940F9261
:1014E000809103028150809303028091030288233C
:1014F00011F080E04EC0809112028823D1F38BE07E
:10150000F82EEE24E39480912A02882339F1E091A9
:101510003102F0913202C085D185CE010E961AD5E6
:101520008E010E5F1F4FC80115D59A8D80910D0257
:10153000891710F490930D02F99EC0011124B8018F
:10154000815B9D4FA2D4E091BD02F091BE029A8DC5
:10155000828D9817C0F2E0920A02D5CF80910B02DB
:10156000811108C080910A02813009F0C2CFC4D332
:1015700081E00FC0C1E080910B02882399F3DADE8D
:101580008111C0930A0280910B02815080930B025B
:10159000F2CF0F900FBEDF91CF911F910F91FF906F
:1015A000EF900895CF92DF92EF92FF92CF93DF9367
:1015B00000D000D0CDB7DEB761157105810591056A
:1015C00011F49AD321C069837A838B839C83ACDE28
:1015D000C0900E02D0900F02E0901002F090110225
:1015E00069817A818B819C81C60ED71EE81EF91E07
:1015F0008091BD029091BE020296ACD4C701B601A3
:101600000DDD65DF8823E9F20F900F900F900F90AA
:10161000DF91CF91FF90EF90DF90CF900895809170
:101620001E02882321F180DEC0911F0250DFCC23EF
:10163000B1F30FB6F8940F92E0912602F0912702D1
:10164000C085D185CE01029685D480911202815049
:101650008093120280911E02815080931E020F908F
:101660000FBE8B8D9C8D77D2CE0175D2D8CF809155
:101670004F028230A0F240D3D2CF80910302882360
:1016800021F081E080930A02089510920A029BE003
:10169000E0910D029E9FF0011124E15BFD4F8081DE
:1016A000811106C080910D02815080930D02F0CF10
:1016B00080910D0290E04BE0489F9001499F300DD2
:1016C0001124F901E15BFD4FA181B28114960D90C7
:1016D000BC91A02DB283A1832E5A3D4FA217B30710
:1016E00031F414962D913C911597328321832BE090
:1016F000289FF001299FF00D1124E15BFD4F01802F
:10170000F281E02D808591859093BE028093BD0289
:101710000895CF92DF92EF92FF926A017B012091B0
:10172000BD023091BE02B901625F7F4FCFD380917D
:10173000BD029091BE0202960DD48FEFC816D80656
:10174000E806F80669F46091BD027091BE026E5F12
:101750007F4F83E192E0FF90EF90DF90CF9095C3B1
:1017600080910E0290910F02A0911002B09111028F
:10177000BC01CD016C0D7D1D8E1D9F1DFF90EF9056
:10178000DF90CF904BCC0F931F93CF93DF93DC016F
:101790001796ED91FC911897C085D1858E01025F57
:1017A0001F4FC801D7D380910302811113C00C5081
:1017B0001109C801CFD39A8D80910D02891710F4B9
:1017C00090930D02BBE09B9FC0011124B801815B87
:1017D0009D4F03C0B8018AE292E057D3E091BD0269
:1017E000F091BE029A8D828D891720F481E080935A
:1017F0000A0201C080E0DF91CF911F910F910895FF
:1018000020910902FC01208340910E0250910F02A9
:10181000609110027091110241835283638374833B
:1018200008958F929F92AF92BF92CF92DF92EF92E4
:10183000FF920F931F93CF93DF93FB010FB6F894A2
:101840000F92C0900E02D0900F02E0901002F09024
:10185000110240815181628173814F3F2FEF520706
:101860006207720739F1B0910902EC01A881098180
:101870001A812B813C81BA1729F0C016D106E206E5
:10188000F306D0F446015701801A910AA20AB30A5E
:1018900084169506A606B70678F40C191D092E09BC
:1018A0003F09400F511F621F731F408351836283A2
:1018B0007383A6DF80E001C081E00F900FBEDF914F
:1018C000CF911F910F91FF90EF90DF90CF90BF903D
:1018D000AF909F908F90089581E080930A020895C1
:1018E0000F931F93CF93DF93FC01892B09F452C010
:1018F000828DA091BD02B091BE025A969C9189172B
:1019000008F048C0468557856089718977FD12C007
:10191000A091BD02B091BE025A969C914AE050E05F
:1019200060E070E0491B51096109710946875787DA
:10193000608B718B2BE0829FC0011124815B9D4FD6
:101940002485358528173907F1F48F01EF01229698
:10195000CE0100D3E091BD02F091BE02928DF8015C
:10196000928F80910D02891710F490930D02FBE085
:101970009F9FC0011124BE01815B9D4FDF91CF91DC
:101980001F910F9182C2A091BD02B091BE025A96E2
:101990008C91828FDF91CF911F910F9108950F93BA
:1019A0001F93CF93DF93FC01892B11F480E02CC0AF
:1019B00086A1815086A3228D95A12917B9F38111A3
:1019C000F5CFEF018F010E5F1F4FC801C3D29DA15C
:1019D0009A8F4AE050E060E070E0491B51096109CC
:1019E00071094E875F87688B798B80910D0289170B
:1019F00010F490930D022BE0929FC0011124B801C6
:101A0000815B9D4F42D281E0DF91CF911F910F9179
:101A100008958091BD029091BE02892B39F0E0912A
:101A2000BD02F091BE0286A18F5F86A38091BD02A8
:101A30009091BE0208950F931F93CF93DF93EC0113
:101A400073DC8091BF02811121C089EC92E09093F8
:101A5000C5028093C4021092C7021092C6028BED99
:101A600095E09093C3028093C2021092C10210923B
:101A7000C0029093CC028093CB0280EC92E09093D2
:101A8000CA028093C90281E08093BF02209709F0C7
:101A90002496CE0101978A3D954008F053C0E0910D
:101AA000C402F091C502A4ECB2E0828193818C174C
:101AB0009D0728F022E0E03CF20749F443C0208172
:101AC000318121153105B1F3DF01F901EECF0D911F
:101AD0001C9111970C5F1F4F208131812D933C93F6
:101AE0008C1B9D0B8930910500F1DF01AC0FBD1FF0
:101AF00013969C938E931297D383C28312962D9143
:101B00003C91139764EC72E0EB0188819981EC01C0
:101B10004A815B814217530710F4BC01F5CF11963F
:101B20009C938E93EB01B983A88380910F019091D0
:101B3000100122813381821B930B909310018093BB
:101B40000F0102C000E010E0C2DCC801DF91CF91BC
:101B50001F910F910895CF93DF93009719F1EC0136
:101B60002497E2DB8A819B81E4ECF2E0A081B181E1
:101B700012962D913C9113972817390710F4FD0107
:101B8000F5CFB983A883D183C08320910F01309111
:101B90001001820F931F9093100180930F01DF912A
:101BA000CF9195CCDF91CF91089531E1FC01308345
:101BB000319722E220833197A3E3A083319760839A
:101BC0003197708331971082319760E86083319745
:101BD0001082319762E06083319763E060833197D0
:101BE00064E06083319765E06083319766E06083ED
:101BF000319767E06083319768E06083319769E0EF
:101C00006083319760E1608331973083319732E1AF
:101C10003083319733E13083319734E1308331972A
:101C200035E13083319736E13083319737E13083C6
:101C3000319738E13083319739E13083319730E2A1
:101C40003083319731E2308331972083319723E21B
:101C500020833197408331975083319726E2208348
:101C6000319727E22083319728E22083319729E2B8
:101C70002083319720E32083319721E320838697C7
:101C8000089589E08093890083EC809388008BE03D
:101C900080938100EFE6F0E0808182608083A091F4
:101CA000BD02B091BE02CD91CDBFDD91DEBFFF91EF
:101CB000EF91DF91CF91BF91AF919F918F917F91E4
:101CC0006F915F914F913F912F911F910F91FF90D5
:101CD000EF90DF90CF90BF90AF909F908F907F90CC
:101CE0006F905F904F903F902F901F900F900FBE7E
:101CF0000F90089581E008950F920FB6F8940F9217
:101D00001F9211242F923F924F925F926F927F9277
:101D10008F929F92AF92BF92CF92DF92EF92FF92FB
:101D20000F931F932F933F934F935F936F937F93E3
:101D30008F939F93AF93BF93CF93DF93EF93FF93D3
:101D4000A091BD02B091BE020DB60D920EB60D92DD
:101D500094DCA091BD02B091BE02CD91CDBFDD91CA
:101D6000DEBFFF91EF91DF91CF91BF91AF919F9136
:101D70008F917F916F915F914F913F912F911F9123
:101D80000F91FF90EF90DF90CF90BF90AF909F901A
:101D90008F907F906F905F904F903F902F901F900B
:101DA0000F900FBE0F9008950F920FB6F8940F92F8
:101DB0001F9211242F923F924F925F926F927F92C7
:101DC0008F929F92AF92BF92CF92DF92EF92FF924B
:101DD0000F931F932F933F934F935F936F937F9333
:101DE0008F939F93AF93BF93CF93DF93EF93FF9323
:101DF000A091BD02B091BE020DB60D920EB60D922D
:101E000099DA81113ADCA091BD02B091BE02CD9168
:101E1000CDBFDD91DEBFFF91EF91DF91CF91BF91FB
:101E2000AF919F918F917F916F915F914F913F9172
:101E30002F911F910F91FF90EF90DF90CF90BF9067
:101E4000AF909F908F907F906F905F904F903F905A
:101E50002F901F900F900FBE0F900895A5DF18953B
:101E6000FC010396928381834FEF5FEFBA014383B6
:101E700054836583768390878783928781871082D6
:101E80000895FC01138612860895CF93DF939C0179
:101E9000FB01DC011196CD91DC911297D583C483AF
:101EA0008E819F81978386838E819F81DC01159629
:101EB0007C936E9314977F836E8333872287F90117
:101EC00080818F5F8083DF91CF910895EF92FF92A1
:101ED0000F931F93CF93DF937C01FB0140815181CE
:101EE000628173814F3F8FEF58076807780721F4AD
:101EF000E701A985BA8512C0D701139614968D9172
:101F00009C911597EC01088119812A813B8140172A
:101F100051076207730710F0DC01F0CF14968D9122
:101F20009C91159795838483EC01FF83EE83B7839F
:101F3000A6831596FC93EE931497F386E286F70139
:101F400080818F5F8083DF91CF911F910F91FF90F0
:101F5000EF900895CF93DF93FC01A285B385848130
:101F6000958126813781EC013F832E83C681D781FD
:101F70009D838C8311968D919C9112978E179F074C
:101F800021F41296DC93CE931197138612868C91CE
:101F900081508C93DF91CF910895A1E21A2EAA1B54
:101FA000BB1BFD010DC0AA1FBB1FEE1FFF1FA21709
:101FB000B307E407F50720F0A21BB30BE40BF50B06
:101FC000661F771F881F991F1A9469F7609570958F
:101FD000809590959B01AC01BD01CF010895EE0F56
:101FE000FF1F0590F491E02D0994FB01DC0102C074
:101FF00001900D9241505040D8F70895F894FFCFCA
:102000000000A408800001000000FF1C041C04DB89
:102010000500000000FF00810282009C008E00DEAF
:10202000000000000037020D0A006E616E00696E4C
:1020300066006F7666005461736B20005461736BA9
:0E20400031005461736B320049444C4500007E
:00000001FF
