:100000005EC00000BFC30000E4C300007FC000006A
:100010007DC000007BC0000079C0000057C3000015
:1000200075C0000073C0000071C000000C9419106E
:100030006DC000006BC0000069C0000067C0000018
:10004000FAC3000063C000008AC10000BAC100000A
:100050005DC000005BC0000059C0000057C0000038
:1000600055C0000053C0000002000000080002015B
:10007000000003040700000000000000000102046B
:10008000081020408001020408102001020408101A
:100090002004040404040404040202020202020311
:1000A000030303030300000000250028002B0000C9
:1000B000000000240027002A00000F027B02112408
:1000C0001FBECFEFD8E0DEBFCDBF11E0A0E0B1E0B2
:1000D000E6EDF1E202C005900D92AE33B107D9F71B
:1000E00028E0AEE3B1E001C01D92A439B207E1F708
:1000F00010E0CFE5D0E004C02197FE010E94DA10A5
:10010000CD35D107C9F78DD30C94E91079CFFC0117
:10011000918D228D892F90E0805C9F4F821B9109E9
:100120008F7399270895FC01918D828D981731F076
:10013000828DE80FF11D858D90E008958FEF9FEF80
:100140000895FC01918D828D981761F0828DDF01F9
:10015000A80FB11D5D968C91928D9F5F9F73928FBA
:1001600090E008958FEF9FEF089586E092E0892B4D
:1001700041F080E090E0892B21F048D181110C946E
:1001800000000895FC01848DDF01A80FB11DA35A62
:10019000BF4F2C91848D90E001968F739927848FA7
:1001A000A689B7892C93A089B1898C9180648C939E
:1001B000938D848D981306C00288F389E02D808189
:1001C0008F7D80830895CF93DF93EC01888D882302
:1001D000C1F0EA89FB89808185FD05C0A889B989BC
:1001E0008C9186FD0EC00FB607FCF5CF808185FF90
:1001F000F2CFA889B9898C9185FFEDCFCE01C2DFFE
:10020000E8CFDF91CF910895EF92FF920F931F9364
:10021000CF93DF93EC0181E0888F9B8D8C8D9813B9
:1002200005C0E889F989808185FD23C0F62E0B8DF4
:1002300010E00F5F1F4F0F731127E02E8C8DE81217
:100240000BC00FB607FCFACFE889F989808185FFDA
:10025000F5CFCE0197DFF2CF8B8DFE01E80FF11DB8
:10026000E35AFF4FF0820B8FEA89FB89808180621D
:1002700007C0EE89FF896083E889F98980818064FD
:10028000808381E090E0DF91CF911F910F91FF90EB
:10029000EF900895CF92DF92EF92FF921F93CF934A
:1002A000DF93EC016A017B01122FE889F98982E072
:1002B00080834115514E61057105B1F060E079E030
:1002C0008DE390E0A70196010E94B810DA01C90100
:1002D0000197A109B109B695A79597958795AC01A6
:1002E000411580E15807A8F0E889F989108260E893
:1002F00074E88EE190E0A70196010E94B810BA015F
:10030000A901415051096109710976956795579581
:100310004795EC85FD855083EE85FF854083188EDB
:10032000EC89FD891083EA89FB8980818061808363
:10033000EA89FB89808188608083EA89FB898081E2
:1003400080688083EA89FB8980818F7D8083DF914B
:10035000CF911F91FF90EF90DF90CF9008951F9263
:100360000F920FB60F9211242F938F939F93EF93B9
:10037000FF93E0914E01F0914F018081E091540193
:10038000F091550182FD12C09081809157018F5FDD
:100390008F7320915801821751F0E0915701F0E0DE
:1003A000E25CFE4F958F8093570101C08081FF91E1
:1003B000EF919F918F912F910F900FBE0F901F90F3
:1003C00018951F920F920FB60F9211242F933F93FF
:1003D0004F935F936F937F938F939F93AF93BF934D
:1003E000EF93FF938EE391E0CDDEFF91EF91BF910C
:1003F000AF919F918F917F916F915F914F913F91BD
:100400002F910F900FBE0F901F9018958EE391E0E3
:100410007EDE21E0892B09F420E0822F0895EEE3AF
:10042000F1E01382128288EE93E0A0E0B0E08483D2
:100430009583A683B78385E191E09183808385ECE2
:1004400090E09587848784EC90E09787868780EC9E
:1004500090E0918B808B81EC90E0938B828B82EC8F
:1004600090E0958B848B86EC90E0978B868B118E39
:10047000128E138E148E08958F929F92AF92BF9218
:10048000CF92DF92EF92FF920F931F93CF93DF9360
:100490007C018B016C0182E0C80ED11C4701E5E0B4
:1004A0008E0E911CC0E0D0E0F60161916F014AE030
:1004B00050E0C801D1D05C016EE2C80167D08A0D5E
:1004C0009B1DC80FD91FC814D90471F74AE050E02A
:1004D000F7016581C801C0D08C0F9D1FDF91CF91BE
:1004E0001F910F91FF90EF90DF90CF90BF90AF9052
:1004F0009F908F900895EBEDF1E085E291E091837C
:10050000808312821382148215820895CF92DF9223
:10051000EF92FF920F931F93CF93DF936C017A01B9
:100520008B01C0E0D0E0CE15DF0589F0D8016D91D8
:100530008D01D601ED91FC910190F081E02DC60175
:100540000995892B11F47E0102C02196ECCFC701D9
:10055000DF91CF911F910F91FF90EF90DF90CF909F
:1005600008956115710579F0FB0101900020E9F70C
:100570003197AF01461B570BDC01ED91FC910280D6
:10058000F381E02D099480E090E00895DC01ED9185
:10059000FC910190F081E02D09948F929F92AF928F
:1005A000BF92CF92DF92EF92FF920F931F93CF9360
:1005B000DF93CDB7DEB7A1970FB6F894DEBF0FBEBD
:1005C000CDBF7C01D42EC52EDB0119A2223008F448
:1005D0002AE08E010F5D1F4F822E912CA12CB12C91
:1005E0006D2D7C2DCD01A50194010E94B810D22E55
:1005F000C32EDA01015011096A3071058105910598
:1006000010F4605D01C0695CF8016083232B242B2A
:10061000252B31F7B801C701A4DFA1960FB6F894D6
:10062000DEBF0FBECDBFDF91CF911F910F91FF9025
:10063000EF90DF90CF90BF90AF909F908F900895F4
:100640002115310541F4DC01ED91FC910190F0811F
:10065000E02D642F0994A1CF9A01462F50E060E06D
:1006600070E0EECF813039F018F0823051F008950B
:1006700010926E00089580916F008D7F80936F00BF
:100680000895809170008D7F8093700081E0809349
:10069000B0008091B100887F84608093B100109297
:1006A000B3000895CF93C82F80910A018C1307C01F
:1006B000E8E6F0E0E4918FEF80930A0101C0EFEFEC
:1006C0008E2FD0DF60E08C2FCF91AAC11F920F92A6
:1006D0000FB60F9211242F933F934F935F936F9315
:1006E0007F938F939F93AF93BF93EF93FF938091EB
:1006F000E4019091E501A091E601B091E701892B19
:100700008A2B8B2B51F18091E101E091E201F09174
:10071000E3019081892780838091E4019091E50134
:10072000A091E601B091E701181619061A061B06FA
:10073000BCF48091E4019091E501A091E601B091B3
:10074000E7010197A109B1098093E4019093E501C4
:10075000A093E601B093E70103C080910A01A2DFF4
:10076000FF91EF91BF91AF919F918F917F916F9189
:100770005F914F913F912F910F900FBE0F901F905F
:10078000189508951F920F920FB60F9211242F9370
:100790003F934F935F936F937F938F939F93AF9309
:1007A000BF93EF93FF93E0910B01F0910C0109953A
:1007B000FF91EF91BF91AF919F918F917F916F9139
:1007C0005F914F913F912F910F900FBE0F901F900F
:1007D00018951F920F920FB60F9211242F933F93EB
:1007E0004F935F936F937F938F939F93AF93BF9339
:1007F000EF93FF93E0910D01F0910E010995FF91A8
:10080000EF91BF91AF919F918F917F916F915F9188
:100810004F913F912F910F900FBE0F901F90189501
:1008200008955ED0FDDF2BD1C5EBD0E003D2209739
:10083000E9F39BDCFBCF1F920F920FB60F921124AE
:100840002F933F938F939F93AF93BF938091E90131
:100850009091EA01A091EB01B091EC013091E80197
:1008600023E0230F2D3720F40196A11DB11D05C0F3
:1008700026E8230F0296A11DB11D2093E801809365
:10088000E9019093EA01A093EB01B093EC01809110
:10089000ED019091EE01A091EF01B091F001019670
:1008A000A11DB11D8093ED019093EE01A093EF0186
:1008B000B093F001BF91AF919F918F913F912F9194
:1008C0000F900FBE0F901F9018958230910538F051
:1008D000880F991F880F991F05970197F1F70895C1
:1008E000789484B5826084BD84B5816084BD85B50B
:1008F000826085BD85B5816085BDEEE6F0E08081D2
:1009000081608083E1E8F0E01082808182608083F2
:10091000808181608083E0E8F0E080818160808375
:10092000E1EBF0E0808184608083E0EBF0E08081A7
:1009300081608083EAE7F0E0808184608083808149
:1009400082608083808181608083808180688083F1
:100950001092C1000895833081F028F4813099F01D
:100960008230A1F008958730A9F08830B9F0843042
:10097000D1F4809180008F7D03C0809180008F77BB
:1009800080938000089584B58F7702C084B58F7DF1
:1009900084BD08958091B0008F7703C08091B0002E
:1009A0008F7D8093B0000895CF93DF9390E0FC019A
:1009B000E358FF4F2491FC01EF56FF4F84918823A9
:1009C00061F190E0880F991FFC01E155FF4FC5913F
:1009D000D491FC01EB55FF4FA591B491611109C071
:1009E0009FB7F8948881209582238883EC912E23E9
:1009F0000BC0623061F49FB7F8943881822F8095E4
:100A000083238883EC912E2B2C939FBF06C08FB736
:100A1000F894E8812E2B28838FBFDF91CF91089522
:100A20001F93CF93DF93282F30E0F901E759FF4F51
:100A30008491F901E358FF4FD491F901EF56FF4F2C
:100A4000C491CC23C1F0162F811185DFEC2FF0E08B
:100A5000EE0FFF1FEB55FF4FA591B4918FB7F894A0
:100A6000111105C09C91ED2FE095E92302C0EC9196
:100A7000ED2BEC938FBFDF91CF911F9108950F93D2
:100A800026E040E052EC61E070E08EE391E002DCB1
:100A900061E086E089DF61E087E086DF61E088E091
:100AA00083DF61E089E080DF43E060E081E0D8D16E
:100AB0009093F2018093F10100E020E030E0A90181
:100AC00060E070E0FFD10F9108950F931F93CF93D3
:100AD000DF938C01C0E0D0E0C017D1072CF488EE82
:100AE00093E0F3DE2196F8CFDF91CF911F910F9124
:100AF0000895CF93DF9300D000D0CDB7DEB7198231
:100B00001A821B821C8200E02FEF3FEFA90160E0F8
:100B100070E08091F1019091F2016AD261E089E088
:100B20007FDF0EE110E061E086E07ADF82E390E0B3
:100B3000CCDF60E086E074DF82E390E0C6DF015046
:100B4000110989F760E089E06BDF00E020E030E028
:100B5000A90160E070E08091F1019091F201B2D1C1
:100B600040E157E260E070E0CE010196DCD5CBCFEA
:100B7000CF93DF9300D000D0CDB7DEB719821A82B1
:100B80001B821C8208E210E061E087E049DF82E31B
:100B900090E09BDF60E087E043DF82E390E095DF59
:100BA0000150110989F748E95AE360E070E0CE018D
:100BB0000196B9D5E7CFCF93DF9300D000D0CDB762
:100BC000DEB719821A821B821C8200E02FEF3FEFF2
:100BD000A90160E070E08091F1019091F20108D2EA
:100BE00061E089E01DDF04E610E061E088E018DFE5
:100BF00082E390E06ADF60E088E012DF82E390E069
:100C000064DF0150110989F760E089E009DF00E045
:100C100020E030E0A90160E070E08091F101909166
:100C2000F20150D148EB58E860E070E0CE01019647
:100C30007AD5CBCFAF92BF92CF92DF92EF92FF9255
:100C40000F93A12CB12CC12CD12CE12CF12C03E061
:100C500020E030E048EC50E067E271E089E795E0A1
:100C6000EDD202E020E030E048EC50E06DE271E0CF
:100C700088EB95E0E3D201E020E030E048EC50E082
:100C800063E371E08BED95E0D9D20F91FF90EF9087
:100C9000DF90CF90BF90AF90C9C31F93CF93DF93E6
:100CA000EC01142F88A181110BC088819981892BB7
:100CB00009F041C08A819B815DD71B821A823CC0AA
:100CC000482F50E0111115C08C819D810E94E010C9
:100CD00028A18C819D81820F911D9D838C832A8107
:100CE0003B818217930738F1888199819D838C839A
:100CF00022C08E819F810E94E01088A190E0919592
:100D0000819591092E813F81280F391F3F832E83C2
:100D1000488159812417350730F42A813B81820F9D
:100D2000931F9F838E83123031F48E8D882319F0A8
:100D30008E8D81508E8F80E09E8D9F5F9E8FDF9184
:100D4000CF911F910895FC01CB0140A14423A1F054
:100D500050E026813781240F351F37832683628137
:100D600073812617370720F020813181378326834E
:100D7000668177810C94E01008950F931F93CF93B1
:100D8000DF93EC010FB6F8940F928C010D5E1F4FAC
:100D90009AA119165CF48B89882341F0C801DED52D
:100DA000811185D69AA191509AA3F2CF8FEF8AA391
:100DB0000F900FBE0FB6F8940F928E01085F1F4F71
:100DC00099A119165CF48885882341F0C801C6D51D
:100DD00081116DD699A1915099A3F2CF8FEF89A37C
:100DE0000F900FBEDF91CF911F910F910895CF9378
:100DF000DF93EC010FB6F8940F92288139819F8D13
:100E000048A1949FC0011124F901E80FF91FFB8349
:100E1000EA831E8E3D832C83841B9109820F931FCE
:100E20009F838E838FEF89A38AA361110BC088856E
:100E3000882381F0CE01089691D5813059F40E9423
:100E4000670F08C0CE0108960E941B10CE01439682
:100E50000E941B100F900FBE81E0DF91CF9108958B
:100E6000EF92FF921F93CF93DF931F92CDB7DEB720
:100E7000182F662331F0869F90011124C901019635
:100E800002C080E090E083966983C0D67C016981CE
:100E9000009781F0611104C0FC019183808304C03C
:100EA0008396F70191838083F701178F60A361E038
:100EB000C7019DDFC7010F90DF91CF911F91FF9078
:100EC000EF900895AF92BF92CF92DF92EF92FF9290
:100ED0000F93CF93DF93CDB7DEB729970FB6F89472
:100EE000DEBF0FBECDBF7C016B012E833F834887E1
:100EF000598790E0570188E0A80EB11C0FB6F8940E
:100F00000F92F701268D878D281710F00230A9F473
:100F1000402FB601C701C1DEF7019389992339F04B
:100F2000C70143961BD5813021F4D1D702C081116E
:100F3000FCCF0F900FBE81E04BC04E815F81688572
:100F40007985452B462B472B19F40F900FBE3FC0D8
:100F5000911103C0CE0101963ED50F900FBEA5D2D0
:100F60000FB6F8940F92F70181A18F3F09F411A2F7
:100F7000F70182A18F3F09F412A20F900FBEBE01AC
:100F80006A5F7F4FCE01019637D581111DC00FB624
:100F9000F8940F92F701968D0F900FBE878D9813DE
:100FA0000FC04E815F8168857985C5019DD4C701D9
:100FB000E4DE4ED3882311F091E0A0CF88D7FCCF98
:100FC000C701DBDE45D3F8CFC701D7DE41D380E0D0
:100FD00029960FB6F894DEBF0FBECDBFDF91CF913B
:100FE0000F91FF90EF90DF90CF90BF90AF9008955A
:100FF000AF92BF92CF92DF92EF92FF920F93CF9377
:10100000DF93CDB7DEB729970FB6F894DEBF0FBEDA
:10101000CDBF7C016B012E833F834887598790E0C9
:10102000570183E1A80EB11C0FB6F8940F92F70197
:10103000868D882361F1A680B780B601C70183DE63
:10104000F701011116C0868D8150868F80819181B4
:10105000892B21F4C9D5F70193838283F701808519
:10106000882389F0C701089679D4813061F42FD79D
:101070000AC0B782A6828389882329F0C7014396D4
:101080006DD48111F4CF0F900FBE81E056C04E8118
:101090005F8168857985452B462B472B19F40F9086
:1010A0000FBE4AC0911103C0CE01019694D40F9097
:1010B0000FBEFBD10FB6F8940F92F70181A18F3FBD
:1010C00009F411A2F70182A18F3F09F412A20F9037
:1010D0000FBEBE016A5F7F4FCE0101968DD4811194
:1010E00028C00FB6F8940F92F701868D0F900FBEAF
:1010F00081111BC080819181892B41F40FB6F89436
:101100000F9282819381D7D40F900FBE4E815F8161
:1011100068857985C501E8D3C7012FDE99D2882378
:1011200011F091E081CFD3D6FCCFC70126DE90D25B
:10113000F8CFC70122DE8CD280E029960FB6F89452
:10114000DEBF0FBECDBFDF91CF910F91FF90EF902B
:10115000DF90CF90BF90AF900895E0912702F0917B
:1011600028028081811104C08FEF9FEFDC010EC047
:10117000E0912702F09128020780F085E02D00849D
:10118000F185E02D82819381A481B5818093F40162
:101190009093F501A093F601B093F7010895CF92D3
:1011A000DF92EF92FF92E091AD02F091AE02628386
:1011B000738384839583C090FE01D090FF01E090FB
:1011C0000002F09001026C157D058E059F0578F4F4
:1011D0006091AD027091AE0280912502909126023D
:1011E0006E5F7F4FFF90EF90DF90CF905AC76B01FB
:1011F0007C016091AD027091AE02809127029091C6
:1012000028026E5F7F4F4DD78091F4019091F501D8
:10121000A091F601B091F701C816D906EA06FB06BF
:1012200040F4C092F401D092F501E092F601F09200
:10123000F701FF90EF90DF90CF9008955F926F924B
:101240007F928F929F92AF92BF92CF92DF92EF9256
:10125000FF920F931F93CF93DF934C01162F572EBE
:101260005A013901C114D10431F4CA01CFD46C013F
:10127000892B09F4CAC08CE290E0C8D4EC01009735
:1012800079F0DC8ECB8E21E0A21AB108AC0CBD1C2B
:10129000BC01635E7F4FE12FF52DCF01089606C09C
:1012A000C60144D5B2C0E817F90749F09F01419142
:1012B000DB014D93BD01D9012C912111F4CF1CA26A
:1012C000102F0A3008F019E01A8F1DA31EA26E011C
:1012D000B2E0CB0ED11CC601BFD6CE010E96BCD655
:1012E000DB87CA878AE090E0A0E0B0E0811B91092B
:1012F000A109B1098E879F87A88BB98BDF8BCE8B15
:101300001FA218A619A61AA61BA6A301B401C501FF
:1013100037D599838883E114F10419F0F701D1835B
:10132000C0830FB6F8940F92809102028F5F809372
:1013300002028091AD029091AE02892B99F5D09373
:10134000AE02C093AD0280910202813009F039C033
:101350008FE3E82E82E0F82EC7016DD6FBE0EF0E9A
:10136000F11C2DEAE21622E0F206B1F784E392E0E6
:1013700062D689E292E05FD68AE192E05CD68FE0A5
:1013800092E059D683E092E056D684E392E09093BF
:1013900028028093270289E292E0909326028093AC
:1013A00025020FC08091FC0181110BC0E091AD02BC
:1013B000F091AE02828D081720F0D093AE02C09358
:1013C000AD028091F8018F5F8093F8018A8D909132
:1013D000FD01981710F48093FD01ABE08A9FC001D6
:1013E0001124B601815C9D4F3BD60F900FBE8091BA
:1013F000FC01882341F0E091AD02F091AE02828DB4
:10140000801708F464D581E001C08FEFDF91CF91A0
:101410001F910F91FF90EF90DF90CF90BF90AF9012
:101420009F908F907F906F905F900895AF92BF9242
:10143000CF92DF92EF92FF920F93A12CB12CC12C8F
:10144000D12CE12CF12C00E020E030E045E550E02B
:1014500069E371E08AEF9BE0F1DE8130F1F4F8940A
:101460004FEF5FEFBA014093F4015093F5016093A1
:10147000F6017093F7018093FC011092FE01109227
:10148000FF0110920002109201020F91FF90EF9065
:10149000DF90CF90BF90AF90DFC40F91FF90EF909F
:1014A000DF90CF90BF90AF9008958091F3018F5F50
:1014B0008093F30108958F929F92AF92BF92EF9223
:1014C000FF920F931F93CF93DF938091F3018111CC
:1014D000A9C08091FE019091FF01A0910002B091FE
:1014E00001020196A11DB11D8093FE019093FF01A1
:1014F000A0930002B09301028090FE019090FF0142
:10150000A0900002B090010281149104A104B104E2
:10151000B1F4809127029091280220912502309108
:10152000260230932802209327029093260280936C
:1015300025028091F9018F5F8093F9010EDE809181
:10154000F4019091F501A091F601B091F701C0E08E
:1015500088169906AA06BB0608F454C0DBE0E091A1
:101560002702F09128028081811104C08FEF9FEF44
:10157000DC0113C0E0912702F09128020780F0857A
:10158000E02D00851185F80182819381A481B581C8
:1015900088169906AA06BB0648F48093F401909336
:1015A000F501A093F601B093F7012CC07801F2E0A9
:1015B000EF0EF11CC701B9D5D80158968D919C91B9
:1015C0005997892B19F0C8010E96AFD5F801928D65
:1015D0008091FD01891710F49093FD01D99FC001FE
:1015E0001124B701815C9D4F3BD5E091AD02F09194
:1015F000AE02D8015A969C91828D981708F4AFCF0D
:10160000C1E0ADCFE091AD02F091AE02E28DBBE062
:10161000EB9FF0011124E15CFD4F8081823040F0AE
:10162000C1E006C08091FB018F5F8093FB01C0E0A9
:101630008091FA018111C1E08C2FDF91CF911F9130
:101640000F91FF90EF90BF90AF909F908F90089573
:10165000EF92FF920F931F93CF93DF930FB6F894FF
:101660000F928091F30181508093F3018091F301F7
:10167000882311F080E04EC0809102028823D1F3CC
:101680008BE0F82EEE24E39480911A02882339F13E
:10169000E0912102F0912202C085D185CE010E9603
:1016A00044D58E010E5F1F4FC8013FD59A8D8091A2
:1016B000FD01891710F49093FD01F99EC0011124DA
:1016C000B801815C9D4FCCD4E091AD02F091AE02A7
:1016D0009A8D828D9817C0F2E092FA01D5CF809151
:1016E000FB01811108C08091FA01813009F0C2CF5D
:1016F000EED381E00FC0C1E08091FB01882399F314
:10170000DADE8111C093FA018091FB018150809350
:10171000FB01F2CF0F900FBEDF91CF911F910F9180
:10172000FF90EF900895AF92BF92CF92DF92EF9229
:10173000FF920F931F93CF93DF9300D000D0CDB7CC
:10174000DEB75C0149835A836B837C83AEDE0091F4
:10175000FE011091FF012091000230910102F5017C
:1017600080819181A281B38149815A816B817C8181
:101770006C017D01C40ED51EE61EF71E0817190761
:101780002A073B0730F4C816D906EA06FB0660F4C0
:1017900005C0C816D906EA06FB0640F091E00C1514
:1017A0001D052E053F0518F090E001C091E0F50100
:1017B000C082D182E282F382992349F08091AD0206
:1017C0009091AE020296B1D4C701B601E8DC40DFC9
:1017D000811101C07CD30F900F900F900F90DF917B
:1017E000CF911F910F91FF90EF90DF90CF90BF901E
:1017F000AF90089580910E02882321F156DEC091AA
:101800000F0226DFCC23B1F30FB6F8940F92E091CC
:101810001602F0911702C085D185CE01029685D4BB
:101820008091020281508093020280910E028150C9
:1018300080930E020F900FBE8B8D9C8D77D2CE01C0
:1018400075D2D8CF80913F028230A0F240D3D2CF60
:101850008091F301882321F081E08093FA010895BB
:101860001092FA019BE0E091FD019E9FF00111248E
:10187000E15CFD4F8081811106C08091FD018150A6
:101880008093FD01F0CF8091FD0190E04BE0489FF7
:101890009001499F300D1124F901E15CFD4FA181B8
:1018A000B28114960D90BC91A02DB283A1832E5BC2
:1018B0003D4FA217B30731F414962D913C91159723
:1018C000328321832BE0289FF001299FF00D112402
:1018D000E15CFD4F0180F281E02D80859185909340
:1018E000AE028093AD020895CF92DF92EF92FF9205
:1018F0006A017B012091AD023091AE02B901625FB5
:101900007F4FCFD38091AD029091AE0202960DD45D
:101910008FEFC816D806E806F80669F46091AD02A4
:101920007091AE026E5F7F4F83E092E0FF90EF9088
:10193000DF90CF9095C38091FE019091FF01A0911F
:101940000002B0910102BC01CD016C0D7D1D8E1D08
:101950009F1DFF90EF90DF90CF9021CC0F931F93AE
:10196000CF93DF93DC011796ED91FC911897C0851A
:10197000D1858E01025F1F4FC801D7D38091F3013B
:10198000811113C00C501109C801CFD39A8D8091D9
:10199000FD01891710F49093FD01BBE09B9FC001EE
:1019A0001124B801815C9D4F03C0B8018AE192E027
:1019B00057D3E091AD02F091AE029A8D828D8917D6
:1019C00020F481E08093FA0101C080E0DF91CF91A3
:1019D0001F910F9108952091F901FC0120834091FE
:1019E000FE015091FF01609100027091010241835C
:1019F00052836383748308958F929F92AF92BF92B4
:101A0000CF92DF92EF92FF920F931F93CF93DF93CA
:101A1000FB010FB6F8940F92C090FE01D090FF0129
:101A2000E0900002F0900102408151816281738157
:101A30004F3F2FEF52076207720739F1B091F9015A
:101A4000EC01A88109811A812B813C81BA1729F008
:101A5000C016D106E206F306D0F446015701801AFB
:101A6000910AA20AB30A84169506A606B70678F468
:101A70000C191D092E093F09400F511F621F731FCA
:101A80004083518362837383A6DF80E001C081E0DD
:101A90000F900FBEDF91CF911F910F91FF90EF90AC
:101AA000DF90CF90BF90AF909F908F90089581E08E
:101AB0008093FA0108950F931F93CF93DF93FC0156
:101AC000892B09F452C0828DA091AD02B091AE0273
:101AD0005A969C91891708F048C0468557856089B9
:101AE000718977FD12C0A091AD02B091AE025A96F5
:101AF0009C914AE050E060E070E0491B51096109A7
:101B0000710946875787608B718B2BE0829FC001DC
:101B10001124815C9D4F2485358528173907F1F400
:101B20008F01EF012296CE0100D3E091AD02F0913A
:101B3000AE02928DF801928F8091FD01891710F409
:101B40009093FD01FBE09F9FC0011124BE01815CC9
:101B50009D4FDF91CF911F910F9182C2A091AD0255
:101B6000B091AE025A968C91828FDF91CF911F91E6
:101B70000F9108950F931F93CF93DF93FC01892B4F
:101B800011F480E02CC086A1815086A3228D95A1FE
:101B90002917B9F38111F5CFEF018F010E5F1F4FA8
:101BA000C801C3D29DA19A8F4AE050E060E070E086
:101BB000491B5109610971094E875F87688B798BD1
:101BC0008091FD01891710F49093FD012BE0929F05
:101BD000C0011124B801815C9D4F42D281E0DF91A8
:101BE000CF911F910F9108958091AD029091AE0217
:101BF000892B39F0E091AD02F091AE0286A18F5FA2
:101C000086A38091AD029091AE0208950F931F9329
:101C1000CF93DF93EC0149DC8091AF02811121C0A9
:101C200089EB92E09093B5028093B4021092B702D0
:101C30001092B6028BED95E09093B3028093B202BE
:101C40001092B1021092B0029093BC028093BB023A
:101C500080EB92E09093BA028093B90281E0809386
:101C6000AF02209709F02496CE0101978A3D954056
:101C700008F053C0E091B402F091B502A4EBB2E0D9
:101C8000828193818C179D0728F022E0E03BF207C8
:101C900049F443C02081318121153105B1F3DF01C1
:101CA000F901EECF0D911C9111970C5F1F4F208110
:101CB00031812D933C938C1B9D0B8930910500F154
:101CC000DF01AC0FBD1F13969C938E931297D383A5
:101CD000C28312962D913C91139764EB72E0EB0155
:101CE00088819981EC014A815B814217530710F486
:101CF000BC01F5CF11969C938E93EB01B983A88319
:101D000080910F019091100122813381821B930BEE
:101D10009093100180930F0102C000E010E098DC66
:101D2000C801DF91CF911F910F910895CF93DF9359
:101D3000009719F1EC012497B8DB8A819B81E4EBD1
:101D4000F2E0A081B18112962D913C911397281752
:101D5000390710F4FD01F5CFB983A883D183C0837F
:101D600020910F0130911001820F931F9093100169
:101D700080930F01DF91CF916BCCDF91CF910895CC
:101D800031E1FC013083319722E220833197A3E3D4
:101D9000A083319760833197708331971082319798
:101DA00060E8608331971082319762E060833197F9
:101DB00063E06083319764E06083319765E060831E
:101DC000319766E06083319767E06083319768E020
:101DD0006083319769E06083319760E16083319778
:101DE0003083319732E13083319733E1308331975B
:101DF00034E13083319735E13083319736E13083F8
:101E0000319737E13083319738E13083319739E1C9
:101E10003083319730E23083319731E2308331972C
:101E20002083319723E22083319740833197508379
:101E3000319726E22083319727E22083319728E2E9
:101E40002083319729E22083319720E32083319743
:101E500021E320838697089589E08093890083ECAD
:101E6000809388008BE080938100EFE6F0E0808132
:101E700082608083A091AD02B091AE02CD91CDBFC2
:101E8000DD91DEBFFF91EF91DF91CF91BF91AF91D7
:101E90009F918F917F916F915F914F913F912F9182
:101EA0001F910F91FF90EF90DF90CF90BF90AF9078
:101EB0009F908F907F906F905F904F903F902F906A
:101EC0001F900F900FBE0F90089581E008950F921C
:101ED0000FB6F8940F921F9211242F923F924F92B7
:101EE0005F926F927F928F929F92AF92BF92CF92AA
:101EF000DF92EF92FF920F931F932F933F934F9395
:101F00005F936F937F938F939F93AF93BF93CF9381
:101F1000DF93EF93FF93A091AD02B091AE020DB6A7
:101F20000D920EB60D9294DCA091AD02B091AE026E
:101F3000CD91CDBFDD91DEBFFF91EF91DF91CF91CC
:101F4000BF91AF919F918F917F916F915F914F91D1
:101F50003F912F911F910F91FF90EF90DF90CF90C5
:101F6000BF90AF909F908F907F906F905F904F90B9
:101F70003F902F901F900F900FBE0F9008950F92DB
:101F80000FB6F8940F921F9211242F923F924F9206
:101F90005F926F927F928F929F92AF92BF92CF92F9
:101FA000DF92EF92FF920F931F932F933F934F93E4
:101FB0005F936F937F938F939F93AF93BF93CF93D1
:101FC000DF93EF93FF93A091AD02B091AE020DB6F7
:101FD0000D920EB60D926FDA81113ADCA091AD022E
:101FE000B091AE02CD91CDBFDD91DEBFFF91EF91FB
:101FF000DF91CF91BF91AF919F918F917F916F9121
:102000005F914F913F912F911F910F91FF90EF9012
:10201000DF90CF90BF90AF909F908F907F906F9008
:102020005F904F903F902F901F900F900FBE0F909A
:102030000895A5DF1895FC010396928381834FEFE5
:102040005FEFBA01438354836583768390878783E8
:102050009287818710820895FC0113861286089565
:10206000CF93DF939C01FB01DC011196CD91DC91B4
:102070001297D583C4838E819F81978386838E81B7
:102080009F81DC0115967C936E9314977F836E83FA
:1020900033872287F90180818F5F8083DF91CF9121
:1020A0000895EF92FF920F931F93CF93DF937C01DC
:1020B000FB0140815181628173814F3F8FEF58074F
:1020C0006807780721F4E701A985BA8512C0D7010E
:1020D000139614968D919C911597EC0108811981A6
:1020E0002A813B81401751076207730710F0DC011A
:1020F000F0CF14968D919C91159795838483EC0174
:10210000FF83EE83B783A6831596FC93EE93149713
:10211000F386E286F70180818F5F8083DF91CF9124
:102120001F910F91FF90EF900895CF93DF93FC01E3
:10213000A285B3858481958126813781EC013F8317
:102140002E83C681D7819D838C8311968D919C911E
:1021500012978E179F0721F41296DC93CE93119756
:10216000138612868C9181508C93DF91CF910895C4
:10217000A1E21A2EAA1BBB1BFD010DC0AA1FBB1F8B
:10218000EE1FFF1FA217B307E407F50720F0A21BFD
:10219000B30BE40BF50B661F771F881F991F1A946A
:1021A00069F760957095809590959B01AC01BD0194
:1021B000CF010895EE0FFF1F0590F491E02D0994D3
:1021C000FB01DC0102C001900D9241505040D8F754
:0621D0000895F894FFCF12
:1021D60000009408800001000000FFC103C103DB7A
:1021E6000500000000040186028700A1009300E3B9
:1021F60000000000003C025461736B3100546173AF
:0E2206006B32005461736B330049444C450049
:00000001FF
