:100000005EC00000F2C3000017C400007FC0000003
:100010007DC000007BC0000079C000006AC3000002
:1000200075C0000073C0000071C000000C94670828
:100030006DC000006BC0000069C0000067C0000018
:100040002EC4000063C000008AC10000BAC10000D5
:100050005DC000005BC0000059C0000057C0000038
:1000600055C0000053C0000002000000080002015B
:10007000000003040700000000000000000102046B
:10008000081020408001020408102001020408101A
:100090002004040404040404040202020202020311
:1000A000030303030300000000250028002B0000C9
:1000B000000000240027002A00000F027B02112408
:1000C0001FBECFEFD8E0DEBFCDBF11E0A0E0B1E0B2
:1000D000EEE7F0E202C005900D92AA35B107D9F71C
:1000E00028E0AAE5B1E001C01D92A43CB207E1F707
:1000F00010E0CFE5D0E004C02197FE010E942E1051
:10010000CD35D107C9F7C1D30C943D1079CFFC018F
:10011000918D228D892F90E0805C9F4F821B9109E9
:100120008F7399270895FC01918D828D981731F076
:10013000828DE80FF11D858D90E008958FEF9FEF80
:100140000895FC01918D828D981761F0828DDF01F9
:10015000A80FB11D5D968C91928D9F5F9F73928FBA
:1001600090E008958FEF9FEF089586E092E0892B4D
:1001700041F080E090E0892B21F048D181110C946E
:1001800000000895FC01848DDF01A80FB11DA35A62
:10019000BF4F2C91848D90E001968F739927848FA7
:1001A000A689B7892C93A089B1898C9180648C939E
:1001B000938D848D981306C00288F389E02D808189
:1001C0008F7D80830895CF93DF93EC01888D882302
:1001D000C1F0EA89FB89808185FD05C0A889B989BC
:1001E0008C9186FD0EC00FB607FCF5CF808185FF90
:1001F000F2CFA889B9898C9185FFEDCFCE01C2DFFE
:10020000E8CFDF91CF910895EF92FF920F931F9364
:10021000CF93DF93EC0181E0888F9B8D8C8D9813B9
:1002200005C0E889F989808185FD23C0F62E0B8DF4
:1002300010E00F5F1F4F0F731127E02E8C8DE81217
:100240000BC00FB607FCFACFE889F989808185FFDA
:10025000F5CFCE0197DFF2CF8B8DFE01E80FF11DB8
:10026000E35AFF4FF0820B8FEA89FB89808180621D
:1002700007C0EE89FF896083E889F98980818064FD
:10028000808381E090E0DF91CF911F910F91FF90EB
:10029000EF900895CF92DF92EF92FF921F93CF934A
:1002A000DF93EC016A017B01122FE889F98982E072
:1002B00080834115514E61057105B1F060E079E030
:1002C0008DE390E0A70196010E940C10DA01C901AC
:1002D0000197A109B109B695A79597958795AC01A6
:1002E000411580E15807A8F0E889F989108260E893
:1002F00074E88EE190E0A70196010E940C10BA010B
:10030000A901415051096109710976956795579581
:100310004795EC85FD855083EE85FF854083188EDB
:10032000EC89FD891083EA89FB8980818061808363
:10033000EA89FB89808188608083EA89FB898081E2
:1003400080688083EA89FB8980818F7D8083DF914B
:10035000CF911F91FF90EF90DF90CF9008951F9263
:100360000F920FB60F9211242F938F939F93EF93B9
:10037000FF93E0916A01F0916B018081E09170013F
:10038000F091710182FD12C09081809173018F5FA5
:100390008F7320917401821751F0E0917301F0E0A6
:1003A000E65AFE4F958F8093730101C08081FF91C3
:1003B000EF919F918F912F910F900FBE0F901F90F3
:1003C00018951F920F920FB60F9211242F933F93FF
:1003D0004F935F936F937F938F939F93AF93BF934D
:1003E000EF93FF938AE591E0CDDEFF91EF91BF910E
:1003F000AF919F918F917F916F915F914F913F91BD
:100400002F910F900FBE0F901F9018958AE591E0E5
:100410007EDE21E0892B09F420E0822F0895EAE5B1
:10042000F1E01382128288EE93E0A0E0B0E08483D2
:100430009583A683B7838DE191E09183808385ECDA
:1004400090E09587848784EC90E09787868780EC9E
:1004500090E0918B808B81EC90E0938B828B82EC8F
:1004600090E0958B848B86EC90E0978B868B118E39
:10047000128E138E148E08958F929F92AF92BF9218
:10048000CF92DF92EF92FF920F931F93CF93DF9360
:100490007C018B016C0182E0C80ED11C4701E5E0B4
:1004A0008E0E911CC0E0D0E0F60161916F014AE030
:1004B00050E0C801E4D05C016EE2C80167D08A0D4B
:1004C0009B1DC80FD91FC814D90471F74AE050E02A
:1004D000F7016581C801D3D08C0F9D1FDF91CF91AB
:1004E0001F910F91FF90EF90DF90CF90BF90AF9052
:1004F0009F908F900895E7EFF1E08DE291E0918376
:10050000808312821382148215820895CF92DF9223
:10051000EF92FF920F931F93CF93DF936C017A01B9
:100520008B01C0E0D0E0CE15DF0589F0D8016D91D8
:100530008D01D601ED91FC910190F081E02DC60175
:100540000995892B11F47E0102C02196ECCFC701D9
:10055000DF91CF911F910F91FF90EF90DF90CF909F
:1005600008956115710579F0FB0101900020E9F70C
:100570003197AF01461B570BDC01ED91FC910280D6
:10058000F381E02D099480E090E00895DC01ED9185
:10059000FC910190F081E02D09946FE271E0E1CFD0
:1005A0000F931F93CF93DF93EC01DBDF8C01CE0120
:1005B000F4DF800F911FDF91CF911F910F9108956C
:1005C0008F929F92AF92BF92CF92DF92EF92FF9263
:1005D0000F931F93CF93DF93CDB7DEB7A1970FB6DD
:1005E000F894DEBF0FBECDBF7C01D42EC52EDB013B
:1005F00019A2223008F42AE08E010F5D1F4F822ECF
:10060000912CA12CB12C6D2D7C2DCD01A501940137
:100610000E940C10D22EC32EDA01015011096A304B
:1006200071058105910510F4605D01C0695CF801F8
:100630006083232B242B252B31F7B801C70191DFD1
:10064000A1960FB6F894DEBF0FBECDBFDF91CF915C
:100650001F910F91FF90EF90DF90CF90BF90AF90E0
:100660009F908F9008952115310541F4DC01ED91A3
:10067000FC910190F081E02D642F0994A1CF9A01A3
:10068000462F50E060E070E0EECF813039F018F096
:10069000823051F0089510926E00089580916F009D
:1006A0008D7F80936F000895809170008D7F80937F
:1006B000700081E08093B0008091B100887F8460F9
:1006C0008093B1001092B3000895CF93C82F80910A
:1006D0000A018C1307C0E8E6F0E0E4918FEF809305
:1006E0000A0101C0EFEF8E2FD0DF60E08C2FCF9199
:1006F0002AC21F920F920FB60F9211242F933F938D
:100700004F935F936F937F938F939F93AF93BF9319
:10071000EF93FF938091000290910102A091020259
:10072000B0910302892B8A2B8B2B51F18091FD0113
:10073000E091FE01F091FF019081892780838091F3
:10074000000290910102A0910202B09103021816DA
:1007500019061A061B06BCF4809100029091010252
:10076000A0910202B09103020197A109B1098093FF
:10077000000290930102A0930202B093030203C00F
:1007800080910A01A2DFFF91EF91BF91AF919F91FC
:100790008F917F916F915F914F913F912F910F902A
:1007A0000FBE0F901F90189508958230E8F4E82F3F
:1007B000F0E0EE0FFF1FE55FFE4F71836083813035
:1007C00041F0809169008C7F482B40936900E89A42
:1007D000089580916900440F551F440F551F837F72
:1007E000482B40936900E99A08951F920F920FB623
:1007F0000F9211242F933F934F935F936F937F93A7
:100800008F939F93AF93BF93EF93FF93E0910B016F
:10081000F0910C010995FF91EF91BF91AF919F91DC
:100820008F917F916F915F914F913F912F910F9099
:100830000FBE0F901F9018951F920F920FB60F9238
:1008400011242F933F934F935F936F937F938F93D5
:100850009F93AF93BF93EF93FF93E0910D01F091BE
:100860000E010995FF91EF91BF91AF919F918F91EB
:100870007F916F915F914F913F912F910F900FBE9C
:100880000F901F90189508950895BDD0FDDF72D286
:10089000C5EBD0E09AD22097E9F367DCFBCF1F923B
:1008A0000F920FB60F9211242F933F938F939F9324
:1008B000AF93BF938091050290910602A091070229
:1008C000B09108023091040223E0230F2D3720F469
:1008D0000196A11DB11D05C026E8230F0296A11D9A
:1008E000B11D209304028093050290930602A09309
:1008F0000702B09308028091090290910A02A09128
:100900000B02B0910C020196A11DB11D809309024A
:1009100090930A02A0930B02B0930C02BF91AF9187
:100920009F918F913F912F910F900FBE0F901F902D
:1009300018952FB7F8946091050270910602809186
:100940000702909108022FBF08953FB7F894809155
:10095000090290910A02A0910B02B0910C0226B5F7
:10096000A89B05C02F3F19F00196A11DB11D3FBFE7
:10097000BA2FA92F982F8827820F911DA11DB11D75
:10098000BC01CD0142E0660F771F881F991F4A9571
:10099000D1F708958F929F92AF92BF92CF92DF923C
:1009A000EF92FF926B017C01D0DF4B015C01C1141F
:1009B000D104E104F104F1F066DFC7DFDC01CB0113
:1009C00088199909AA09BB09883E9340A105B10578
:1009D00070F321E0C21AD108E108F10888EE880E10
:1009E00083E0981EA11CB11CC114D104E104F104E0
:1009F00021F7DDCFFF90EF90DF90CF90BF90AF90C9
:100A00009F908F900895789484B5826084BD84B55A
:100A1000816084BD85B5826085BD85B5816085BDF9
:100A2000EEE6F0E0808181608083E1E8F0E0108212
:100A3000808182608083808181608083E0E8F0E053
:100A4000808181608083E1EBF0E08081846080833D
:100A5000E0EBF0E0808181608083EAE7F0E0808174
:100A600084608083808182608083808181608083D4
:100A70008081806880831092C1000895833081F066
:100A800028F4813099F08230A1F008958730A9F0E0
:100A90008830B9F08430D1F4809180008F7D03C01C
:100AA000809180008F7780938000089584B58F7740
:100AB00002C084B58F7D84BD08958091B0008F778A
:100AC00003C08091B0008F7D8093B0000895CF93D4
:100AD000DF9390E0FC01E358FF4F2491FC01EF56B7
:100AE000FF4F8491882361F190E0880F991FFC01EA
:100AF000E155FF4FC591D491FC01EB55FF4FA591F6
:100B0000B491611109C09FB7F89488812095822320
:100B10008883EC912E230BC0623061F49FB7F89468
:100B20003881822F809583238883EC912E2B2C9300
:100B30009FBF06C08FB7F894E8812E2B28838FBF04
:100B4000DF91CF9108951F93CF93DF93282F30E04B
:100B5000F901E759FF4F8491F901E358FF4FD49110
:100B6000F901EF56FF4FC491CC23C1F0162F81112C
:100B700085DFEC2FF0E0EE0FFF1FEB55FF4FA59147
:100B8000B4918FB7F894111105C09C91ED2FE095A9
:100B9000E92302C0EC91ED2BEC938FBFDF91CF9155
:100BA0001F910895CF92DF92EF92FF920F931F93C0
:100BB000C0DE60931B0270931C0280931D02909311
:100BC0001E0210920E02009117021091180220913D
:100BD000190230911A026B017C01C01AD10AE20A93
:100BE000F30A009113011091140120911501309125
:100BF00016010C151D052E053F05A0F46093170284
:100C0000709318028093190290931A026EE072E0BA
:100C1000809121029091220217D36EE371E08AE560
:100C200091E0BEDC80910E02813009F49ED11F91CB
:100C30000F91FF90EF90DF90CF900895CF92DF92C9
:100C4000EF92FF920F931F9374DE609313027093E1
:100C50001402809315029093160210920D020091D7
:100C60000F021091100220911102309112026B01BB
:100C70007C01C01AD10AE20AF30A00910F01109117
:100C8000100120911101309112010C151D052E0546
:100C90003F05A0F460930F0270931002809311023D
:100CA000909312026DE072E080911F0290912002F9
:100CB000CBD263E471E08AE591E072DC80910D02B1
:100CC000813009F452D11F910F91FF90EF90DF9086
:100CD000CF9008950F93CF93DF9300E02FEF3FEF76
:100CE000A90160E070E08091210290912202D0D2AF
:100CF0008130A1F4C7E0D0E061E087E024DF6DE758
:100D000070E080E090E046DE60E087E01CDF6DE7A9
:100D100070E080E090E03EDE219771F7DF91CF91A7
:100D20000F9108950F93CF93DF9300E02FEF3FEFE4
:100D3000A90160E070E080911F0290912002A8D28A
:100D40008130A1F4C6E0D0E061E086E0FCDE6AEF2D
:100D500070E080E090E01EDE60E086E0F4DE6AEFA6
:100D600070E080E090E016DE219771F7DF91CF917F
:100D70000F91089526E040E052EC61E070E08AE5D2
:100D800091E088DA61E087E0A2DE61E086E09FDE44
:100D900043E050E062ED75E080E007DD43E050E0C5
:100DA0006EE176E081E001DD43E060E081E01AD2AF
:100DB000909322028093210243E060E081E012D20E
:100DC0009093200280931F020895AF92BF92CF921A
:100DD000DF92EF92FF920F93A12CB12CC12CD12C5A
:100DE000E12CF12C02E020E030E048EC50E068E437
:100DF00071E08AE696E072D301E020E030E048EC52
:100E000050E06EE471E082E996E068D30F91FF90C4
:100E1000EF90DF90CF90BF90AF9058C431E1FC01CC
:100E20003083319722E220833197A3E3A083319767
:100E300060833197708331971082319760E86083C7
:100E400031971082319762E06083319763E060836D
:100E5000319764E06083319765E06083319766E0A5
:100E60006083319767E06083319768E060833197F2
:100E700069E06083319760E1608331973083319717
:100E800032E13083319733E13083319734E130837D
:100E9000319735E13083319736E13083319737E14F
:100EA0003083319738E13083319739E1308331979E
:100EB00030E23083319731E23083319720833197AC
:100EC00023E220833197408331975083319726E284
:100ED0002083319727E22083319728E220833197BE
:100EE00029E22083319720E32083319721E3208377
:100EF0008697089589E08093890083EC8093880029
:100F00008BE080938100EFE6F0E080818260808357
:100F1000A091DD02B091DE02CD91CDBFDD91DEBFAB
:100F2000FF91EF91DF91CF91BF91AF919F918F9101
:100F30007F916F915F914F913F912F911F910F91F1
:100F4000FF90EF90DF90CF90BF90AF909F908F90E9
:100F50007F906F905F904F903F902F901F900F90D9
:100F60000FBE0F90089581E008950F920FB6F89488
:100F70000F921F9211242F923F924F925F926F9285
:100F80007F928F929F92AF92BF92CF92DF92EF9219
:100F9000FF920F931F932F933F934F935F936F9302
:100FA0007F938F939F93AF93BF93CF93DF93EF93F1
:100FB000FF93A091DD02B091DE020DB60D920EB648
:100FC0000D922FD5A091DD02B091DE02CD91CDBF63
:100FD000DD91DEBFFF91EF91DF91CF91BF91AF9196
:100FE0009F918F917F916F915F914F913F912F9141
:100FF0001F910F91FF90EF90DF90CF90BF90AF9037
:101000009F908F907F906F905F904F903F902F9028
:101010001F900F900FBE0F9008950F920FB6F89487
:101020000F921F9211242F923F924F925F926F92D4
:101030007F928F929F92AF92BF92CF92DF92EF9268
:10104000FF920F931F932F933F934F935F936F9351
:101050007F938F939F93AF93BF93CF93DF93EF9340
:10106000FF93A091DD02B091DE020DB60D920EB697
:101070000D9271D38111D5D4A091DD02B091DE0221
:10108000CD91CDBFDD91DEBFFF91EF91DF91CF918B
:10109000BF91AF919F918F917F916F915F914F9190
:1010A0003F912F911F910F91FF90EF90DF90CF9084
:1010B000BF90AF909F908F907F906F905F904F9078
:1010C0003F902F901F900F900FBE0F900895A5DFB7
:1010D0001895FC01CB0140A1442399F050E02681F2
:1010E0003781240F351F378326836281738126174A
:1010F000370720F02081318137832683668177810D
:10110000B3C708950F931F93CF93DF93EC010FB6EE
:10111000F8940F928C010D5E1F4F9AA119165CF482
:101120008B89882341F0C80102D58111A9D59AA1E4
:1011300091509AA3F2CF8FEF8AA30F900FBE0FB6F4
:10114000F8940F928E01085F1F4F99A119165CF455
:101150008885882341F0C801EAD4811191D599A1ED
:10116000915099A3F2CF8FEF89A30F900FBEDF911B
:10117000CF911F910F910895CF93DF93EC010FB69C
:10118000F8940F92288139819F8D48A1949FC001C6
:101190001124F901E80FF91FFB83EA831E8E3D83BA
:1011A0002C83841B9109820F931F9F838E838FEF63
:1011B00089A38AA361110AC08885882369F0CE01BA
:1011C0000896B5D4813041F4D0DE06C0CE01089631
:1011D00086D6CE01439683D60F900FBE81E0DF9175
:1011E000CF910895EF92FF921F93CF93DF931F92B9
:1011F000CDB7DEB7182F662331F0869F90011124FA
:10120000C901019602C080E090E083966983ADD564
:101210007C016981009781F0611104C0FC01918318
:10122000808304C08396F70191838083F701178F31
:1012300060A361E0C701A0DFC7010F90DF91CF91EC
:101240001F91FF90EF900895CF93DF93FC01968D4F
:10125000878D9817C8F4868D8F5F868F82A18F3F08
:1012600071F48389882371F0EB01CF0143965FD439
:10127000882341F0209731F081E0888306C082A165
:101280008F5F82A381E001C080E0DF91CF9108955C
:10129000AF92BF92CF92DF92EF92FF920F93CF93D4
:1012A000DF93CDB7DEB729970FB6F894DEBF0FBE38
:1012B000CDBF7C016B012E833F834887598790E027
:1012C000570183E1A80EB11C0FB6F8940F92F701F5
:1012D000868D882361F1A680B780B601C701F9DE4B
:1012E000F701011116C0868D8150868F8081918112
:1012F000892B21F428D5F70193838283F701808518
:10130000882389F0C701089612D4813061F42DDE5C
:101310000AC0B782A6828389882329F0C701439631
:1013200006D48111F4CF0F900FBE81E056C04E81DC
:101330005F8168857985452B462B472B19F40F90E3
:101340000FBE4AC0911103C0CE0101962DD40F905B
:101350000FBEFBD10FB6F8940F92F70181A18F3F1A
:1013600009F411A2F70182A18F3F09F412A20F9094
:101370000FBEBE016A5F7F4FCE01019626D4811158
:1013800028C00FB6F8940F92F701868D0F900FBE0C
:1013900081111BC080819181892B41F40FB6F89493
:1013A0000F928281938170D40F900FBE4E815F8126
:1013B00068857985C50181D3C701A4DE99D28823C8
:1013C00011F091E081CFD1DDFCCFC7019BDE90D23F
:1013D000F8CFC70197DE8CD280E029960FB6F8943B
:1013E000DEBF0FBECDBFDF91CF910F91FF90EF9089
:1013F000DF90CF90BF90AF900895E0915702F091A9
:1014000058028081811104C08FEF9FEFDC010EC074
:10141000E0915702F09158020780F085E02D00849A
:10142000F185E02D82819381A481B581809324028E
:1014300090932502A0932602B09327020895CF929D
:10144000DF92EF92FF92E091DD02F091DE02628383
:10145000738384839583C0902E02D0902F02E090F6
:101460003002F09031026C157D058E059F0578F4F1
:101470006091DD027091DE028091550290915602DA
:101480006E5F7F4FFF90EF90DF90CF905EC56B0156
:101490007C016091DD027091DE0280915702909193
:1014A00058026E5F7F4F51D58091240290912502A2
:1014B000A0912602B0912702C816D906EA06FB06BB
:1014C00040F4C0922402D0922502E0922602F092CB
:1014D0002702FF90EF90DF90CF9008955F926F9278
:1014E0007F928F929F92AF92BF92CF92DF92EF92B4
:1014F000FF920F931F93CF93DF934C01162F572E1C
:101500005A013901C114D10431F4CA012ED46C013D
:10151000892B09F4CAC08CE290E027D4EC01009733
:1015200079F0DC8ECB8E21E0A21AB108AC0CBD1C88
:10153000BC01635E7F4FE12FF52DCF01089606C0F9
:10154000C601A3D4B2C0E817F90749F09F01419141
:10155000DB014D93BD01D9012C912111F4CF1CA2C7
:10156000102F0A3008F019E01A8F1DA31EA26E0179
:10157000B2E0CB0ED11CC601C3D4CE010E96C0D4AE
:10158000DB87CA878AE090E0A0E0B0E0811B910988
:10159000A109B1098E879F87A88BB98BDF8BCE8B72
:1015A0001FA218A619A61AA61BA6A301B401C5015D
:1015B00035DC99838883E114F10419F0F701D183B4
:1015C000C0830FB6F8940F92809132028F5F8093A0
:1015D00032028091DD029091DE02892B99F5D09341
:1015E000DE02C093DD0280913202813009F039C001
:1015F0008FE6E82E82E0F82EC70171D4FBE0EF0EF3
:10160000F11C2DEDE21622E0F206B1F784E692E03D
:1016100066D489E592E063D48AE492E060D48FE3F3
:1016200092E05DD483E392E05AD484E692E0909312
:1016300058028093570289E592E090935602809376
:1016400055020FC080912C0281110BC0E091DD0288
:10165000F091DE02828D081720F0D093DE02C09355
:10166000DD02809128028F5F809328028A8D9091FD
:101670002D02981710F480932D02ABE08A9FC001D1
:101680001124B60181599D4F3FD40F900FBE809118
:101690002C02882341F0E091DD02F091DE02828D80
:1016A000801708F462DC81E001C08FEFDF91CF91F9
:1016B0001F910F91FF90EF90DF90CF90BF90AF9070
:1016C0009F908F907F906F905F900895AF92BF92A0
:1016D000CF92DF92EF92FF920F93A12CB12CC12CED
:1016E000D12CE12CF12C00E020E030E045E550E089
:1016F00064E571E083EE9CE0F1DE8130F1F4F89472
:101700004FEF5FEFBA01409324025093250260939C
:1017100026027093270280932C0210922E021092C0
:101720002F0210923002109231020F91FF90EF9031
:10173000DF90CF90BF90AF90DDCB0F91FF90EF90F7
:10174000DF90CF90BF90AF900895809123028F5F7C
:101750008093230208958F929F92AF92BF92EF924F
:10176000FF920F931F93CF93DF93809123028111F8
:10177000A9C080912E0290912F02A0913002B091C9
:1017800031020196A11DB11D80932E0290932F026C
:10179000A0933002B093310280902E0290902F02DD
:1017A000A0903002B090310281149104A104B104E0
:1017B000B1F48091570290915802209155023091D6
:1017C000560230935802209357029093560280930A
:1017D0005502809129028F5F809329020EDE80914D
:1017E000240290912502A0912602B0912702C0E028
:1017F00088169906AA06BB0608F454C0DBE0E091FF
:101800005702F09158028081811104C08FEF9FEF41
:10181000DC0113C0E0915702F09158020780F08577
:10182000E02D00851185F80182819381A481B58125
:1018300088169906AA06BB0648F480932402909362
:101840002502A0932602B09327022CC07801F2E073
:10185000EF0EF11CC701BDD3D80158968D919C9114
:101860005997892B19F0C8010E96B3D3F801928DC0
:1018700080912D02891710F490932D02D99FC001F9
:101880001124B70181599D4F3FD3E091DD02F091C2
:10189000DE02D8015A969C91828D981708F4AFCF3A
:1018A000C1E0ADCFE091DD02F091DE02E28DBBE060
:1018B000EB9FF0011124E159FD4F8081823040F00F
:1018C000C1E006C080912B028F5F80932B02C0E0A5
:1018D00080912A028111C1E08C2FDF91CF911F915D
:1018E0000F91FF90EF90BF90AF909F908F900895D1
:1018F000EF92FF920F931F93CF93DF930FB6F8945D
:101900000F928091230281508093230280912302C1
:10191000882311F080E04EC0809132028823D1F3F9
:101920008BE0F82EEE24E39480914A02882339F16B
:10193000E0915102F0915202C085D185CE010E9600
:1019400048D38E010E5F1F4FC80143D39A8D8091FB
:101950002D02891710F490932D02F99EC0011124D5
:10196000B80181599D4FD0D2E091DD02F091DE02A5
:101970009A8D828D9817C0F2E0922A02D5CF80917D
:101980002B02811108C080912A02813009F0C2CF58
:10199000ECDA81E00FC0C1E080912B02882399F33B
:1019A000DADE8111C0932A0280912B02815080934C
:1019B0002B02F2CF0F900FBEDF91CF911F910F91AD
:1019C000FF90EF90089580913E02882321F1BDDEC3
:1019D000C0913F028DDFCC23B1F30FB6F8940F9284
:1019E000E0914602F0914702C085D185CE01029672
:1019F000F0D28091320281508093320280913E0277
:101A0000815080933E020F900FBE8B8D9C8D3DD2F6
:101A1000CE013BD2D8CF80916F028230A0F2A5DAFE
:101A2000D2CF80912302882321F081E080932A0283
:101A3000089510922A029BE0E0912D029E9FF001F2
:101A40001124E159FD4F8081811106C080912D0242
:101A5000815080932D02F0CF80912D0290E04BE0D9
:101A6000489F9001499F300D1124F901E159FD4F24
:101A7000A181B28114960D90BC91A02DB283A18357
:101A80002E583D4FA217B30731F414962D913C9177
:101A90001597328321832BE0289FF001299FF00DB9
:101AA0001124E159FD4F0180F281E02D808591855F
:101AB0009093DE028093DD020895CF92DF92EF9241
:101AC000FF926A017B012091DD023091DE02B901B3
:101AD000625F7F4F3AD28091DD029091DE020296E2
:101AE00078D28FEFC816D806E806F80669F4609138
:101AF000DD027091DE026E5F7F4F83E392E0FF9024
:101B0000EF90DF90CF9000C280912E0290912F0233
:101B1000A0913002B0913102BC01CD016C0D7D1D50
:101B20008E1D9F1DFF90EF90DF90CF9088CC0F937C
:101B30001F93CF93DF93DC011796ED91FC911897DB
:101B4000C085D1858E01025F1F4FC80142D28091AE
:101B50002302811113C00C501109C8013AD29A8D89
:101B600080912D02891710F490932D02BBE09B9F6A
:101B7000C0011124B80181599D4F03C0B8018AE406
:101B800092E0C2D1E091DD02F091DE029A8D828D69
:101B9000891720F481E080932A0201C080E0DF9160
:101BA000CF911F910F91089520912902FC0120836C
:101BB00040912E0250912F026091300270913102BB
:101BC000418352836383748308958F929F92AF926F
:101BD000BF92CF92DF92EF92FF920F931F93CF931A
:101BE000DF93FB010FB6F8940F92C0902E02D090B5
:101BF0002F02E0903002F0903102408151816281E9
:101C000073814F3F2FEF52076207720739F1B0918E
:101C10002902EC01A88109811A812B813C81BA1724
:101C200029F0C016D106E206F306D0F446015701AA
:101C3000801A910AA20AB30A84169506A606B70668
:101C400078F40C191D092E093F09400F511F621F1E
:101C5000731F4083518362837383A6DF80E001C0DA
:101C600081E00F900FBEDF91CF911F910F91FF90F8
:101C7000EF90DF90CF90BF90AF909F908F9008959E
:101C800081E080932A0208950F931F93CF93DF93EF
:101C9000FC01892B09F452C0828DA091DD02B09124
:101CA000DE025A969C91891708F048C046855785F0
:101CB0006089718977FD12C0A091DD02B091DE02CA
:101CC0005A969C914AE050E060E070E0491B51094F
:101CD0006109710946875787608B718B2BE0829F62
:101CE000C001112481599D4F248535852817390756
:101CF000F1F48F01EF012296CE016BD1E091DD026C
:101D0000F091DE02928DF801928F80912D02891759
:101D100010F490932D02FBE09F9FC0011124BE019F
:101D200081599D4FDF91CF911F910F91EDC0A091EF
:101D3000DD02B091DE025A968C91828FDF91CF91B5
:101D40001F910F9108958091DD029091DE02892B01
:101D500039F0E091DD02F091DE0286A18F5F86A36B
:101D60008091DD029091DE0208950F931F93CF932F
:101D7000DF93EC01EADC8091DF02811121C089EE62
:101D800092E09093E5028093E4021092E7021092B1
:101D9000E6028BED95E09093E3028093E2021092CD
:101DA000E1021092E0029093EC028093EB0280EE4D
:101DB00092E09093EA028093E90281E08093DF024F
:101DC000209709F02496CE0101978A3D954008F0AE
:101DD00053C0E091E402F091E502A4EEB2E082810A
:101DE00093818C179D0728F022E0E03EF20749F42A
:101DF00043C02081318121153105B1F3DF01F901A3
:101E0000EECF0D911C9111970C5F1F4F20813181F6
:101E10002D933C938C1B9D0B8930910500F1DF01C4
:101E2000AC0FBD1F13969C938E931297D383C283DE
:101E300012962D913C91139764EE72E0EB0188812C
:101E40009981EC014A815B814217530710F4BC0170
:101E5000F5CF11969C938E93EB01B983A883809163
:101E600017019091180122813381821B930B90936B
:101E700018018093170102C000E010E039DDC801AD
:101E8000DF91CF911F910F910895CF93DF9300972A
:101E900019F1EC01249759DC8A819B81E4EEF2E090
:101EA000A081B18112962D913C9113972817390783
:101EB00010F4FD01F5CFB983A883D183C0832091AD
:101EC000170130911801820F931F9093180180938E
:101ED0001701DF91CF910CCDDF91CF910895FC01D7
:101EE0000396928381834FEF5FEFBA01438354835C
:101EF0006583768390878783928781871082089590
:101F0000FC01138612860895CF93DF939C01FB0199
:101F1000DC011196CD91DC911297D583C4838E811B
:101F20009F81978386838E819F81DC0115967C93A8
:101F30006E9314977F836E8333872287F9018081A4
:101F40008F5F8083DF91CF910895EF92FF920F937F
:101F50001F93CF93DF937C01FB014081518162810C
:101F600073814F3F8FEF58076807780721F4E70127
:101F7000A985BA8512C0D701139614968D919C91AC
:101F80001597EC01088119812A813B81401751077F
:101F90006207730710F0DC01F0CF14968D919C91CD
:101FA000159795838483EC01FF83EE83B783A68323
:101FB0001596FC93EE931497F386E286F7018081E1
:101FC0008F5F8083DF91CF911F910F91FF90EF90F2
:101FD0000895CF93DF93FC01A285B3858481958119
:101FE00026813781EC013F832E83C681D7819D8373
:101FF0008C8311968D919C9112978E179F0721F4D7
:102000001296DC93CE931197138612868C91815091
:102010008C93DF91CF910895A1E21A2EAA1BBB1BCE
:10202000FD010DC0AA1FBB1FEE1FFF1FA217B307A4
:10203000E407F50720F0A21BB30BE40BF50B661FBA
:10204000771F881F991F1A9469F76095709580957E
:1020500090959B01AC01BD01CF010895EE0FFF1FCC
:102060000590F491E02D0994FB01DC0102C0019080
:0E2070000D9241505040D8F70895F894FFCFDC
:10207E000000C408800001000000FFD403D403C890
:10208E00000000C8000000DB05000000000401860F
:10209E00028700A1009300E300000000003C020D47
:1020AE000A006E616E00696E66006F766600697377
:1020BE0072300069737231005461736B3100546178
:0A20CE00736B320049444C450000DA
:00000001FF
