:100000005EC000005AC300007FC300007FC0000034
:100010007DC000007BC0000079C00000F2C200007B
:1000200075C0000073C0000071C000000C94870B05
:100030006DC000006BC0000069C0000067C0000018
:1000400095C3000063C0000025C1000055C1000039
:100050005DC000005BC0000059C0000057C0000038
:1000600055C0000053C0000002000000080002015B
:10007000000003040700000000000000000102046B
:10008000081020408001020408102001020408101A
:100090002004040404040404040202020202020311
:1000A000030303030300000000250028002B0000C9
:1000B000000000240027002A0000AA0116021124D3
:1000C0001FBECFEFD8E0DEBFCDBF11E0A0E0B1E0B2
:1000D000E0EAF8E102C005900D92A233B107D9F72A
:1000E00028E0A2E3B1E001C01D92A638B207E1F713
:1000F00010E0CFE5D0E004C02197FE010E94480C3B
:10010000CD35D107C9F728D30C944E0C79CFFC011B
:10011000918D228D892F90E0805C9F4F821B9109E9
:100120008F7399270895FC01918D828D981731F076
:10013000828DE80FF11D858D90E008958FEF9FEF80
:100140000895FC01918D828D981761F0828DDF01F9
:10015000A80FB11D5D968C91928D9F5F9F73928FBA
:1001600090E008958FEF9FEF089581EA91E0892B49
:1001700041F080E090E0892B21F0E3D081110C94D4
:1001800000000895FC01848DDF01A80FB11DA35A62
:10019000BF4F2C91848D90E001968F739927848FA7
:1001A000A689B7892C93A089B1898C9180648C939E
:1001B000938D848D981306C00288F389E02D808189
:1001C0008F7D80830895CF93DF93EC01888D882302
:1001D000C1F0EA89FB89808185FD05C0A889B989BC
:1001E0008C9186FD0EC00FB607FCF5CF808185FF90
:1001F000F2CFA889B9898C9185FFEDCFCE01C2DFFE
:10020000E8CFDF91CF910895EF92FF920F931F9364
:10021000CF93DF93EC0181E0888F9B8D8C8D9813B9
:1002200005C0E889F989808185FD23C0F62E0B8DF4
:1002300010E00F5F1F4F0F731127E02E8C8DE81217
:100240000BC00FB607FCFACFE889F989808185FFDA
:10025000F5CFCE0197DFF2CF8B8DFE01E80FF11DB8
:10026000E35AFF4FF0820B8FEA89FB89808180621D
:1002700007C0EE89FF896083E889F98980818064FD
:10028000808381E090E0DF91CF911F910F91FF90EB
:10029000EF9008951F920F920FB60F9211242F9393
:1002A0008F939F93EF93FF93E0914201F09143016D
:1002B0008081E0914801F091490182FD12C0908156
:1002C00080914B018F5F8F7320914C01821751F009
:1002D000E0914B01F0E0EE5CFE4F958F80934B0177
:1002E00001C08081FF91EF919F918F912F910F908D
:1002F0000FBE0F901F9018951F920F920FB60F927E
:1003000011242F933F934F935F936F937F938F931A
:100310009F93AF93BF93EF93FF9382E391E032DF1C
:10032000FF91EF91BF91AF919F918F917F916F91CD
:100330005F914F913F912F910F900FBE0F901F90A3
:10034000189582E391E0E3DE21E0892B09F420E0B7
:10035000822F0895E2E3F1E01382128288EE93E0A7
:10036000A0E0B0E084839583A683B78385E191E024
:100370009183808385EC90E09587848784EC90E07E
:100380009787868780EC90E0918B808B81EC90E062
:10039000938B828B82EC90E0958B848B86EC90E043
:1003A000978B868B118E128E138E148E08958F92DA
:1003B0009F92AF92BF92CF92DF92EF92FF920F93F4
:1003C0001F93CF93DF937C018B016C0182E0C80EF9
:1003D000D11C4701E5E08E0E911CC0E0D0E0F60193
:1003E00061916F014AE050E0C801D1D05C016EE23A
:1003F000C80167D08A0D9B1DC80FD91FC814D90426
:1004000071F74AE050E0F7016581C801C0D08C0F58
:100410009D1FDF91CF911F910F91FF90EF90DF9083
:10042000CF90BF90AF909F908F900895EFECF1E048
:1004300085E291E091838083128213821482158277
:100440000895CF92DF92EF92FF920F931F93CF9375
:10045000DF936C017A018B01C0E0D0E0CE15DF059F
:1004600089F0D8016D918D01D601ED91FC9101903B
:10047000F081E02DC6010995892B11F47E0102C09F
:100480002196ECCFC701DF91CF911F910F91FF9083
:10049000EF90DF90CF9008956115710579F0FB0121
:1004A00001900020E9F73197AF01461B570BDC01A3
:1004B000ED91FC910280F381E02D099480E090E0C1
:1004C0000895DC01ED91FC910190F081E02D0994FB
:1004D0008F929F92AF92BF92CF92DF92EF92FF9254
:1004E0000F931F93CF93DF93CDB7DEB7A1970FB6CE
:1004F000F894DEBF0FBECDBF7C01D42EC52EDB012C
:1005000019A2223008F42AE08E010F5D1F4F822EBF
:10051000912CA12CB12C6D2D7C2DCD01A501940128
:100520000E94260CD22EC32EDA01015011096A3026
:1005300071058105910510F4605D01C0695CF801E9
:100540006083232B242B252B31F7B801C701A4DFAF
:10055000A1960FB6F894DEBF0FBECDBFDF91CF914D
:100560001F910F91FF90EF90DF90CF90BF90AF90D1
:100570009F908F9008952115310541F4DC01ED9194
:10058000FC910190F081E02D642F0994A1CF9A0194
:10059000462F50E060E070E0EECF813039F018F087
:1005A000823051F0089510926E00089580916F008E
:1005B0008D7F80936F000895809170008D7F809370
:1005C000700081E08093B0008091B100887F8460EA
:1005D0008093B1001092B3000895CF93C82F8091FB
:1005E0000A018C1307C0E8E6F0E0E4918FEF8093F6
:1005F0000A0101C0EFEF8E2FD0DF60E08C2FCF918A
:10060000AAC11F920F920FB60F9211242F933F93FE
:100610004F935F936F937F938F939F93AF93BF930A
:10062000EF93FF938091D8019091D901A091DA01C5
:10063000B091DB01892B8A2B8B2B51F18091D50155
:10064000E091D601F091D701908189278083809134
:10065000D8019091D901A091DA01B091DB0118166F
:1006600019061A061B06BCF48091D8019091D90195
:10067000A091DA01B091DB010197A109B109809342
:10068000D8019093D901A093DA01B093DB0103C0A4
:1006900080910A01A2DFFF91EF91BF91AF919F91ED
:1006A0008F917F916F915F914F913F912F910F901B
:1006B0000FBE0F901F90189508951F920F920FB6BE
:1006C0000F9211242F933F934F935F936F937F93D8
:1006D0008F939F93AF93BF93EF93FF93E0910B01A1
:1006E000F0910C010995FF91EF91BF91AF919F910E
:1006F0008F917F916F915F914F913F912F910F90CB
:100700000FBE0F901F9018951F920F920FB60F9269
:1007100011242F933F934F935F936F937F938F9306
:100720009F93AF93BF93EF93FF93E0910D01F091EF
:100730000E010995FF91EF91BF91AF919F918F911C
:100740007F916F915F914F913F912F910F900FBECD
:100750000F901F90189508955ED0FDDFC4D1C5EBB2
:10076000D0E0ECD12097E9F300DDFBCF1F920F9290
:100770000FB60F9211242F933F938F939F93AF93B4
:10078000BF938091DD019091DE01A091DF01B091D6
:10079000E0013091DC0123E0230F2D3720F4019696
:1007A000A11DB11D05C026E8230F0296A11DB11D94
:1007B0002093DC018093DD019093DE01A093DF01A3
:1007C000B093E0018091E1019091E201A091E301F9
:1007D000B091E4010196A11DB11D8093E1019093B8
:1007E000E201A093E301B093E401BF91AF919F9127
:1007F0008F913F912F910F900FBE0F901F901895E2
:100800008230910538F0880F991F880F991F05973E
:100810000197F1F70895789484B5826084BD84B51A
:10082000816084BD85B5826085BD85B5816085BDEB
:10083000EEE6F0E0808181608083E1E8F0E0108204
:10084000808182608083808181608083E0E8F0E045
:10085000808181608083E1EBF0E08081846080832F
:10086000E0EBF0E0808181608083EAE7F0E0808166
:1008700084608083808182608083808181608083C6
:100880008081806880831092C1000895833081F058
:1008900028F4813099F08230A1F008958730A9F0D2
:1008A0008830B9F08430D1F4809180008F7D03C00E
:1008B000809180008F7780938000089584B58F7732
:1008C00002C084B58F7D84BD08958091B0008F777C
:1008D00003C08091B0008F7D8093B0000895CF93C6
:1008E000DF9390E0FC01E358FF4F2491FC01EF56A9
:1008F000FF4F8491882361F190E0880F991FFC01DC
:10090000E155FF4FC591D491FC01EB55FF4FA591E7
:10091000B491611109C09FB7F89488812095822312
:100920008883EC912E230BC0623061F49FB7F8945A
:100930003881822F809583238883EC912E2B2C93F2
:100940009FBF06C08FB7F894E8812E2B28838FBFF6
:10095000DF91CF9108951F93CF93DF93282F30E03D
:10096000F901E759FF4F8491F901E358FF4FD49102
:10097000F901EF56FF4FC491CC23C1F0162F81111E
:1009800085DFEC2FF0E0EE0FFF1FEB55FF4FA59139
:10099000B4918FB7F894111105C09C91ED2FE0959B
:1009A000E92302C0EC91ED2BEC938FBFDF91CF9147
:1009B0001F9108950F931F93CF93DF938C01C0E095
:1009C000D0E0C017D1072CF488EE93E019DF219610
:1009D000F8CFDF91CF911F910F910895CF93DF93BF
:1009E000CFE0D0E061E086E0B6DF82E390E0E2DFD6
:1009F00060E086E0B0DF82E390E0DCDF219791F7F2
:100A0000DF91CF910895CF93DF93C9E1D0E061E00A
:100A100087E0A1DF82E390E0CDDF60E087E09BDF4D
:100A200082E390E0C7DF219791F7DF91CF9108959E
:100A3000CF93DF93C1E1D0E061E088E08CDF82E317
:100A400090E0B8DF60E088E086DF82E390E0B2DF2C
:100A5000219791F7DF91CF910895CF93DF93C7E06E
:100A6000D0E061E089E077DF82E390E0A3DF60E03F
:100A700089E071DF82E390E09DDF219791F7DF91BC
:100A8000CF910895CF93DF9300D000D0CDB7DEB7DC
:100A900004D269837A838B839C83A0DFB4DF48E828
:100AA00053E160E070E0CE0101963DD397DFC0DFF7
:100AB000D4DF48E853E160E070E0CE01019633D323
:100AC0008DDFA1DF48E853E160E070E0CE010196E0
:100AD0002AD384DFADDF48E853E160E070E0CE0167
:100AE000019621D3DACFAF92BF92CF92DF92EF92ED
:100AF000FF920F9361E086E0F2DE61E087E0EFDED7
:100B000061E088E0ECDE61E089E0E9DEA12CB12C57
:100B1000C12CD12CE12CF12C01E020E030E048EC9C
:100B200050E067E271E082E495E07AD00F91FF90A7
:100B3000EF90DF90CF90BF90AF906AC10895E091A1
:100B40001902F0911A028081811104C08FEF9FEF8A
:100B5000DC010EC0E0911902F0911A020780F085C5
:100B6000E02D0084F185E02D82819381A481B581FF
:100B70008093E6019093E701A093E801B093E90127
:100B80000895CF92DF92EF92FF92E0919F02F09151
:100B9000A0026283738384839583C090F001D09018
:100BA000F101E090F201F090F3016C157D058E05E6
:100BB0009F0578F460919F027091A00280911702C6
:100BC000909118026E5F7F4FFF90EF90DF90CF9073
:100BD000D6C56B017C0160919F027091A00280914B
:100BE000190290911A026E5F7F4FC9D58091E6017C
:100BF0009091E701A091E801B091E901C816D906EA
:100C0000EA06FB0640F4C092E601D092E701E092CA
:100C1000E801F092E901FF90EF90DF90CF90089506
:100C20005F926F927F928F929F92AF92BF92CF927C
:100C3000DF92EF92FF920F931F93CF93DF934C01BC
:100C4000162F572E5A013901C114D10431F4CA01AB
:100C50004BD36C01892B09F4CAC08CE290E044D3D9
:100C6000EC01009779F0DC8ECB8E21E0A21AB1085E
:100C7000AC0CBD1CBC01635E7F4FE12FF52DCF0195
:100C8000089606C0C601C0D3B2C0E817F90749F0FC
:100C90009F014191DB014D93BD01D9012C9121119F
:100CA000F4CF1CA2102F0A3008F019E01A8F1DA3F0
:100CB0001EA26E01B2E0CB0ED11CC6013BD5CE0107
:100CC0000E9638D5DB87CA878AE090E0A0E0B0E0D6
:100CD000811B9109A109B1098E879F87A88BB98BC8
:100CE000DF8BCE8B1FA218A619A61AA61BA6A301DE
:100CF000B401C501B3D399838883E114F10419F0D9
:100D0000F701D183C0830FB6F8940F928091F4015C
:100D10008F5F8093F40180919F029091A002892BB4
:100D200099F5D093A002C0939F028091F401813085
:100D300009F039C081E3E82E82E0F82EC701E9D43A
:100D4000FBE0EF0EF11C2FE9E21622E0F206B1F70C
:100D500086E292E0DED48BE192E0DBD48CE092E09C
:100D6000D8D481E092E0D5D485EF91E0D2D486E268
:100D700092E090931A02809319028BE192E0909393
:100D80001802809317020FC08091EE0181110BC0F1
:100D9000E0919F02F091A002828D081720F0D0937D
:100DA000A002C0939F028091EA018F5F8093EA01C5
:100DB0008A8D9091EF01981710F48093EF01ABE0CA
:100DC0008A9FC0011124B6018F5C9D4FB7D40F904C
:100DD0000FBE8091EE01882341F0E0919F02F091D7
:100DE000A002828D801708F4E0D381E001C08FEF6C
:100DF000DF91CF911F910F91FF90EF90DF90CF90F7
:100E0000BF90AF909F908F907F906F905F9008956C
:100E1000AF92BF92CF92DF92EF92FF920F93A12CED
:100E2000B12CC12CD12CE12CF12C00E020E030E0E1
:100E300045E550E06DE271E08AEF98E0F1DE813047
:100E4000F1F4F8944FEF5FEFBA014093E60150934D
:100E5000E7016093E8017093E9018093EE0110923D
:100E6000F0011092F1011092F2011092F3010F9132
:100E7000FF90EF90DF90CF90BF90AF905BC30F914A
:100E8000FF90EF90DF90CF90BF90AF90089580914A
:100E9000E5018F5F8093E50108950FB6F8940F92F6
:100EA0006091F0017091F1018091F2019091F30154
:100EB0000F900FBE08958F929F92AF92BF92EF92C4
:100EC000FF920F931F93CF93DF938091E5018111E0
:100ED000A9C08091F0019091F101A091F201B0912F
:100EE000F3010196A11DB11D8093F0019093F101D2
:100EF000A093F201B093F3018090F0019090F10182
:100F0000A090F201B090F30181149104A104B10406
:100F1000B1F48091190290911A0220911702309138
:100F2000180230931A0220931902909318028093AA
:100F300017028091EB018F5F8093EB0100DE8091BF
:100F4000E6019091E701A091E801B091E901C0E0CC
:100F500088169906AA06BB0608F454C0DBE0E091A7
:100F60001902F0911A028081811104C08FEF9FEF66
:100F7000DC0113C0E0911902F0911A020780F0859C
:100F8000E02D00851185F80182819381A481B581CE
:100F900088169906AA06BB0648F48093E60190934A
:100FA000E701A093E801B093E9012CC07801F2E0D9
:100FB000EF0EF11CC70127D4D80158968D919C9152
:100FC0005997892B19F0C8010E961DD4F801928DFE
:100FD0008091EF01891710F49093EF01D99FC00120
:100FE0001124B7018F5C9D4FA9D3E0919F02F0912E
:100FF000A002D8015A969C91828D981708F4AFCF21
:10100000C1E0ADCFE0919F02F091A002E28DBBE084
:10101000EB9FF0011124EF5CFD4F8081823040F0A6
:10102000C1E006C08091ED018F5F8093ED01C0E0CB
:101030008091EC018111C1E08C2FDF91CF911F9144
:101040000F91FF90EF90BF90AF909F908F90089579
:10105000EF92FF920F931F93CF93DF930FB6F89405
:101060000F928091E50181508093E5018091E50127
:10107000882311F080E04EC08091F4018823D1F3E1
:101080008BE0F82EEE24E39480910C02882339F152
:10109000E0911302F0911402C085D185CE010E9625
:1010A000B2D38E010E5F1F4FC801ADD39A8D8091D0
:1010B000EF01891710F49093EF01F99EC0011124FC
:1010C000B8018F5C9D4F3AD3E0919F02F091A0024E
:1010D0009A8D828D9817C0F2E092EC01D5CF809165
:1010E000ED01811108C08091EC01813009F0C2CF7F
:1010F0005CD281E00FC0C1E08091ED01882399F3BB
:10110000DADE8111C093EC018091ED018150809372
:10111000ED01F2CF0F900FBEDF91CF911F910F9194
:10112000FF90EF900895AF92BF92CF92DF92EF922F
:10113000FF920F931F93CF93DF9300D000D0CDB7D2
:10114000DEB75C0149835A836B837C83A0DE009108
:10115000F0011091F1012091F2013091F301F501BC
:1011600080819181A281B38149815A816B817C8187
:101170006C017D01C40ED51EE61EF71E0817190767
:101180002A073B0730F4C816D906EA06FB0660F4C6
:1011900005C0C816D906EA06FB0640F091E00C151A
:1011A0001D052E053F0518F090E001C091E0F50106
:1011B000C082D182E282F382992349F080919F021A
:1011C0009091A00202961FD3C701B601DADC40DF7E
:1011D000811101C0EAD10F900F900F900F90DF9115
:1011E000CF911F910F91FF90EF90DF90CF90BF9024
:1011F000AF90089580910002882321F148DEC091CC
:10120000010226DFCC23B1F30FB6F8940F92E091E0
:101210000802F0910902C085D185CE010296F3D271
:101220008091F40181508093F401809100028150FB
:10123000809300020F900FBE8B8D9C8DE5D0CE0168
:10124000E3D0D8CF809131028230A0F2AED1D2CF9C
:101250008091E501882321F081E08093EC010895DD
:101260001092EC019BE0E091EF019E9FF0011124B0
:10127000EF5CFD4F8081811106C08091EF018150AC
:101280008093EF01F0CF8091EF0190E04BE0489F19
:101290009001499F300D1124F901EF5CFD4FA181B0
:1012A000B28114960D90BC91A02DB283A1832C5CC9
:1012B0003D4FA217B30731F414962D913C91159729
:1012C000328321832BE0289FF001299FF00D112408
:1012D000EF5CFD4F0180F281E02D80859185909338
:1012E000A00280939F0208950F931F93CF93DF93E3
:1012F000EC01CDDD8091A102811121C08BEA92E049
:101300009093A7028093A6021092A9021092A802BD
:101310008BED95E09093A5028093A4021092A30216
:101320001092A2029093AE028093AD0282EA92E004
:101330009093AC028093AB0281E08093A10220974E
:1013400009F02496CE0101978A3D954008F053C0DC
:10135000E091A602F091A702A6EAB2E08281938111
:101360008C179D0728F022E0E23AF20749F443C0C7
:101370002081318121153105B1F3DF01F901EECF73
:101380000D911C9111970C5F1F4F208131812D937E
:101390003C938C1B9D0B8930910500F1DF01AC0F54
:1013A000BD1F13969C938E931297D383C28312967C
:1013B0002D913C91139766EA72E0EB018881998147
:1013C000EC014A815B814217530710F4BC01F5CF51
:1013D00011969C938E93EB01B983A88380910F01A2
:1013E0009091100122813381821B930B9093100105
:1013F00080930F0102C000E010E02ADEC801DF91F7
:10140000CF911F910F910895CF93DF93009719F11A
:10141000EC0124973CDD8A819B81E6EAF2E0A08121
:10142000B18112962D913C9113972817390710F42A
:10143000FD01F5CFB983A883D183C08320910F012B
:1014400030911001820F931F9093100180930F0130
:10145000DF91CF91FDCDDF91CF91089531E1FC0176
:101460003083319722E220833197A3E3A083319721
:1014700060833197708331971082319760E8608381
:1014800031971082319762E06083319763E0608327
:10149000319764E06083319765E06083319766E05F
:1014A0006083319767E06083319768E060833197AC
:1014B00069E06083319760E16083319730833197D1
:1014C00032E13083319733E13083319734E1308337
:1014D000319735E13083319736E13083319737E109
:1014E0003083319738E13083319739E13083319758
:1014F00030E23083319731E2308331972083319766
:1015000023E220833197408331975083319726E23D
:101510002083319727E22083319728E22083319777
:1015200029E22083319720E32083319721E3208330
:101530008697089589E08093890083EC80938800E2
:101540008BE080938100EFE6F0E080818260808311
:10155000A0919F02B091A002CD91CDBFDD91DEBFE1
:10156000FF91EF91DF91CF91BF91AF919F918F91BB
:101570007F916F915F914F913F912F911F910F91AB
:10158000FF90EF90DF90CF90BF90AF909F908F90A3
:101590007F906F905F904F903F902F901F900F9093
:1015A0000FBE0F90089581E008950F920FB6F89442
:1015B0000F921F9211242F923F924F925F926F923F
:1015C0007F928F929F92AF92BF92CF92DF92EF92D3
:1015D000FF920F931F932F933F934F935F936F93BC
:1015E0007F938F939F93AF93BF93CF93DF93EF93AB
:1015F000FF93A0919F02B091A0020DB60D920EB67E
:101600000D9226DEA0919F02B091A002CD91CDBF98
:10161000DD91DEBFFF91EF91DF91CF91BF91AF914F
:101620009F918F917F916F915F914F913F912F91FA
:101630001F910F91FF90EF90DF90CF90BF90AF90F0
:101640009F908F907F906F905F904F903F902F90E2
:101650001F900F900FBE0F9008950F920FB6F89441
:101660000F921F9211242F923F924F925F926F928E
:101670007F928F929F92AF92BF92CF92DF92EF9222
:10168000FF920F931F932F933F934F935F936F930B
:101690007F938F939F93AF93BF93CF93DF93EF93FA
:1016A000FF93A0919F02B091A0020DB60D920EB6CD
:1016B0000D9201DC8111CCDDA0919F02B091A002BE
:1016C000CD91CDBFDD91DEBFFF91EF91DF91CF9145
:1016D000BF91AF919F918F917F916F915F914F914A
:1016E0003F912F911F910F91FF90EF90DF90CF903E
:1016F000BF90AF909F908F907F906F905F904F9032
:101700003F902F901F900F900FBE0F900895A5DF70
:101710001895FC010396928381834FEF5FEFBA0126
:1017200043835483658376839087878392878187F9
:1017300010820895FC01138612860895CF93DF93DB
:101740009C01FB01DC011196CD91DC911297D583B0
:10175000C4838E819F81978386838E819F81DC01E4
:1017600015967C936E9314977F836E8333872287BD
:10177000F90180818F5F8083DF91CF910895EF928F
:10178000FF920F931F93CF93DF937C01FB01408166
:101790005181628173814F3F8FEF58076807780747
:1017A00021F4E701A985BA8512C0D70113961496D2
:1017B0008D919C911597EC01088119812A813B81BB
:1017C000401751076207730710F0DC01F0CF149641
:1017D0008D919C91159795838483EC01FF83EE8313
:1017E000B783A6831596FC93EE931497F386E2864F
:1017F000F70180818F5F8083DF91CF911F910F91DF
:10180000FF90EF900895CF93DF93FC01A285B385FD
:101810008481958126813781EC013F832E83C681A7
:10182000D7819D838C8311968D919C9112978E17F1
:101830009F0721F41296DC93CE931197138612869C
:101840008C9181508C93DF91CF910895A1E21A2E53
:10185000AA1BBB1BFD010DC0AA1FBB1FEE1FFF1F54
:10186000A217B307E407F50720F0A21BB30BE40BA4
:10187000F50B661F771F881F991F1A9469F76095EB
:101880007095809590959B01AC01BD01CF010895A5
:10189000EE0FFF1F0590F491E02D0994F894FFCF0F
:1018A00000008608800001000000FF5C035C03DB91
:1018B0000500000000040121028700A1009300E35D
:1018C0000000000000D7015461736B350049444C9F
:0218D0004500D1
:00000001FF
