:1000000059C0000039C400005EC400007AC000007E
:1000100078C0000076C0000074C00000B1C30000CA
:1000200070C000006EC000006CC00000D6C70000A9
:1000300068C0000066C0000064C0000062C000002C
:1000400074C400005EC0000085C10000B5C100009E
:1000500058C0000056C0000054C0000052C000004C
:1000600050C000004EC00000020000000800020165
:10007000000003040700000000000000000102046B
:10008000081020408001020408102001020408101A
:100090002004040404040404040202020202020311
:1000A000030303030300000000250028002B0000C9
:1000B0000A02760211241FBECFEFD8E0DEBFCDBF0B
:1000C00011E0A0E0B1E0E2E4F3E202C005900D929D
:1000D000A634B107D9F728E0A6E4B1E001C01D922B
:1000E000AD3AB207E1F710E0CAE5D0E004C02197CD
:1000F000FE010E949011C835D107C9F70CD40C94A9
:100100009F117ECFFC01918D228D892F90E0805C24
:100110009F4F821B91098F7399270895FC01918D40
:10012000828D981731F0828DE80FF11D858D90E05A
:1001300008958FEF9FEF0895FC01918D828D9817A0
:1001400061F0828DDF01A80FB11D5D968C91928DBB
:100150009F5F9F73928F90E008958FEF9FEF0895B8
:1001600081E092E0892B41F080E090E0892B21F042
:1001700048D181110C9400000895FC01848DDF01A9
:10018000A80FB11DA35ABF4F2C91848D90E001960A
:100190008F739927848FA689B7892C93A089B189F9
:1001A0008C9180648C93938D848D981306C0028803
:1001B000F389E02D80818F7D80830895CF93DF9335
:1001C000EC01888D8823C1F0EA89FB89808185FD57
:1001D00005C0A889B9898C9186FD0EC00FB607FCB1
:1001E000F5CF808185FFF2CFA889B9898C9185FFF1
:1001F000EDCFCE01C2DFE8CFDF91CF910895EF922E
:10020000FF920F931F93CF93DF93EC0181E0888FD0
:100210009B8D8C8D981305C0E889F989808185FDB7
:1002200023C0F62E0B8D10E00F5F1F4F0F731127A9
:10023000E02E8C8DE8120BC00FB607FCFACFE889D0
:10024000F989808185FFF5CFCE0197DFF2CF8B8DC5
:10025000FE01E80FF11DE35AFF4FF0820B8FEA8990
:10026000FB898081806207C0EE89FF896083E8890D
:10027000F98980818064808381E090E0DF91CF9173
:100280001F910F91FF90EF900895CF92DF92EF9220
:10029000FF921F93CF93DF93EC016A017B01122F32
:1002A000E889F98982E080834115514E6105710525
:1002B000B1F060E079E08DE390E0A70196010E9443
:1002C0006E11DA01C9010197A109B109B695A79587
:1002D00097958795AC01411580E15807A8F0E8890A
:1002E000F989108260E874E88EE190E0A701960138
:1002F0000E946E11BA01A9014150510961097109A9
:100300007695679557954795EC85FD855083EE85E5
:10031000FF854083188EEC89FD891083EA89FB896B
:10032000808180618083EA89FB8980818860808305
:10033000EA89FB89808180688083EA89FB898081E2
:100340008F7D8083DF91CF911F91FF90EF90DF90A1
:10035000CF9008951F920F920FB60F9211242F93F2
:100360008F939F93EF93FF93E0915601F091570184
:100370008081E0915C01F0915D0182FD12C090816D
:1003800080915F018F5F8F7320916001821751F020
:10039000E0915F01F0E0EA5BFE4F958F80935F0193
:1003A00001C08081FF91EF919F918F912F910F90CC
:1003B0000FBE0F901F9018951F920F920FB60F92BD
:1003C00011242F933F934F935F936F937F938F935A
:1003D0009F93AF93BF93EF93FF9386E491E0CDDEBD
:1003E000FF91EF91BF91AF919F918F917F916F910D
:1003F0005F914F913F912F910F900FBE0F901F90E3
:10040000189586E491E07EDE21E0892B09F420E056
:10041000822F0895E6E4F1E01382128288EE93E0E1
:10042000A0E0B0E084839583A683B7838AE191E05E
:100430009183808385EC90E09587848784EC90E0BD
:100440009787868780EC90E0918B808B81EC90E0A1
:10045000938B828B82EC90E0958B848B86EC90E082
:10046000978B868B118E128E138E148E08958F9219
:100470009F92AF92BF92CF92DF92EF92FF920F9333
:100480001F93CF93DF937C018B016C0182E0C80E38
:10049000D11C4701E5E08E0E911CC0E0D0E0F601D2
:1004A00061916F014AE050E0C80130D15C016EE219
:1004B000C80167D08A0D9B1DC80FD91FC814D90465
:1004C00071F74AE050E0F7016581C8011FD18C0F38
:1004D0009D1FDF91CF911F910F91FF90EF90DF90C3
:1004E000CF90BF90AF909F908F900895E3EEF1E092
:1004F0008AE291E0918380831282138214821582B2
:100500000895CF92DF92EF92FF920F931F93CF93B4
:10051000DF936C017A018B01C0E0D0E0CE15DF05DE
:1005200089F0D8016D918D01D601ED91FC9101907A
:10053000F081E02DC6010995892B11F47E0102C0DE
:100540002196ECCFC701DF91CF911F910F91FF90C2
:10055000EF90DF90CF9008956115710579F0FB0160
:1005600001900020E9F73197AF01461B570BDC01E2
:10057000ED91FC910280F381E02D099480E090E000
:100580000895DC01ED91FC910190F081E02D09943A
:100590006CE271E0E1CF8F929F92AF92BF92CF92C7
:1005A000DF92EF92FF920F931F93CF93DF93CDB71C
:1005B000DEB7A1970FB6F894DEBF0FBECDBF7C01AA
:1005C000D42EC52EDB0119A2223008F42AE08E01B8
:1005D0000F5D1F4F822E912CA12CB12C6D2D7C2DE7
:1005E000CD01A50194010E946E11D22EC32EDA0115
:1005F000015011096A3071058105910510F4605DA3
:1006000001C0695CF8016083232B242B252B31F773
:10061000B801C701A1DFA1960FB6F894DEBF0FBEE7
:10062000CDBFDF91CF911F910F91FF90EF90DF90A1
:10063000CF90BF90AF909F908F900895CF92DF9210
:10064000EF92FF920F931F93CF93DF93EC016A0118
:100650007B012115310579F4E881F9810190F08160
:10066000E02D642FDF91CF911F910F91FF90EF90BC
:10067000DF90CF9009942A303105D9F477FF18C064
:100680006DE27FDF8C0144275527BA014C195D09C3
:100690006E097F092AE0CE017EDF800F911FDF9176
:1006A000CF911F910F91FF90EF90DF90CF90089521
:1006B0002AE0B701A601CE01DF91CF911F910F91E2
:1006C000FF90EF90DF90CF9066CF0F931F93CF9363
:1006D000DF93EC019A01AB01770F660B770BAEDF6E
:1006E0008C01CE0155DF800F911FDF91CF911F91BB
:1006F0000F9108952115310541F4DC01ED91FC9134
:100700000190F081E02D642F099445CF9A01462F86
:1007100050E060E070E0EECF813039F018F08230C8
:1007200051F0089510926E00089580916F008D7FB2
:1007300080936F000895809170008D7F809370008A
:1007400081E08093B0008091B100887F84608093C5
:10075000B1001092B3000895CF93C82F80910A0181
:100760008C1307C0E8E6F0E0E4918FEF80930A0174
:1007700001C0EFEF8E2FD0DF60E08C2FCF91ACC1A6
:100780001F920F920FB60F9211242F933F934F9306
:100790005F936F937F938F939F93AF93BF93EF93E9
:1007A000FF938091EC019091ED01A091EE01B09149
:1007B000EF01892B8A2B8B2B51F18091E901E0917C
:1007C000EA01F091EB019081892780838091EC010F
:1007D0009091ED01A091EE01B091EF01181619066C
:1007E0001A061B06BCF48091EC019091ED01A091DA
:1007F000EE01B091EF010197A109B1098093EC01DD
:100800009093ED01A093EE01B093EF0103C08091AE
:100810000A01A2DFFF91EF91BF91AF919F918F915C
:100820007F916F915F914F913F912F910F900FBEEC
:100830000F901F90189508958230E8F4E82FF0E0AB
:10084000EE0FFF1FE55FFE4F71836083813041F043
:10085000809169008C7F482B40936900E89A089545
:1008600080916900440F551F440F551F837F482B0B
:1008700040936900E99A08951F920F920FB60F9264
:1008800011242F933F934F935F936F937F938F9395
:100890009F93AF93BF93EF93FF93E0910B01F09180
:1008A0000C010995FF91EF91BF91AF919F918F91AD
:1008B0007F916F915F914F913F912F910F900FBE5C
:1008C0000F901F9018951F920F920FB60F92112440
:1008D0002F933F934F935F936F937F938F939F9348
:1008E000AF93BF93EF93FF93E0910D01F0910E0151
:1008F0000995FF91EF91BF91AF919F918F917F915A
:100900006F915F914F913F912F910F900FBE0F907C
:100910001F90189508955FD0FDDFB6D1C0EBD0E0F1
:10092000E4D12097E9F31CDCFBCF1F920F920FB6A6
:100930000F9211242F933F938F939F93AF93BF9365
:100940008091F1019091F201A091F301B091F40135
:100950003091F00123E0230F2D3720F40196A11DE3
:10096000B11D05C026E8230F0296A11DB11D2093DD
:10097000F0018093F1019093F201A093F301B09301
:10098000F4018091F5019091F601A091F701B091E9
:10099000F8010196A11DB11D8093F5019093F60118
:1009A000A093F701B093F801BF91AF919F918F9100
:1009B0003F912F910F900FBE0F901F9018952FB75A
:1009C000F8946091F1017091F2018091F30190919E
:1009D000F4012FBF0895789484B5826084BD84B5F6
:1009E000816084BD85B5826085BD85B5816085BD2A
:1009F000EEE6F0E0808181608083E1E8F0E0108243
:100A0000808182608083808181608083E0E8F0E083
:100A1000808181608083E1EBF0E08081846080836D
:100A2000E0EBF0E0808181608083EAE7F0E08081A4
:100A30008460808380818260808380818160808304
:100A40008081806880831092C10008958E3008F004
:100A50008E50877020910F0190E4299F90011124FE
:100A6000822B80937C0080917A00806480937A004E
:100A700080917A0086FDFCCF8091780020917900EA
:100A800090E0922B0895833081F028F4813099F022
:100A90008230A1F008958730A9F08830B9F0843011
:100AA000D1F4809180008F7D03C0809180008F778A
:100AB00080938000089584B58F7702C084B58F7DC0
:100AC00084BD08958091B0008F7703C08091B000FD
:100AD0008F7D8093B00008951F93CF93DF93282FCD
:100AE00030E0F901E759FF4F8491F901E358FF4FD6
:100AF000D491F901EF56FF4FC491CC23C1F0162FCA
:100B00008111C1DFEC2FF0E0EE0FFF1FEB55FF4F1F
:100B1000A591B4918FB7F894111105C09C91ED2F58
:100B2000E095E92302C0EC91ED2BEC938FBFDF91B0
:100B3000CF911F910895CF93DF9300D000D0CDB710
:100B4000DEB7BCD669837A838B839C8300E02FEF6A
:100B50003FEFA90160E070E08091080290910902E6
:100B60004AD42FEF3FEFA90160E070E080910A02C4
:100B700090910B0240D48091060290910702009759
:100B800039F022E030E040E050E06AEF71E033D429
:100B90006091FA017091FB014AE050E086E491E037
:100BA00094DD00E020E030E0A90160E070E0809199
:100BB0000A0290910B0232D320E030E0A90160E0FC
:100BC00070E0809108029091090228D348EB5BE025
:100BD00060E070E0CE010196B7D7B8CFCF92DF9238
:100BE000EF92FF920F931F93EADE609302027093DD
:100BF000030280930402909305021092F901009180
:100C0000FE011091FF0120910002309101026B0161
:100C10007C01C01AD10AE20AF30A00911001109176
:100C2000110120911201309113010C151D052E05A3
:100C30003F05F0F46093FE017093FF018093000282
:100C4000909301028091060290910702892B81F016
:100C500080E0FCDE9093FD018093FC0120E049EFF1
:100C600051E06CEF71E0809106029091070297D3FA
:100C70008091F901813009F4FED01F910F91FF900E
:100C8000EF90DF90CF9008950F9326E040E052EC74
:100C900061E070E086E491E0F8DA43E050E06EEE67
:100CA00075E080E0C9DD81E04FD390930B02809323
:100CB0000A0264E084E0A7D29093090280930802BC
:100CC00000E020E030E0A90160E070E080910A02DD
:100CD00090910B02A3D240E062E084E062D2909354
:100CE0000702809306020F910895AF92BF92CF92B0
:100CF000DF92EF92FF920F93A12CB12CC12CD12C3B
:100D0000E12CF12C01E020E030E048EC50E06BE316
:100D100071E08BE995E095D40F91FF90EF90DF9013
:100D2000CF90BF90AF9085C531E1FC013083319702
:100D300022E220833197A3E3A08331976083319728
:100D4000708331971082319760E860833197108209
:100D5000319762E06083319763E06083319764E0AC
:100D60006083319765E06083319766E060833197F7
:100D700067E06083319768E06083319769E0608362
:100D8000319760E1608331973083319732E130836E
:100D9000319733E13083319734E13083319735E156
:100DA0003083319736E13083319737E130833197A3
:100DB00038E13083319739E13083319730E2308345
:100DC000319731E2308331972083319723E22083BA
:100DD0003197408331975083319726E220833197B2
:100DE00027E22083319728E22083319729E220836C
:100DF000319720E32083319721E32083869708955C
:100E000089E08093890083EC809388008BE0809355
:100E10008100EFE6F0E0808182608083A091C602CD
:100E2000B091C702CD91CDBFDD91DEBFFF91EF91B3
:100E3000DF91CF91BF91AF919F918F917F916F91F2
:100E40005F914F913F912F911F910F91FF90EF90E4
:100E5000DF90CF90BF90AF909F908F907F906F90DA
:100E60005F904F903F902F901F900F900FBE0F906C
:100E7000089581E008950F920FB6F8940F921F9293
:100E800011242F923F924F925F926F927F928F9296
:100E90009F92AF92BF92CF92DF92EF92FF920F9309
:100EA0001F932F933F934F935F936F937F938F93F2
:100EB0009F93AF93BF93CF93DF93EF93FF93A09153
:100EC000C602B091C7020DB60D920EB60D92D1D6E4
:100ED000A091C602B091C702CD91CDBFDD91DEBF1A
:100EE000FF91EF91DF91CF91BF91AF919F918F9142
:100EF0007F916F915F914F913F912F911F910F9132
:100F0000FF90EF90DF90CF90BF90AF909F908F9029
:100F10007F906F905F904F903F902F901F900F9019
:100F20000FBE0F9008950F920FB6F8940F921F9274
:100F300011242F923F924F925F926F927F928F92E5
:100F40009F92AF92BF92CF92DF92EF92FF920F9358
:100F50001F932F933F934F935F936F937F938F9341
:100F60009F93AF93BF93CF93DF93EF93FF93A091A2
:100F7000C602B091C7020DB60D920EB60D92ACD45A
:100F8000811177D6A091C602B091C702CD91CDBF95
:100F9000DD91DEBFFF91EF91DF91CF91BF91AF91D6
:100FA0009F918F917F916F915F914F913F912F9181
:100FB0001F910F91FF90EF90DF90CF90BF90AF9077
:100FC0009F908F907F906F905F904F903F902F9069
:100FD0001F900F900FBE0F900895A5DF18951F93D7
:100FE000CF93DF93EC01142F88A181110BC088816E
:100FF0009981892B09F041C08A819B81CCD71B82C2
:101000001A823CC0482F50E0111115C08C819D817F
:101010000E94961128A18C819D81820F911D9D8334
:101020008C832A813B818217930738F188819981CB
:101030009D838C8322C08E819F810E94961188A1FE
:1010400090E09195819591092E813F81280F391F5C
:101050003F832E83488159812417350730F42A8134
:101060003B81820F931F9F838E83123031F48E8DCC
:10107000882319F08E8D81508E8F80E09E8D9F5F2A
:101080009E8FDF91CF911F910895FC01CB0140A16C
:101090004423A1F050E026813781240F351F378388
:1010A0002683628173812617370720F020813181E2
:1010B00037832683668177810C94961108950F9368
:1010C0001F93CF93DF93EC010FB6F8940F928C012E
:1010D0000D5E1F4F9AA119165CF48B89882341F08D
:1010E000C8014DD68111F4D69AA191509AA3F2CF9E
:1010F0008FEF8AA30F900FBE0FB6F8940F928E0158
:10110000085F1F4F99A119165CF48885882341F068
:10111000C80135D68111DCD699A1915099A3F2CF9F
:101120008FEF89A30F900FBEDF91CF911F910F9189
:101130000895CF93DF93EC010FB6F8940F922881B6
:1011400039819F8D48A1949FC0011124F901E80FB6
:10115000F91FFB83EA831E8E3D832C83841B910938
:10116000820F931F9F838E838FEF89A38AA36111C0
:101170000AC08885882379F0CE01089600D6813090
:1011800051F479DE08C0CE0108960E94D110CE013C
:1011900043960E94D1100F900FBE81E0DF91CF9156
:1011A0000895EF92FF921F93CF93DF931F92CDB7D5
:1011B000DEB7182F662331F0869F90011124C901F4
:1011C000019602C080E090E08396698330D77C016D
:1011D0006981009781F0611104C0FC0191838083D3
:1011E00004C08396F70191838083F701178F60A372
:1011F00061E0C7019EDFC7010F90DF91CF911F9182
:10120000FF90EF900895CF93C62F42E060E0C9DFD2
:10121000009711F0FC01C68FCF910895AF92BF9255
:10122000CF92DF92EF92FF920F93CF93DF93CDB7E0
:10123000DEB729970FB6F894DEBF0FBECDBF7C0195
:101240006B012E833F834887598790E0570188E0E0
:10125000A80EB11C0FB6F8940F92F701268D878D5A
:10126000281710F00230A9F4402FB601C701B7DEED
:10127000F7019389992339F0C701439680D58130CE
:1012800021F4F9DD02C08111FCCF0F900FBE81E087
:101290004BC04E815F8168857985452B462B472B56
:1012A00019F40F900FBE3FC0911103C0CE010196FB
:1012B000A3D50F900FBEFCD20FB6F8940F92F70192
:1012C00081A18F3F09F411A2F70182A18F3F09F498
:1012D00012A20F900FBEBE016A5F7F4FCE01019632
:1012E0009CD581111DC00FB6F8940F92F701968D11
:1012F0000F900FBE878D98130FC04E815F81688558
:101300007985C50102D5C701DADEB3D3882311F090
:1013100091E0A0CFB0DDFCCFC701D1DEAAD3F8CFDA
:10132000C701CDDEA6D380E029960FB6F894DEBFC4
:101330000FBECDBFDF91CF910F91FF90EF90DF9067
:10134000CF90BF90AF9008950F93CF93DF9383E238
:1013500090E06DD6EC01892BE9F01B821A8219828C
:1013600018821D821C821F821E821E8E81E08F8F3A
:1013700018A28FEF89A38AA3CE01089612D7CE01B7
:1013800043960FD700E020E030E0A90160E070E074
:10139000CE0144DFCE01DF91CF910F9108950F93DD
:1013A0001F93CF93DF93EC019E8D8F8D981710F0D4
:1013B0002230D9F48A01422FCE0111DE8AA18F3F5B
:1013C00079F48B89882379F0CE014396D8D4882389
:1013D00051F00115110539F081E0F801808306C054
:1013E0008AA18F5F8AA381E001C080E0DF91CF9165
:1013F0001F910F910895AF92BF92CF92DF92EF921B
:10140000FF920F93CF93DF93CDB7DEB729970FB637
:10141000F894DEBF0FBECDBF7C016B012E833F83EE
:101420004887598790E0570183E1A80EB11C0FB699
:10143000F8940F92F701868D882361F1A680B7801A
:10144000B601C70122DEF701011116C0868D815059
:10145000868F80819181892B21F4D7D5F7019383E1
:101460008283F7018085882389F0C701089687D495
:10147000813061F400DD0AC0B782A68283898823A7
:1014800029F0C70143967BD48111F4CF0F900FBE92
:1014900081E056C04E815F8168857985452B462B5A
:1014A000472B19F40F900FBE4AC0911103C0CE0113
:1014B0000196A2D40F900FBEFBD10FB6F8940F92F5
:1014C000F70181A18F3F09F411A2F70182A18F3F9B
:1014D00009F412A20F900FBEBE016A5F7F4FCE01CA
:1014E00001969BD4811128C00FB6F8940F92F70192
:1014F000868D0F900FBE81111BC080819181892B39
:1015000041F40FB6F8940F9282819381E5D40F9045
:101510000FBE4E815F8168857985C501F6D3C7010D
:10152000CEDDA7D2882311F091E081CFA4DCFCCFDF
:10153000C701C5DD9ED2F8CFC701C1DD9AD280E0D8
:1015400029960FB6F894DEBF0FBECDBFDF91CF91C5
:101550000F91FF90EF90DF90CF90BF90AF900895E4
:10156000E0914002F09141028081811104C08FEF2F
:101570009FEFDC010EC0E0914002F0914102078034
:10158000F085E02D0084F185E02D82819381A48196
:10159000B58180930D0290930E02A0930F02B09339
:1015A00010020895CF92DF92EF92FF92E091C6026F
:1015B000F091C7026283738384839583C09017027E
:1015C000D0901802E0901902F0901A026C157D0577
:1015D0008E059F0578F46091C6027091C7028091D4
:1015E0003E0290913F026E5F7F4FFF90EF90DF9041
:1015F000CF900DC66B017C016091C6027091C7024D
:1016000080914002909141026E5F7F4F00D68091A1
:101610000D0290910E02A0910F02B0911002C81617
:10162000D906EA06FB0640F4C0920D02D0920E02E3
:10163000E0920F02F0921002FF90EF90DF90CF90B7
:1016400008955F926F927F928F929F92AF92BF9216
:10165000CF92DF92EF92FF920F931F93CF93DF937E
:101660004C01162F572E5A013901C114D10431F4FF
:10167000CA01DDD46C01892B09F4CAC08CE290E068
:10168000D6D4EC01009779F0DC8ECB8E21E0A21A43
:10169000B108AC0CBD1CBC01635E7F4FE12FF52D82
:1016A000CF01089606C0C60152D5B2C0E817F907A7
:1016B00049F09F014191DB014D93BD01D9012C916E
:1016C0002111F4CF1CA2102F0A3008F019E01A8F54
:1016D0001DA31EA26E01B2E0CB0ED11CC60172D5B5
:1016E000CE010E966FD5DB87CA878AE090E0A0E036
:1016F000B0E0811B9109A109B1098E879F87A88B52
:10170000B98BDF8BCE8B1FA218A619A61AA61BA613
:10171000A301B401C50108DB99838883E114F104B6
:1017200019F0F701D183C0830FB6F8940F9280911E
:101730001B028F5F80931B028091C6029091C702AB
:10174000892B99F5D093C702C093C60280911B02E2
:10175000813009F039C088E5E82E82E0F82EC70113
:1017600020D5FBE0EF0EF11C26ECE21622E0F2069B
:10177000B1F78DE492E015D582E492E012D583E3CF
:1017800092E00FD588E292E00CD58CE192E009D589
:101790008DE492E0909341028093400282E492E0D3
:1017A00090933F0280933E020FC0809115028111F9
:1017B0000BC0E091C602F091C702828D081720F09D
:1017C000D093C702C093C602809111028F5F8093AD
:1017D00011028A8D90911602981710F480931602C8
:1017E000ABE08A9FC0011124B601885A9D4FEED408
:1017F0000F900FBE80911502882341F0E091C60240
:10180000F091C702828D801708F435DB81E001C0BA
:101810008FEFDF91CF911F910F91FF90EF90DF90AD
:10182000CF90BF90AF909F908F907F906F905F9080
:101830000895AF92BF92CF92DF92EF92FF920F93F3
:10184000A12CB12CC12CD12CE12CF12C00E020E0FA
:1018500030E045E550E061E471E08BE09EE0F1DED0
:101860008130F1F4F8944FEF5FEFBA0140930D022D
:1018700050930E0260930F02709310028093150232
:1018800010921702109218021092190210921A0266
:101890000F91FF90EF90DF90CF90BF90AF90B0CAC4
:1018A0000F91FF90EF90DF90CF90BF90AF90089591
:1018B00080910C028F5F80930C0208950FB6F8940C
:1018C0000F92609117027091180280911902909105
:1018D0001A020F900FBE08958F929F92AF92BF92FF
:1018E000EF92FF920F931F93CF93DF9380910C029F
:1018F0008111A9C08091170290911802A09119023C
:10190000B0911A020196A11DB11D80931702909308
:101910001802A0931902B0931A02809017029090B7
:101920001802A0901902B0901A0281149104A10427
:10193000B104B1F4809140029091410220913E02A5
:1019400030913F02309341022093400290933F0236
:1019500080933E02809112028F5F8093120200DE1C
:1019600080910D0290910E02A0910F02B091100291
:10197000C0E088169906AA06BB0608F454C0DBE04E
:10198000E0914002F09141028081811104C08FEF0B
:101990009FEFDC0113C0E0914002F091410207800B
:1019A000F085E02D00851185F80182819381A48165
:1019B000B58188169906AA06BB0648F480930D02E5
:1019C00090930E02A0930F02B09310022CC07801E6
:1019D000F2E0EF0EF11CC7015ED4D80158968D914C
:1019E0009C915997892B19F0C8010E9654D4F8018F
:1019F000928D80911602891710F490931602D99F48
:101A0000C0011124B701885A9D4FE0D3E091C6026E
:101A1000F091C702D8015A969C91828D981708F4CC
:101A2000AFCFC1E0ADCFE091C602F091C702E28D29
:101A3000BBE0EB9FF0011124E85AFD4F808182301A
:101A400040F0C1E006C0809114028F5F80931402C1
:101A5000C0E0809113028111C1E08C2FDF91CF9102
:101A60001F910F91FF90EF90BF90AF909F908F903C
:101A70000895EF92FF920F931F93CF93DF930FB6CA
:101A8000F8940F9280910C02815080930C02809107
:101A90000C02882311F080E04EC080911B02882345
:101AA000D1F38BE0F82EEE24E39480913302882367
:101AB00039F1E0913A02F0913B02C085D185CE0127
:101AC0000E96E9D38E010E5F1F4FC801E4D39A8DA5
:101AD00080911602891710F490931602F99EC001A6
:101AE0001124B801885A9D4F71D3E091C602F0913C
:101AF000C7029A8D828D9817C0F2E0921302D5CF5B
:101B000080911402811108C080911302813009F084
:101B1000C2CFB1D981E00FC0C1E080911402882307
:101B200099F3DADE8111C09313028091140281507F
:101B300080931402F2CF0F900FBEDF91CF911F91CF
:101B40000F91FF90EF900895AF92BF92CF92DF92E6
:101B5000EF92FF920F931F93CF93DF9300D000D0AB
:101B6000CDB7DEB75C0149835A836B837C83A0DEEB
:101B700000911702109118022091190230911A0257
:101B8000F50180819181A281B38149815A816B8164
:101B90007C816C017D01C40ED51EE61EF71E081760
:101BA00019072A073B0730F4C816D906EA06FB06D0
:101BB00060F405C0C816D906EA06FB0640F091E0BD
:101BC0000C151D052E053F0518F090E001C091E0B1
:101BD000F501C082D182E282F382992349F080919B
:101BE000C6029091C702029656D3C701B601DADC4D
:101BF00040DF811101C03FD90F900F900F900F90DF
:101C0000DF91CF911F910F91FF90EF90DF90CF90D8
:101C1000BF90AF90089580912702882321F148DE7C
:101C2000C091280226DFCC23B1F30FB6F8940F92AF
:101C3000E0912F02F0913002C085D185CE0102964D
:101C40002AD380911B02815080931B02809127022E
:101C50008150809327020F900FBE8B8D9C8D77D281
:101C6000CE0175D2D8CF809158028230A0F203D92C
:101C7000D2CF80910C02882321F081E0809313025F
:101C80000895109213029BE0E09116029E9FF001CE
:101C90001124E85AFD4F8081811106C080911602FF
:101CA000815080931602F0CF8091160290E04BE0B5
:101CB000489F9001499F300D1124F901E85AFD4FCA
:101CC000A181B28114960D90BC91A02DB283A18305
:101CD000255A3D4FA217B30731F414962D913C912C
:101CE0001597328321832BE0289FF001299FF00D67
:101CF0001124E85AFD4F0180F281E02D8085918505
:101D00009093C7028093C6020895CF92DF92EF921C
:101D1000FF926A017B012091C6023091C702B9018E
:101D2000625F7F4F74D28091C6029091C702029683
:101D3000B2D28FEFC816D806E806F80669F46091AB
:101D4000C6027091C7026E5F7F4F8CE192E0FF90F8
:101D5000EF90DF90CF903AC28091170290911802D5
:101D6000A0911902B0911A02BC01CD016C0D7D1D2C
:101D70008E1D9F1DFF90EF90DF90CF9013CC0F939F
:101D80001F93CF93DF93DC011796ED91FC91189789
:101D9000C085D1858E01025F1F4FC8017CD2809122
:101DA0000C02811113C00C501109C80174D29A8D14
:101DB00080911602891710F490931602BBE09B9F46
:101DC000C0011124B801885A9D4F03C0B80183E3B4
:101DD00092E0FCD1E091C602F091C7029A8D828D0B
:101DE000891720F481E08093130201C080E0DF9125
:101DF000CF911F910F91089520911202FC01208331
:101E000040911702509118026091190270911A02C4
:101E1000418352836383748308958F929F92AF921C
:101E2000BF92CF92DF92EF92FF920F931F93CF93C7
:101E3000DF93FB010FB6F8940F92C0901702D09079
:101E40001802E0901902F0901A02408151816281DB
:101E500073814F3F2FEF52076207720739F1B0913C
:101E60001202EC01A88109811A812B813C81BA17E9
:101E700029F0C016D106E206F306D0F44601570158
:101E8000801A910AA20AB30A84169506A606B70616
:101E900078F40C191D092E093F09400F511F621FCC
:101EA000731F4083518362837383A6DF80E001C088
:101EB00081E00F900FBEDF91CF911F910F91FF90A6
:101EC000EF90DF90CF90BF90AF909F908F9008954C
:101ED00081E08093130208950F931F93CF93DF93B4
:101EE000FC01892B09F452C0828DA091C602B091E9
:101EF000C7025A969C91891708F048C046855785B5
:101F00006089718977FD12C0A091C602B091C702A5
:101F10005A969C914AE050E060E070E0491B5109FC
:101F20006109710946875787608B718B2BE0829F0F
:101F3000C0011124885A9D4F2485358528173907FB
:101F4000F1F48F01EF012296CE01A5D1E091C602F6
:101F5000F091C702928DF801928F80911602891735
:101F600010F490931602FBE09F9FC0011124BE0164
:101F7000885A9D4FDF91CF911F910F9127C1A0915A
:101F8000C602B091C7025A968C91828FDF91CF9191
:101F90001F910F9108950F931F93CF93DF93FC012F
:101FA000892B11F480E02CC086A1815086A3228D5C
:101FB00095A12917B9F38111F5CFEF018F010E5FBC
:101FC0001F4FC80168D19DA19A8F4AE050E060E0A0
:101FD00070E0491B5109610971094E875F87688B61
:101FE000798B80911602891710F4909316022BE0DA
:101FF000929FC0011124B801885A9D4FE7D081E01B
:10200000DF91CF911F910F9108958091C602909119
:10201000C702892B39F0E091C602F091C70286A170
:102020008F5F86A38091C6029091C70208950F9397
:102030001F93CF93DF93EC013BDC8091C8028111A9
:1020400021C082ED92E09093CE028093CD02109257
:10205000D0021092CF028BED95E09093CC0280934A
:10206000CB021092CA021092C9029093D5028093BB
:10207000D40289EC92E09093D3028093D20281E063
:102080008093C802209709F02496CE0101978A3DDB
:10209000954008F053C0E091CD02F091CE02ADEC36
:1020A000B2E0828193818C179D0728F022E0E93C01
:1020B000F20749F443C02081318121153105B1F384
:1020C000DF01F901EECF0D911C9111970C5F1F4FAD
:1020D000208131812D933C938C1B9D0B8930910580
:1020E00000F1DF01AC0FBD1F13969C938E931297E6
:1020F000D383C28312962D913C9113976DEC72E0BD
:10210000EB0188819981EC014A815B814217530779
:1021100010F4BC01F5CF11969C938E93EB01B9831B
:10212000A883809114019091150122813381821B33
:10213000930B909315018093140102C000E010E00E
:1021400098DCC801DF91CF911F910F910895CF9333
:10215000DF93009719F1EC012497AADB8A819B8118
:10216000EDECF2E0A081B18112962D913C91139794
:102170002817390710F4FD01F5CFB983A883D1835F
:10218000C0832091140130911501820F931F909309
:10219000150180931401DF91CF916BCCDF91CF912A
:1021A0000895FC010396928381834FEF5FEFBA019C
:1021B000438354836583768390878783928781875F
:1021C00010820895FC01138612860895CF93DF9341
:1021D0009C01FB01DC011196CD91DC911297D58316
:1021E000C4838E819F81978386838E819F81DC014A
:1021F00015967C936E9314977F836E833387228723
:10220000F90180818F5F8083DF91CF910895EF92F4
:10221000FF920F931F93CF93DF937C01FB014081CB
:102220005181628173814F3F8FEF580768077807AC
:1022300021F4E701A985BA8512C0D7011396149637
:102240008D919C911597EC01088119812A813B8120
:10225000401751076207730710F0DC01F0CF1496A6
:102260008D919C91159795838483EC01FF83EE8378
:10227000B783A6831596FC93EE931497F386E286B4
:10228000F70180818F5F8083DF91CF911F910F9144
:10229000FF90EF900895CF93DF93FC01A285B38563
:1022A0008481958126813781EC013F832E83C6810D
:1022B000D7819D838C8311968D919C9112978E1757
:1022C0009F0721F41296DC93CE9311971386128602
:1022D0008C9181508C93DF91CF910895A1E21A2EB9
:1022E000AA1BBB1BFD010DC0AA1FBB1FEE1FFF1FBA
:1022F000A217B307E407F50720F0A21BB30BE40B0A
:10230000F50B661F771F881F991F1A9469F7609550
:102310007095809590959B01AC01BD01CF0108950A
:10232000EE0FFF1F0590F491E02D0994FB01DC01F5
:1023300002C001900D9241505040D8F70895F89492
:02234000FFCFCD
:102342000000AD08800001000000FF1B041B040117
:10235200C8000000DB0500000000FF0081028200CF
:102362009C008E00DE000000000037020D0A006EA5
:10237200616E00696E66006F7666005461736B323F
:062382000049444C450037
:00000001FF
