:1000000059C0000039C400005EC400007AC000007E
:1000100078C0000076C0000074C00000B1C30000CA
:1000200070C000006EC000006CC00000E7C7000098
:1000300068C0000066C0000064C0000062C000002C
:1000400074C400005EC0000085C10000B5C100009E
:1000500058C0000056C0000054C0000052C000004C
:1000600050C000004EC00000020000000800020165
:10007000000003040700000000000000000102046B
:10008000081020408001020408102001020408101A
:100090002004040404040404040202020202020311
:1000A000030303030300000000250028002B0000C9
:1000B0000A02760211241FBECFEFD8E0DEBFCDBF0B
:1000C00011E0A0E0B1E0E2E5F3E202C005900D929C
:1000D000A634B107D9F728E0A6E4B1E001C01D922B
:1000E000AF3AB207E1F710E0CAE5D0E004C02197CB
:1000F000FE010E949811C835D107C9F70CD40C94A1
:10010000A7117ECFFC01918D228D892F90E0805C1C
:100110009F4F821B91098F7399270895FC01918D40
:10012000828D981731F0828DE80FF11D858D90E05A
:1001300008958FEF9FEF0895FC01918D828D9817A0
:1001400061F0828DDF01A80FB11D5D968C91928DBB
:100150009F5F9F73928F90E008958FEF9FEF0895B8
:1001600081E092E0892B41F080E090E0892B21F042
:1001700048D181110C9400000895FC01848DDF01A9
:10018000A80FB11DA35ABF4F2C91848D90E001960A
:100190008F739927848FA689B7892C93A089B189F9
:1001A0008C9180648C93938D848D981306C0028803
:1001B000F389E02D80818F7D80830895CF93DF9335
:1001C000EC01888D8823C1F0EA89FB89808185FD57
:1001D00005C0A889B9898C9186FD0EC00FB607FCB1
:1001E000F5CF808185FFF2CFA889B9898C9185FFF1
:1001F000EDCFCE01C2DFE8CFDF91CF910895EF922E
:10020000FF920F931F93CF93DF93EC0181E0888FD0
:100210009B8D8C8D981305C0E889F989808185FDB7
:1002200023C0F62E0B8D10E00F5F1F4F0F731127A9
:10023000E02E8C8DE8120BC00FB607FCFACFE889D0
:10024000F989808185FFF5CFCE0197DFF2CF8B8DC5
:10025000FE01E80FF11DE35AFF4FF0820B8FEA8990
:10026000FB898081806207C0EE89FF896083E8890D
:10027000F98980818064808381E090E0DF91CF9173
:100280001F910F91FF90EF900895CF92DF92EF9220
:10029000FF921F93CF93DF93EC016A017B01122F32
:1002A000E889F98982E080834115514E6105710525
:1002B000B1F060E079E08DE390E0A70196010E9443
:1002C0007611DA01C9010197A109B109B695A7957F
:1002D00097958795AC01411580E15807A8F0E8890A
:1002E000F989108260E874E88EE190E0A701960138
:1002F0000E947611BA01A9014150510961097109A1
:100300007695679557954795EC85FD855083EE85E5
:10031000FF854083188EEC89FD891083EA89FB896B
:10032000808180618083EA89FB8980818860808305
:10033000EA89FB89808180688083EA89FB898081E2
:100340008F7D8083DF91CF911F91FF90EF90DF90A1
:10035000CF9008951F920F920FB60F9211242F93F2
:100360008F939F93EF93FF93E0915601F091570184
:100370008081E0915C01F0915D0182FD12C090816D
:1003800080915F018F5F8F7320916001821751F020
:10039000E0915F01F0E0EA5BFE4F958F80935F0193
:1003A00001C08081FF91EF919F918F912F910F90CC
:1003B0000FBE0F901F9018951F920F920FB60F92BD
:1003C00011242F933F934F935F936F937F938F935A
:1003D0009F93AF93BF93EF93FF9386E491E0CDDEBD
:1003E000FF91EF91BF91AF919F918F917F916F910D
:1003F0005F914F913F912F910F900FBE0F901F90E3
:10040000189586E491E07EDE21E0892B09F420E056
:10041000822F0895E6E4F1E01382128288EE93E0E1
:10042000A0E0B0E084839583A683B7838AE191E05E
:100430009183808385EC90E09587848784EC90E0BD
:100440009787868780EC90E0918B808B81EC90E0A1
:10045000938B828B82EC90E0958B848B86EC90E082
:10046000978B868B118E128E138E148E08958F9219
:100470009F92AF92BF92CF92DF92EF92FF920F9333
:100480001F93CF93DF937C018B016C0182E0C80E38
:10049000D11C4701E5E08E0E911CC0E0D0E0F601D2
:1004A00061916F014AE050E0C80130D15C016EE219
:1004B000C80167D08A0D9B1DC80FD91FC814D90465
:1004C00071F74AE050E0F7016581C8011FD18C0F38
:1004D0009D1FDF91CF911F910F91FF90EF90DF90C3
:1004E000CF90BF90AF909F908F900895E3EEF1E092
:1004F0008AE291E0918380831282138214821582B2
:100500000895CF92DF92EF92FF920F931F93CF93B4
:10051000DF936C017A018B01C0E0D0E0CE15DF05DE
:1005200089F0D8016D918D01D601ED91FC9101907A
:10053000F081E02DC6010995892B11F47E0102C0DE
:100540002196ECCFC701DF91CF911F910F91FF90C2
:10055000EF90DF90CF9008956115710579F0FB0160
:1005600001900020E9F73197AF01461B570BDC01E2
:10057000ED91FC910280F381E02D099480E090E000
:100580000895DC01ED91FC910190F081E02D09943A
:100590006CE271E0E1CF8F929F92AF92BF92CF92C7
:1005A000DF92EF92FF920F931F93CF93DF93CDB71C
:1005B000DEB7A1970FB6F894DEBF0FBECDBF7C01AA
:1005C000D42EC52EDB0119A2223008F42AE08E01B8
:1005D0000F5D1F4F822E912CA12CB12C6D2D7C2DE7
:1005E000CD01A50194010E947611D22EC32EDA010D
:1005F000015011096A3071058105910510F4605DA3
:1006000001C0695CF8016083232B242B252B31F773
:10061000B801C701A1DFA1960FB6F894DEBF0FBEE7
:10062000CDBFDF91CF911F910F91FF90EF90DF90A1
:10063000CF90BF90AF909F908F900895CF92DF9210
:10064000EF92FF920F931F93CF93DF93EC016A0118
:100650007B012115310579F4E881F9810190F08160
:10066000E02D642FDF91CF911F910F91FF90EF90BC
:10067000DF90CF9009942A303105D9F477FF18C064
:100680006DE27FDF8C0144275527BA014C195D09C3
:100690006E097F092AE0CE017EDF800F911FDF9176
:1006A000CF911F910F91FF90EF90DF90CF90089521
:1006B0002AE0B701A601CE01DF91CF911F910F91E2
:1006C000FF90EF90DF90CF9066CF0F931F93CF9363
:1006D000DF93EC019A01AB01770F660B770BAEDF6E
:1006E0008C01CE0155DF800F911FDF91CF911F91BB
:1006F0000F9108952115310541F4DC01ED91FC9134
:100700000190F081E02D642F099445CF9A01462F86
:1007100050E060E070E0EECF813039F018F08230C8
:1007200051F0089510926E00089580916F008D7FB2
:1007300080936F000895809170008D7F809370008A
:1007400081E08093B0008091B100887F84608093C5
:10075000B1001092B3000895CF93C82F80910A0181
:100760008C1307C0E8E6F0E0E4918FEF80930A0174
:1007700001C0EFEF8E2FD0DF60E08C2FCF91ACC1A6
:100780001F920F920FB60F9211242F933F934F9306
:100790005F936F937F938F939F93AF93BF93EF93E9
:1007A000FF938091EC019091ED01A091EE01B09149
:1007B000EF01892B8A2B8B2B51F18091E901E0917C
:1007C000EA01F091EB019081892780838091EC010F
:1007D0009091ED01A091EE01B091EF01181619066C
:1007E0001A061B06BCF48091EC019091ED01A091DA
:1007F000EE01B091EF010197A109B1098093EC01DD
:100800009093ED01A093EE01B093EF0103C08091AE
:100810000A01A2DFFF91EF91BF91AF919F918F915C
:100820007F916F915F914F913F912F910F900FBEEC
:100830000F901F90189508958230E8F4E82FF0E0AB
:10084000EE0FFF1FE55FFE4F71836083813041F043
:10085000809169008C7F482B40936900E89A089545
:1008600080916900440F551F440F551F837F482B0B
:1008700040936900E99A08951F920F920FB60F9264
:1008800011242F933F934F935F936F937F938F9395
:100890009F93AF93BF93EF93FF93E0910B01F09180
:1008A0000C010995FF91EF91BF91AF919F918F91AD
:1008B0007F916F915F914F913F912F910F900FBE5C
:1008C0000F901F9018951F920F920FB60F92112440
:1008D0002F933F934F935F936F937F938F939F9348
:1008E000AF93BF93EF93FF93E0910D01F0910E0151
:1008F0000995FF91EF91BF91AF919F918F917F915A
:100900006F915F914F913F912F910F900FBE0F907C
:100910001F90189508955FD0FDDFBFD1C0EBD0E0E8
:10092000F5D12097E9F31CDCFBCF1F920F920FB695
:100930000F9211242F933F938F939F93AF93BF9365
:100940008091F1019091F201A091F301B091F40135
:100950003091F00123E0230F2D3720F40196A11DE3
:10096000B11D05C026E8230F0296A11DB11D2093DD
:10097000F0018093F1019093F201A093F301B09301
:10098000F4018091F5019091F601A091F701B091E9
:10099000F8010196A11DB11D8093F5019093F60118
:1009A000A093F701B093F801BF91AF919F918F9100
:1009B0003F912F910F900FBE0F901F9018952FB75A
:1009C000F8946091F1017091F2018091F30190919E
:1009D000F4012FBF0895789484B5826084BD84B5F6
:1009E000816084BD85B5826085BD85B5816085BD2A
:1009F000EEE6F0E0808181608083E1E8F0E0108243
:100A0000808182608083808181608083E0E8F0E083
:100A1000808181608083E1EBF0E08081846080836D
:100A2000E0EBF0E0808181608083EAE7F0E08081A4
:100A30008460808380818260808380818160808304
:100A40008081806880831092C10008958E3008F004
:100A50008E50877020910F0190E4299F90011124FE
:100A6000822B80937C0080917A00806480937A004E
:100A700080917A0086FDFCCF8091780020917900EA
:100A800090E0922B0895833081F028F4813099F022
:100A90008230A1F008958730A9F08830B9F0843011
:100AA000D1F4809180008F7D03C0809180008F778A
:100AB00080938000089584B58F7702C084B58F7DC0
:100AC00084BD08958091B0008F7703C08091B000FD
:100AD0008F7D8093B00008951F93CF93DF93282FCD
:100AE00030E0F901E759FF4F8491F901E358FF4FD6
:100AF000D491F901EF56FF4FC491CC23C1F0162FCA
:100B00008111C1DFEC2FF0E0EE0FFF1FEB55FF4F1F
:100B1000A591B4918FB7F894111105C09C91ED2F58
:100B2000E095E92302C0EC91ED2BEC938FBFDF91B0
:100B3000CF911F910895CF93DF9300D000D0CDB710
:100B4000DEB7C4D669837A838B839C8300E02FEF62
:100B50003FEFA90160E070E08091080290910902E6
:100B600052D42FEF3FEFA90160E070E080910A02BC
:100B700090910B0248D48091060290910702009751
:100B800039F022E030E040E050E06AEF71E03BD421
:100B90006091FA017091FB014AE050E086E491E037
:100BA00094DD00E020E030E0A90160E070E0809199
:100BB0000A0290910B0242D320E030E0A90160E0EC
:100BC00070E0809108029091090238D348EB5BE015
:100BD00060E070E0CE010196BFD7B8CFCF92DF9230
:100BE000EF92FF920F931F93EADE609302027093DD
:100BF000030280930402909305021092F901009180
:100C0000FE011091FF0120910002309101026B0161
:100C10007C01C01AD10AE20AF30A00911001109176
:100C2000110120911201309113010C151D052E05A3
:100C30003F0538F56093FE017093FF018093000239
:100C4000909301028091060290910702892B91F006
:100C500080E0FCDE9093FD018093FC0100E022E047
:100C600030E040E050E06CEF71E08091060290913E
:100C70000702E4D269EF71E080910C0290910D02BD
:100C80009ED38091F901813009F406D11F910F9113
:100C9000FF90EF90DF90CF9008950F9326E040E013
:100CA00052EC61E070E086E491E0EFDA43E050E07E
:100CB0006EEE75E080E0C0DD43E060E081E081D26F
:100CC00090930D0280930C0281E04ED390930B021F
:100CD00080930A0264E084E0A6D290930902809394
:100CE000080200E020E030E0A90160E070E08091BF
:100CF0000A0290910B02A2D240E062E084E061D24D
:100D000090930702809306020F910895AF92BF92CD
:100D1000CF92DF92EF92FF920F93A12CB12CC12CB6
:100D2000D12CE12CF12C01E020E030E048EC50E047
:100D30006BE371E08BE995E08CD40F91FF90EF901D
:100D4000DF90CF90BF90AF907CC531E1FC01308344
:100D5000319722E220833197A3E3A0833197608308
:100D60003197708331971082319760E860833197B3
:100D70001082319762E06083319763E0608331973E
:100D800064E06083319765E06083319766E060835B
:100D9000319767E06083319768E06083319769E05D
:100DA0006083319760E1608331973083319732E11E
:100DB0003083319733E13083319734E13083319799
:100DC00035E13083319736E13083319737E1308335
:100DD000319738E13083319739E13083319730E210
:100DE0003083319731E2308331972083319723E28A
:100DF00020833197408331975083319726E22083B7
:100E0000319727E22083319728E22083319729E226
:100E10002083319720E32083319721E32083869735
:100E2000089589E08093890083EC809388008BE0AB
:100E300080938100EFE6F0E0808182608083A09162
:100E4000C802B091C902CD91CDBFDD91DEBFFF9147
:100E5000EF91DF91CF91BF91AF919F918F917F9152
:100E60006F915F914F913F912F911F910F91FF9043
:100E7000EF90DF90CF90BF90AF909F908F907F903A
:100E80006F905F904F903F902F901F900F900FBEEC
:100E90000F90089581E008950F920FB6F8940F9285
:100EA0001F9211242F923F924F925F926F927F92E6
:100EB0008F929F92AF92BF92CF92DF92EF92FF926A
:100EC0000F931F932F933F934F935F936F937F9352
:100ED0008F939F93AF93BF93CF93DF93EF93FF9342
:100EE000A091C802B091C9020DB60D920EB60D9236
:100EF000C8D6A091C802B091C902CD91CDBFDD91F5
:100F0000DEBFFF91EF91DF91CF91BF91AF919F91A4
:100F10008F917F916F915F914F913F912F911F9191
:100F20000F91FF90EF90DF90CF90BF90AF909F9088
:100F30008F907F906F905F904F903F902F901F9079
:100F40000F900FBE0F9008950F920FB6F8940F9266
:100F50001F9211242F923F924F925F926F927F9235
:100F60008F929F92AF92BF92CF92DF92EF92FF92B9
:100F70000F931F932F933F934F935F936F937F93A1
:100F80008F939F93AF93BF93CF93DF93EF93FF9391
:100F9000A091C802B091C9020DB60D920EB60D9285
:100FA000A3D481116ED6A091C802B091C902CD918F
:100FB000CDBFDD91DEBFFF91EF91DF91CF91BF916A
:100FC000AF919F918F917F916F915F914F913F91E1
:100FD0002F911F910F91FF90EF90DF90CF90BF90D6
:100FE000AF909F908F907F906F905F904F903F90C9
:100FF0002F901F900F900FBE0F900895A5DF1895AA
:101000001F93CF93DF93EC01142F88A181110BC0A4
:1010100088819981892B09F041C08A819B81C3D73E
:101020001B821A823CC0482F50E0111115C08C81E0
:101030009D810E949E1128A18C819D81820F911D0E
:101040009D838C832A813B818217930738F18881A5
:1010500099819D838C8322C08E819F810E949E11E5
:1010600088A190E09195819591092E813F81280F6B
:10107000391F3F832E83488159812417350730F467
:101080002A813B81820F931F9F838E83123031F41C
:101090008E8D882319F08E8D81508E8F80E09E8DED
:1010A0009F5F9E8FDF91CF911F910895FC01CB012F
:1010B00040A14423A1F050E026813781240F351F41
:1010C00037832683628173812617370720F02081BA
:1010D000318137832683668177810C949E11089530
:1010E0000F931F93CF93DF93EC010FB6F8940F92F9
:1010F0008C010D5E1F4F9AA119165CF48B89882311
:1011000041F0C80144D68111EBD69AA191509AA31F
:10111000F2CF8FEF8AA30F900FBE0FB6F8940F9205
:101120008E01085F1F4F99A119165CF488858823EA
:1011300041F0C8012CD68111D3D699A1915099A321
:10114000F2CF8FEF89A30F900FBEDF91CF911F9148
:101150000F910895CF93DF93EC010FB6F8940F929F
:10116000288139819F8D48A1949FC0011124F901E4
:10117000E80FF91FFB83EA831E8E3D832C83841BBB
:101180009109820F931F9F838E838FEF89A38AA378
:1011900061110AC08885882371F0CE010896F7D5C1
:1011A000813049F479DE07C0CE0108960E94D9103B
:1011B000CE014396FED70F900FBE81E0DF91CF9115
:1011C0000895EF92FF921F93CF93DF931F92CDB7B5
:1011D000DEB7182F662331F0869F90011124C901D4
:1011E000019602C080E090E08396698328D77C0155
:1011F0006981009781F0611104C0FC0191838083B3
:1012000004C08396F70191838083F701178F60A351
:1012100061E0C7019FDFC7010F90DF91CF911F9160
:10122000FF90EF900895CF93C62F42E060E0C9DFB2
:10123000009711F0FC01C68FCF910895AF92BF9235
:10124000CF92DF92EF92FF920F93CF93DF93CDB7C0
:10125000DEB729970FB6F894DEBF0FBECDBF7C0175
:101260006B012E833F834887598790E0570188E0C0
:10127000A80EB11C0FB6F8940F92F701268D878D3A
:10128000281710F00230A9F4402FB601C701B8DECC
:10129000F7019389992339F0C701439678D58130B6
:1012A00021F4FADD02C08111FCCF0F900FBE81E066
:1012B0004BC04E815F8168857985452B462B472B36
:1012C00019F40F900FBE3FC0911103C0CE010196DB
:1012D0009BD50F900FBEF4D20FB6F8940F92F70182
:1012E00081A18F3F09F411A2F70182A18F3F09F478
:1012F00012A20F900FBEBE016A5F7F4FCE01019612
:1013000094D581111DC00FB6F8940F92F701968DF8
:101310000F900FBE878D98130FC04E815F81688537
:101320007985C501FAD4C701DBDEABD3882311F080
:1013300091E0A0CFB1DDFCCFC701D2DEA2D3F8CFC0
:10134000C701CEDE9ED380E029960FB6F894DEBFAB
:101350000FBECDBFDF91CF910F91FF90EF90DF9047
:10136000CF90BF90AF9008950F93CF93DF9383E218
:1013700090E065D6EC01892BE9F01B821A82198274
:1013800018821D821C821F821E821E8E81E08F8F1A
:1013900018A28FEF89A38AA3CE0108960AD7CE019F
:1013A000439607D700E020E030E0A90160E070E05C
:1013B000CE0144DFCE01DF91CF910F910895CF93FD
:1013C000DF93FC01968D878D9817C8F4868D8F5F0B
:1013D000868F82A18F3F71F48389882371F0EB019E
:1013E000CF014396D4D4882341F0209731F081E097
:1013F000888306C082A18F5F82A381E001C080E064
:10140000DF91CF910895AF92BF92CF92DF92EF928A
:10141000FF920F93CF93DF93CDB7DEB729970FB627
:10142000F894DEBF0FBECDBF7C016B012E833F83DE
:101430004887598790E0570183E1A80EB11C0FB689
:10144000F8940F92F701868D882361F1A680B7800A
:10145000B601C7012BDEF701011116C0868D815040
:10146000868F80819181892B21F4D7D5F7019383D1
:101470008283F7018085882389F0C701089687D485
:10148000813061F409DD0AC0B782A682838988238E
:1014900029F0C70143967BD48111F4CF0F900FBE82
:1014A00081E056C04E815F8168857985452B462B4A
:1014B000472B19F40F900FBE4AC0911103C0CE0103
:1014C0000196A2D40F900FBEFBD10FB6F8940F92E5
:1014D000F70181A18F3F09F411A2F70182A18F3F8B
:1014E00009F412A20F900FBEBE016A5F7F4FCE01BA
:1014F00001969BD4811128C00FB6F8940F92F70182
:10150000868D0F900FBE81111BC080819181892B28
:1015100041F40FB6F8940F9282819381E5D40F9035
:101520000FBE4E815F8168857985C501F6D3C701FD
:10153000D7DDA7D2882311F091E081CFADDCFCCFBD
:10154000C701CEDD9ED2F8CFC701CADD9AD280E0B6
:1015500029960FB6F894DEBF0FBECDBFDF91CF91B5
:101560000F91FF90EF90DF90CF90BF90AF900895D4
:10157000E0914202F09143028081811104C08FEF1B
:101580009FEFDC010EC0E0914202F0914302078020
:10159000F085E02D0084F185E02D82819381A48186
:1015A000B58180930F0290931002A0931102B09323
:1015B00012020895CF92DF92EF92FF92E091C8025B
:1015C000F091C9026283738384839583C09019026A
:1015D000D0901A02E0901B02F0901C026C157D0561
:1015E0008E059F0578F46091C8027091C9028091C0
:1015F0004002909141026E5F7F4FFF90EF90DF902D
:10160000CF900DC66B017C016091C8027091C90238
:1016100080914202909143026E5F7F4F00D680918D
:101620000F0290911002A0911102B0911202C816FF
:10163000D906EA06FB0640F4C0920F02D0921002CF
:10164000E0921102F0921202FF90EF90DF90CF90A3
:1016500008955F926F927F928F929F92AF92BF9206
:10166000CF92DF92EF92FF920F931F93CF93DF936E
:101670004C01162F572E5A013901C114D10431F4EF
:10168000CA01DDD46C01892B09F4CAC08CE290E058
:10169000D6D4EC01009779F0DC8ECB8E21E0A21A33
:1016A000B108AC0CBD1CBC01635E7F4FE12FF52D72
:1016B000CF01089606C0C60152D5B2C0E817F90797
:1016C00049F09F014191DB014D93BD01D9012C915E
:1016D0002111F4CF1CA2102F0A3008F019E01A8F44
:1016E0001DA31EA26E01B2E0CB0ED11CC60172D5A5
:1016F000CE010E966FD5DB87CA878AE090E0A0E026
:10170000B0E0811B9109A109B1098E879F87A88B41
:10171000B98BDF8BCE8B1FA218A619A61AA61BA603
:10172000A301B401C50111DB99838883E114F1049D
:1017300019F0F701D183C0830FB6F8940F9280910E
:101740001D028F5F80931D028091C8029091C90293
:10175000892B99F5D093C902C093C80280911D02CC
:10176000813009F039C08AE5E82E82E0F82EC70101
:1017700020D5FBE0EF0EF11C28ECE21622E0F20689
:10178000B1F78FE492E015D584E492E012D585E3B9
:1017900092E00FD58AE292E00CD58EE192E009D575
:1017A0008FE492E0909343028093420284E492E0BB
:1017B00090934102809340020FC0809117028111E3
:1017C0000BC0E091C802F091C902828D081720F089
:1017D000D093C902C093C802809113028F5F809397
:1017E00013028A8D90911802981710F480931802B2
:1017F000ABE08A9FC0011124B601865A9D4FEED4FA
:101800000F900FBE80911702882341F0E091C8022B
:10181000F091C902828D801708F43EDB81E001C09F
:101820008FEFDF91CF911F910F91FF90EF90DF909D
:10183000CF90BF90AF909F908F907F906F905F9070
:101840000895AF92BF92CF92DF92EF92FF920F93E3
:10185000A12CB12CC12CD12CE12CF12C00E020E0EA
:1018600030E045E550E061E471E083E19EE0F1DEC7
:101870008130F1F4F8944FEF5FEFBA0140930F021B
:10188000509310026093110270931202809317021A
:101890001092190210921A0210921B0210921C024E
:1018A0000F91FF90EF90DF90CF90BF90AF90B9CAAB
:1018B0000F91FF90EF90DF90CF90BF90AF90089581
:1018C00080910E028F5F80930E0208950FB6F894F8
:1018D0000F926091190270911A0280911B029091EF
:1018E0001C020F900FBE08958F929F92AF92BF92ED
:1018F000EF92FF920F931F93CF93DF9380910E028D
:101900008111A9C08091190290911A02A0911B0225
:10191000B0911C020196A11DB11D809319029093F4
:101920001A02A0931B02B0931C028090190290909F
:101930001A02A0901B02B0901C0281149104A10411
:10194000B104B1F48091420290914302209140028F
:10195000309141023093430220934202909341021E
:1019600080934002809114028F5F8093140200DE06
:1019700080910F0290911002A0911102B091120279
:10198000C0E088169906AA06BB0608F454C0DBE03E
:10199000E0914202F09143028081811104C08FEFF7
:1019A0009FEFDC0113C0E0914202F09143020780F7
:1019B000F085E02D00851185F80182819381A48155
:1019C000B58188169906AA06BB0648F480930F02D3
:1019D00090931002A0931102B09312022CC07801D0
:1019E000F2E0EF0EF11CC7015ED4D80158968D913C
:1019F0009C915997892B19F0C8010E9654D4F8017F
:101A0000928D80911802891710F490931802D99F33
:101A1000C0011124B701865A9D4FE0D3E091C8025E
:101A2000F091C902D8015A969C91828D981708F4BA
:101A3000AFCFC1E0ADCFE091C802F091C902E28D15
:101A4000BBE0EB9FF0011124E65AFD4F808182300C
:101A500040F0C1E006C0809116028F5F80931602AD
:101A6000C0E0809115028111C1E08C2FDF91CF91F0
:101A70001F910F91FF90EF90BF90AF909F908F902C
:101A80000895EF92FF920F931F93CF93DF930FB6BA
:101A9000F8940F9280910E02815080930E028091F3
:101AA0000E02882311F080E04EC080911D02882331
:101AB000D1F38BE0F82EEE24E39480913502882355
:101AC00039F1E0913C02F0913D02C085D185CE0113
:101AD0000E96E9D38E010E5F1F4FC801E4D39A8D95
:101AE00080911802891710F490931802F99EC00192
:101AF0001124B801865A9D4F71D3E091C802F0912C
:101B0000C9029A8D828D9817C0F2E0921502D5CF46
:101B100080911602811108C080911502813009F070
:101B2000C2CFBAD981E00FC0C1E0809116028823EC
:101B300099F3DADE8111C09315028091160281506B
:101B400080931602F2CF0F900FBEDF91CF911F91BD
:101B50000F91FF90EF900895AF92BF92CF92DF92D6
:101B6000EF92FF920F931F93CF93DF9300D000D09B
:101B7000CDB7DEB75C0149835A836B837C83A0DEDB
:101B80000091190210911A0220911B0230911C023F
:101B9000F50180819181A281B38149815A816B8154
:101BA0007C816C017D01C40ED51EE61EF71E081750
:101BB00019072A073B0730F4C816D906EA06FB06C0
:101BC00060F405C0C816D906EA06FB0640F091E0AD
:101BD0000C151D052E053F0518F090E001C091E0A1
:101BE000F501C082D182E282F382992349F080918B
:101BF000C8029091C902029656D3C701B601DADC39
:101C000040DF811101C048D90F900F900F900F90C5
:101C1000DF91CF911F910F91FF90EF90DF90CF90C8
:101C2000BF90AF90089580912902882321F148DE6A
:101C3000C0912A0226DFCC23B1F30FB6F8940F929D
:101C4000E0913102F0913202C085D185CE01029639
:101C50002AD380911D02815080931D028091290218
:101C60008150809329020F900FBE8B8D9C8D77D26F
:101C7000CE0175D2D8CF80915A028230A0F20CD911
:101C8000D2CF80910E02882321F081E0809315024B
:101C90000895109215029BE0E09118029E9FF001BA
:101CA0001124E65AFD4F8081811106C080911802EF
:101CB000815080931802F0CF8091180290E04BE0A1
:101CC000489F9001499F300D1124F901E65AFD4FBC
:101CD000A181B28114960D90BC91A02DB283A183F5
:101CE000235A3D4FA217B30731F414962D913C911E
:101CF0001597328321832BE0289FF001299FF00D57
:101D00001124E65AFD4F0180F281E02D80859185F6
:101D10009093C9028093C8020895CF92DF92EF9208
:101D2000FF926A017B012091C8023091C902B9017A
:101D3000625F7F4F74D28091C8029091C90202966F
:101D4000B2D28FEFC816D806E806F80669F460919B
:101D5000C8027091C9026E5F7F4F8EE192E0FF90E2
:101D6000EF90DF90CF903AC28091190290911A02C1
:101D7000A0911B02B0911C02BC01CD016C0D7D1D18
:101D80008E1D9F1DFF90EF90DF90CF9013CC0F938F
:101D90001F93CF93DF93DC011796ED91FC91189779
:101DA000C085D1858E01025F1F4FC8017CD2809112
:101DB0000E02811113C00C501109C80174D29A8D02
:101DC00080911802891710F490931802BBE09B9F32
:101DD000C0011124B801865A9D4F03C0B80185E3A4
:101DE00092E0FCD1E091C802F091C9029A8D828DF7
:101DF000891720F481E08093150201C080E0DF9113
:101E0000CF911F910F91089520911402FC0120831E
:101E10004091190250911A0260911B0270911C02AC
:101E2000418352836383748308958F929F92AF920C
:101E3000BF92CF92DF92EF92FF920F931F93CF93B7
:101E4000DF93FB010FB6F8940F92C0901902D09067
:101E50001A02E0901B02F0901C02408151816281C5
:101E600073814F3F2FEF52076207720739F1B0912C
:101E70001402EC01A88109811A812B813C81BA17D7
:101E800029F0C016D106E206F306D0F44601570148
:101E9000801A910AA20AB30A84169506A606B70606
:101EA00078F40C191D092E093F09400F511F621FBC
:101EB000731F4083518362837383A6DF80E001C078
:101EC00081E00F900FBEDF91CF911F910F91FF9096
:101ED000EF90DF90CF90BF90AF909F908F9008953C
:101EE00081E08093150208950F931F93CF93DF93A2
:101EF000FC01892B09F452C0828DA091C802B091D7
:101F0000C9025A969C91891708F048C046855785A2
:101F10006089718977FD12C0A091C802B091C90291
:101F20005A969C914AE050E060E070E0491B5109EC
:101F30006109710946875787608B718B2BE0829FFF
:101F4000C0011124865A9D4F2485358528173907ED
:101F5000F1F48F01EF012296CE01A5D1E091C802E4
:101F6000F091C902928DF801928F80911802891721
:101F700010F490931802FBE09F9FC0011124BE0152
:101F8000865A9D4FDF91CF911F910F9127C1A0914C
:101F9000C802B091C9025A968C91828FDF91CF917D
:101FA0001F910F9108950F931F93CF93DF93FC011F
:101FB000892B11F480E02CC086A1815086A3228D4C
:101FC00095A12917B9F38111F5CFEF018F010E5FAC
:101FD0001F4FC80168D19DA19A8F4AE050E060E090
:101FE00070E0491B5109610971094E875F87688B51
:101FF000798B80911802891710F4909318022BE0C6
:10200000929FC0011124B801865A9D4FE7D081E00C
:10201000DF91CF911F910F9108958091C802909107
:10202000C902892B39F0E091C802F091C90286A15A
:102030008F5F86A38091C8029091C90208950F9383
:102040001F93CF93DF93EC013BDC8091CA02811197
:1020500021C084ED92E09093D0028093CF02109241
:10206000D2021092D1028BED95E09093CE02809334
:10207000CD021092CC021092CB029093D7028093A3
:10208000D6028BEC92E09093D5028093D40281E04B
:102090008093CA02209709F02496CE0101978A3DC9
:1020A000954008F053C0E091CF02F091D002AFEC20
:1020B000B2E0828193818C179D0728F022E0EB3CEF
:1020C000F20749F443C02081318121153105B1F374
:1020D000DF01F901EECF0D911C9111970C5F1F4F9D
:1020E000208131812D933C938C1B9D0B8930910570
:1020F00000F1DF01AC0FBD1F13969C938E931297D6
:10210000D383C28312962D913C9113976FEC72E0AA
:10211000EB0188819981EC014A815B814217530769
:1021200010F4BC01F5CF11969C938E93EB01B9830B
:10213000A883809114019091150122813381821B23
:10214000930B909315018093140102C000E010E0FE
:1021500098DCC801DF91CF911F910F910895CF9323
:10216000DF93009719F1EC012497AADB8A819B8108
:10217000EFECF2E0A081B18112962D913C91139782
:102180002817390710F4FD01F5CFB983A883D1834F
:10219000C0832091140130911501820F931F9093F9
:1021A000150180931401DF91CF916BCCDF91CF911A
:1021B0000895FC010396928381834FEF5FEFBA018C
:1021C000438354836583768390878783928781874F
:1021D00010820895FC01138612860895CF93DF9331
:1021E0009C01FB01DC011196CD91DC911297D58306
:1021F000C4838E819F81978386838E819F81DC013A
:1022000015967C936E9314977F836E833387228712
:10221000F90180818F5F8083DF91CF910895EF92E4
:10222000FF920F931F93CF93DF937C01FB014081BB
:102230005181628173814F3F8FEF5807680778079C
:1022400021F4E701A985BA8512C0D7011396149627
:102250008D919C911597EC01088119812A813B8110
:10226000401751076207730710F0DC01F0CF149696
:102270008D919C91159795838483EC01FF83EE8368
:10228000B783A6831596FC93EE931497F386E286A4
:10229000F70180818F5F8083DF91CF911F910F9134
:1022A000FF90EF900895CF93DF93FC01A285B38553
:1022B0008481958126813781EC013F832E83C681FD
:1022C000D7819D838C8311968D919C9112978E1747
:1022D0009F0721F41296DC93CE93119713861286F2
:1022E0008C9181508C93DF91CF910895A1E21A2EA9
:1022F000AA1BBB1BFD010DC0AA1FBB1FEE1FFF1FAA
:10230000A217B307E407F50720F0A21BB30BE40BF9
:10231000F50B661F771F881F991F1A9469F7609540
:102320007095809590959B01AC01BD01CF010895FA
:10233000EE0FFF1F0590F491E02D0994FB01DC01E5
:1023400002C001900D9241505040D8F70895F89482
:02235000FFCFBD
:102352000000AF08800001000000FF1B041B040105
:10236200C8000000DB0500000000FF0081028200BF
:102372009C008E00DE000000000037020D0A006E95
:10238200616E00696E66006F7666005461736B322F
:062392000049444C450027
:00000001FF
