:1000000059C0000049C400006EC400007AC000005E
:1000100078C0000076C0000074C00000C1C30000BA
:1000200070C000006EC000006CC000000C9452084C
:1000300068C0000066C0000064C0000062C000002C
:1000400084C400005EC0000085C10000B5C100008E
:1000500058C0000056C0000054C0000052C000004C
:1000600050C000004EC00000020000000800020165
:10007000000003040700000000000000000102046B
:10008000081020408001020408102001020408101A
:100090002004040404040404040202020202020311
:1000A000030303030300000000250028002B0000C9
:1000B0000A02760211241FBECFEFD8E0DEBFCDBF0B
:1000C00011E0A0E0B1E0EAEFF3E202C005900D928A
:1000D000A235B107D9F728E0A2E5B1E001C01D9231
:1000E000AB3BB207E1F710E0CAE5D0E004C02197CE
:1000F000FE010E94EC11C835D107C9F71CD40C943D
:10010000FB117ECFFC01918D228D892F90E0805CC8
:100110009F4F821B91098F7399270895FC01918D40
:10012000828D981731F0828DE80FF11D858D90E05A
:1001300008958FEF9FEF0895FC01918D828D9817A0
:1001400061F0828DDF01A80FB11D5D968C91928DBB
:100150009F5F9F73928F90E008958FEF9FEF0895B8
:1001600081E092E0892B41F080E090E0892B21F042
:1001700048D181110C9400000895FC01848DDF01A9
:10018000A80FB11DA35ABF4F2C91848D90E001960A
:100190008F739927848FA689B7892C93A089B189F9
:1001A0008C9180648C93938D848D981306C0028803
:1001B000F389E02D80818F7D80830895CF93DF9335
:1001C000EC01888D8823C1F0EA89FB89808185FD57
:1001D00005C0A889B9898C9186FD0EC00FB607FCB1
:1001E000F5CF808185FFF2CFA889B9898C9185FFF1
:1001F000EDCFCE01C2DFE8CFDF91CF910895EF922E
:10020000FF920F931F93CF93DF93EC0181E0888FD0
:100210009B8D8C8D981305C0E889F989808185FDB7
:1002200023C0F62E0B8D10E00F5F1F4F0F731127A9
:10023000E02E8C8DE8120BC00FB607FCFACFE889D0
:10024000F989808185FFF5CFCE0197DFF2CF8B8DC5
:10025000FE01E80FF11DE35AFF4FF0820B8FEA8990
:10026000FB898081806207C0EE89FF896083E8890D
:10027000F98980818064808381E090E0DF91CF9173
:100280001F910F91FF90EF900895CF92DF92EF9220
:10029000FF921F93CF93DF93EC016A017B01122F32
:1002A000E889F98982E080834115514E6105710525
:1002B000B1F060E079E08DE390E0A70196010E9443
:1002C000CA11DA01C9010197A109B109B695A7952B
:1002D00097958795AC01411580E15807A8F0E8890A
:1002E000F989108260E874E88EE190E0A701960138
:1002F0000E94CA11BA01A90141505109610971094D
:100300007695679557954795EC85FD855083EE85E5
:10031000FF854083188EEC89FD891083EA89FB896B
:10032000808180618083EA89FB8980818860808305
:10033000EA89FB89808180688083EA89FB898081E2
:100340008F7D8083DF91CF911F91FF90EF90DF90A1
:10035000CF9008951F920F920FB60F9211242F93F2
:100360008F939F93EF93FF93E0916201F09163016C
:100370008081E0916801F091690182FD12C0908155
:1003800080916B018F5F8F7320916C01821751F008
:10039000E0916B01F0E0EE5AFE4F958F80936B0178
:1003A00001C08081FF91EF919F918F912F910F90CC
:1003B0000FBE0F901F9018951F920F920FB60F92BD
:1003C00011242F933F934F935F936F937F938F935A
:1003D0009F93AF93BF93EF93FF9382E591E0CDDEC0
:1003E000FF91EF91BF91AF919F918F917F916F910D
:1003F0005F914F913F912F910F900FBE0F901F90E3
:10040000189582E591E07EDE21E0892B09F420E059
:10041000822F0895E2E5F1E01382128288EE93E0E4
:10042000A0E0B0E084839583A683B7838AE191E05E
:100430009183808385EC90E09587848784EC90E0BD
:100440009787868780EC90E0918B808B81EC90E0A1
:10045000938B828B82EC90E0958B848B86EC90E082
:10046000978B868B118E128E138E148E08958F9219
:100470009F92AF92BF92CF92DF92EF92FF920F9333
:100480001F93CF93DF937C018B016C0182E0C80E38
:10049000D11C4701E5E08E0E911CC0E0D0E0F601D2
:1004A00061916F014AE050E0C80140D15C016EE209
:1004B000C80167D08A0D9B1DC80FD91FC814D90465
:1004C00071F74AE050E0F7016581C8012FD18C0F28
:1004D0009D1FDF91CF911F910F91FF90EF90DF90C3
:1004E000CF90BF90AF909F908F900895EFEEF1E086
:1004F0008AE291E0918380831282138214821582B2
:100500000895CF92DF92EF92FF920F931F93CF93B4
:10051000DF936C017A018B01C0E0D0E0CE15DF05DE
:1005200089F0D8016D918D01D601ED91FC9101907A
:10053000F081E02DC6010995892B11F47E0102C0DE
:100540002196ECCFC701DF91CF911F910F91FF90C2
:10055000EF90DF90CF9008956115710579F0FB0160
:1005600001900020E9F73197AF01461B570BDC01E2
:10057000ED91FC910280F381E02D099480E090E000
:100580000895DC01ED91FC910190F081E02D09943A
:100590006CE271E0E1CF0F931F93CF93DF93EC01F7
:1005A000DBDF8C01CE01F4DF800F911FDF91CF9153
:1005B0001F910F9108958F929F92AF92BF92CF9209
:1005C000DF92EF92FF920F931F93CF93DF93CDB7FC
:1005D000DEB7A1970FB6F894DEBF0FBECDBF7C018A
:1005E000D42EC52EDB0119A2223008F42AE08E0198
:1005F0000F5D1F4F822E912CA12CB12C6D2D7C2DC7
:10060000CD01A50194010E94CA11D22EC32EDA0198
:10061000015011096A3071058105910510F4605D82
:1006200001C0695CF8016083232B242B252B31F753
:10063000B801C70191DFA1960FB6F894DEBF0FBED7
:10064000CDBFDF91CF911F910F91FF90EF90DF9081
:10065000CF90BF90AF909F908F900895CF92DF92F0
:10066000EF92FF920F931F93CF93DF93EC016A01F8
:100670007B012115310579F4E881F9810190F08140
:10068000E02D642FDF91CF911F910F91FF90EF909C
:10069000DF90CF9009942A303105D9F477FF18C044
:1006A0006DE26FDF8C0144275527BA014C195D09B3
:1006B0006E097F092AE0CE017EDF800F911FDF9156
:1006C000CF911F910F91FF90EF90DF90CF90089501
:1006D0002AE0B701A601CE01DF91CF911F910F91C2
:1006E000FF90EF90DF90CF9066CF0F931F93CF9343
:1006F000DF93EC019A01AB01770F660B770BAEDF4E
:100700008C01CE0145DF800F911FDF91CF911F91AA
:100710000F9108952115310541F4DC01ED91FC9113
:100720000190F081E02D642F099445CF9A01462F66
:1007300050E060E070E0EECF813039F018F08230A8
:1007400051F0089510926E00089580916F008D7F92
:1007500080936F000895809170008D7F809370006A
:1007600081E08093B0008091B100887F84608093A5
:10077000B1001092B3000895CF93C82F80910A0161
:100780008C1307C0E8E6F0E0E4918FEF80930A0154
:1007900001C0EFEF8E2FD0DF60E08C2FCF91ACC186
:1007A0001F920F920FB60F9211242F933F934F93E6
:1007B0005F936F937F938F939F93AF93BF93EF93C9
:1007C000FF938091F8019091F901A091FA01B09105
:1007D000FB01892B8A2B8B2B51F18091F501E09144
:1007E000F601F091F7019081892780838091F801CB
:1007F0009091F901A091FA01B091FB011816190628
:100800001A061B06BCF48091F8019091F901A091A1
:10081000FA01B091FB010197A109B1098093F80198
:100820009093F901A093FA01B093FB0103C080916A
:100830000A01A2DFFF91EF91BF91AF919F918F913C
:100840007F916F915F914F913F912F910F900FBECC
:100850000F901F90189508958230E8F4E82FF0E08B
:10086000EE0FFF1FE55FFE4F71836083813041F023
:10087000809169008C7F482B40936900E89A089525
:1008800080916900440F551F440F551F837F482BEB
:1008900040936900E99A08951F920F920FB60F9244
:1008A00011242F933F934F935F936F937F938F9375
:1008B0009F93AF93BF93EF93FF93E0910B01F09160
:1008C0000C010995FF91EF91BF91AF919F918F918D
:1008D0007F916F915F914F913F912F910F900FBE3C
:1008E0000F901F9018951F920F920FB60F92112420
:1008F0002F933F934F935F936F937F938F939F9328
:10090000AF93BF93EF93FF93E0910D01F0910E0130
:100910000995FF91EF91BF91AF919F918F917F9139
:100920006F915F914F913F912F910F900FBE0F905C
:100930001F90189508955FD0FDDFF5D1C0EBD0E092
:100940002BD22097E9F30CDCFBCF1F920F920FB64E
:100950000F9211242F933F938F939F93AF93BF9345
:100960008091FD019091FE01A091FF01B0910002E4
:100970003091FC0123E0230F2D3720F40196A11DB7
:10098000B11D05C026E8230F0296A11DB11D2093BD
:10099000FC018093FD019093FE01A093FF01B093B1
:1009A00000028091010290910202A0910302B09195
:1009B00004020196A11DB11D8093010290930202D1
:1009C000A0930302B0930402BF91AF919F918F91C6
:1009D0003F912F910F900FBE0F901F9018952FB73A
:1009E000F8946091FD017091FE018091FF0190915A
:1009F00000022FBF0895789484B5826084BD84B5C9
:100A0000816084BD85B5826085BD85B5816085BD09
:100A1000EEE6F0E0808181608083E1E8F0E0108222
:100A2000808182608083808181608083E0E8F0E063
:100A3000808181608083E1EBF0E08081846080834D
:100A4000E0EBF0E0808181608083EAE7F0E0808184
:100A500084608083808182608083808181608083E4
:100A60008081806880831092C10008958E3008F0E4
:100A70008E50877020910F0190E4299F90011124DE
:100A8000822B80937C0080917A00806480937A002E
:100A900080917A0086FDFCCF8091780020917900CA
:100AA00090E0922B0895833081F028F4813099F002
:100AB0008230A1F008958730A9F08830B9F08430F1
:100AC000D1F4809180008F7D03C0809180008F776A
:100AD00080938000089584B58F7702C084B58F7DA0
:100AE00084BD08958091B0008F7703C08091B000DD
:100AF0008F7D8093B00008951F93CF93DF93282FAD
:100B000030E0F901E759FF4F8491F901E358FF4FB5
:100B1000D491F901EF56FF4FC491CC23C1F0162FA9
:100B20008111C1DFEC2FF0E0EE0FFF1FEB55FF4FFF
:100B3000A591B4918FB7F894111105C09C91ED2F38
:100B4000E095E92302C0EC91ED2BEC938FBFDF9190
:100B5000CF911F91089500E02FEF3FEFA90160E0D2
:100B600070E08091180290911902A1D4813099F718
:100B70002FEF3FEFA90160E070E0809114029091A7
:100B8000150295D42FEF3FEFA90160E070E080914E
:100B90001602909117028BD4809112029091130249
:100BA000892B89F080E062DF90930902809308022C
:100BB00022E030E040E050E068E072E08091120214
:100BC000909113028FD300E020E030E0A90160E0B3
:100BD00070E0809116029091170284D320E030E0FB
:100BE000A90160E070E080911402909115027AD31F
:100BF000B2CFCF93DF9300D000D0CDB7DEB7BAD657
:100C000069837A838B839C8300E02FEF3FEFA901F8
:100C100060E070E0809114029091150248D42FEFAB
:100C20003FEFA90160E070E08091160290911702F9
:100C30003ED48091120290911302009739F022E085
:100C400030E040E050E066E072E031D460910602AE
:100C5000709107024AE050E082E591E046DD00E055
:100C600020E030E0A90160E070E0809116029091F0
:100C7000170238D320E030E0A90160E070E08091F5
:100C80001402909115022ED348EB5BE060E070E017
:100C9000CE010196B5D7B8CFCF92DF92EF92FF92F7
:100CA0000F931F939CDE60930E0270930F0280934C
:100CB0001002909311021092050200910A02109105
:100CC0000B0220910C0230910D026B017C01C01AC5
:100CD000D10AE20AF30A009110011091110120914A
:100CE0001201309113010C151D052E053F0578F4F6
:100CF00060930A0270930B0280930C0290930D0292
:100D000065E072E08091180290911902ACD3809155
:100D10000502813009F414D11F910F91FF90EF90DB
:100D2000DF90CF9008950F9326E040E052EC61E011
:100D300070E082E591E0A9DA43E050E06CE476E00F
:100D400080E08ADD43E060E081E08FD29093190279
:100D50008093180281E05CD390931702809316026F
:100D600064E084E0B4D2909315028093140200E012
:100D700020E030E0A90160E070E0809116029091DF
:100D80001702B0D240E062E084E06FD29093130289
:100D9000809312020F910895AF92BF92CF92DF928B
:100DA000EF92FF920F936BE371E082E591E0F3DB4A
:100DB000A12CB12CC12CD12CE12CF12C01E020E094
:100DC00030E048EC50E060E471E08BEA95E095D4C7
:100DD00020E030E048EC50E066E471E089EF95E017
:100DE0008CD40F91FF90EF90DF90CF90BF90AF9099
:100DF0007CC531E1FC013083319722E220833197B9
:100E0000A3E3A08331976083319770833197108279
:100E1000319760E8608331971082319762E0608398
:100E2000319763E06083319764E06083319765E0D8
:100E30006083319766E06083319767E06083319724
:100E400068E06083319769E06083319760E1608397
:100E500031973083319732E13083319733E13083FA
:100E6000319734E13083319735E13083319736E182
:100E70003083319737E13083319738E130833197D0
:100E800039E13083319730E23083319731E230837A
:100E900031972083319723E2208331974083319724
:100EA0005083319726E22083319727E220833197C0
:100EB00028E22083319729E22083319720E32083A1
:100EC000319721E320838697089589E080938900F4
:100ED00083EC809388008BE080938100EFE6F0E064
:100EE000808182608083A091D402B091D502CD919F
:100EF000CDBFDD91DEBFFF91EF91DF91CF91BF912B
:100F0000AF919F918F917F916F915F914F913F91A1
:100F10002F911F910F91FF90EF90DF90CF90BF9096
:100F2000AF909F908F907F906F905F904F903F9089
:100F30002F901F900F900FBE0F90089581E008959D
:100F40000F920FB6F8940F921F9211242F923F9296
:100F50004F925F926F927F928F929F92AF92BF92C9
:100F6000CF92DF92EF92FF920F931F932F933F93B5
:100F70004F935F936F937F938F939F93AF93BF93A1
:100F8000CF93DF93EF93FF93A091D402B091D5025A
:100F90000DB60D920EB60D92C8D6A091D402B091A6
:100FA000D502CD91CDBFDD91DEBFFF91EF91DF91F5
:100FB000CF91BF91AF919F918F917F916F915F91F1
:100FC0004F913F912F911F910F91FF90EF90DF90E4
:100FD000CF90BF90AF909F908F907F906F905F90D9
:100FE0004F903F902F901F900F900FBE0F9008953D
:100FF0000F920FB6F8940F921F9211242F923F92E6
:101000004F925F926F927F928F929F92AF92BF9218
:10101000CF92DF92EF92FF920F931F932F933F9304
:101020004F935F936F937F938F939F93AF93BF93F0
:10103000CF93DF93EF93FF93A091D402B091D502A9
:101040000DB60D920EB60D92A3D481116ED6A0915D
:10105000D402B091D502CD91CDBFDD91DEBFFF911D
:10106000EF91DF91CF91BF91AF919F918F917F9140
:101070006F915F914F913F912F911F910F91FF9031
:10108000EF90DF90CF90BF90AF909F908F907F9028
:101090006F905F904F903F902F901F900F900FBEDA
:1010A0000F900895A5DF18951F93CF93DF93EC0160
:1010B000142F88A181110BC088819981892B09F097
:1010C00041C08A819B81C3D71B821A823CC0482FB2
:1010D00050E0111115C08C819D810E94F21128A150
:1010E0008C819D81820F911D9D838C832A813B8100
:1010F0008217930738F1888199819D838C8322C060
:101100008E819F810E94F21188A190E09195819536
:1011100091092E813F81280F391F3F832E834881FB
:1011200059812417350730F42A813B81820F931FA0
:101130009F838E83123031F48E8D882319F08E8D2B
:1011400081508E8F80E09E8D9F5F9E8FDF91CF912B
:101150001F910895FC01CB0140A14423A1F050E070
:1011600026813781240F351F37832683628173815F
:101170002617370720F02081318137832683668147
:1011800077810C94F21108950F931F93CF93DF93FF
:10119000EC010FB6F8940F928C010D5E1F4F9AA1CF
:1011A00019165CF48B89882341F0C80144D681115B
:1011B000EBD69AA191509AA3F2CF8FEF8AA30F900A
:1011C0000FBE0FB6F8940F928E01085F1F4F99A1C2
:1011D00019165CF48885882341F0C8012CD681114A
:1011E000D3D699A1915099A3F2CF8FEF89A30F90F5
:1011F0000FBEDF91CF911F910F910895CF93DF9391
:10120000EC010FB6F8940F92288139819F8D48A187
:10121000949FC0011124F901E80FF91FFB83EA83B1
:101220001E8E3D832C83841B9109820F931F9F8305
:101230008E838FEF89A38AA361110AC088858823D2
:1012400071F0CE010896F7D5813049F479DE07C0F8
:10125000CE0108960E942D11CE014396FED70F9025
:101260000FBE81E0DF91CF910895EF92FF921F931F
:10127000CF93DF931F92CDB7DEB7182F662331F0DF
:10128000869F90011124C901019602C080E090E080
:101290008396698328D77C016981009781F0611169
:1012A00004C0FC019183808304C08396F70191837D
:1012B0008083F701178F60A361E0C7019FDFC7013B
:1012C0000F90DF91CF911F91FF90EF900895CF93F2
:1012D000C62F42E060E0C9DF009711F0FC01C68F25
:1012E000CF910895AF92BF92CF92DF92EF92FF928B
:1012F0000F93CF93DF93CDB7DEB729970FB6F8944E
:10130000DEBF0FBECDBF7C016B012E833F834887BC
:10131000598790E0570188E0A80EB11C0FB6F894E9
:101320000F92F701268D878D281710F00230A9F44F
:10133000402FB601C701B8DEF7019389992339F030
:10134000C701439678D5813021F4FADD02C08111BE
:10135000FCCF0F900FBE81E04BC04E815F8168854E
:101360007985452B462B472B19F40F900FBE3FC0B4
:10137000911103C0CE0101969BD50F900FBEF4D200
:101380000FB6F8940F92F70181A18F3F09F411A2D3
:10139000F70182A18F3F09F412A20F900FBEBE0188
:1013A0006A5F7F4FCE01019694D581111DC00FB6A3
:1013B000F8940F92F701968D0F900FBE878D9813BA
:1013C0000FC04E815F8168857985C501FAD4C70158
:1013D000DBDEABD3882311F091E0A0CFB1DDFCCFF1
:1013E000C701D2DEA2D3F8CFC701CEDE9ED380E004
:1013F00029960FB6F894DEBF0FBECDBFDF91CF9117
:101400000F91FF90EF90DF90CF90BF90AF90089535
:101410000F93CF93DF9383E290E065D6EC01892BA5
:10142000E9F01B821A82198218821D821C821F8297
:101430001E821E8E81E08F8F18A28FEF89A38AA350
:10144000CE0108960AD7CE01439607D700E020E0E8
:1014500030E0A90160E070E0CE0144DFCE01DF9111
:10146000CF910F910895CF93DF93FC01968D878DD7
:101470009817C8F4868D8F5F868F82A18F3F71F495
:101480008389882371F0EB01CF014396D4D488235C
:1014900041F0209731F081E0888306C082A18F5F00
:1014A00082A381E001C080E0DF91CF910895AF92E7
:1014B000BF92CF92DF92EF92FF920F93CF93DF9381
:1014C000CDB7DEB729970FB6F894DEBF0FBECDBFFC
:1014D0007C016B012E833F834887598790E0570139
:1014E00083E1A80EB11C0FB6F8940F92F701868D18
:1014F000882361F1A680B780B601C7012BDEF70112
:10150000011116C0868D8150868F80819181892B33
:1015100021F4D7D5F70193838283F701808588234F
:1015200089F0C701089687D4813061F409DD0AC0CB
:10153000B782A6828389882329F0C70143967BD48A
:101540008111F4CF0F900FBE81E056C04E815F81B4
:1015500068857985452B462B472B19F40F900FBED4
:101560004AC0911103C0CE010196A2D40F900FBEC4
:10157000FBD10FB6F8940F92F70181A18F3F09F4C8
:1015800011A2F70182A18F3F09F412A20F900FBEA2
:10159000BE016A5F7F4FCE0101969BD4811128C0A6
:1015A0000FB6F8940F92F701868D0F900FBE811140
:1015B0001BC080819181892B41F40FB6F8940F9262
:1015C00082819381E5D40F900FBE4E815F81688543
:1015D0007985C501F6D3C701D7DDA7D2882311F0DD
:1015E00091E081CFADDCFCCFC701CEDD9ED2F8CF3C
:1015F000C701CADD9AD280E029960FB6F894DEBF03
:101600000FBECDBFDF91CF910F91FF90EF90DF9094
:10161000CF90BF90AF900895E0914E02F0914F02AD
:101620008081811104C08FEF9FEFDC010EC0E0913B
:101630004E02F0914F020780F085E02D0084F18585
:10164000E02D82819381A481B58180931B029093C8
:101650001C02A0931D02B0931E020895CF92DF9248
:10166000EF92FF92E091D402F091D50262837383EE
:1016700084839583C0902502D0902602E0902702B3
:10168000F09028026C157D058E059F0578F4609119
:10169000D4027091D50280914C0290914D026E5F00
:1016A0007F4FFF90EF90DF90CF900DC66B017C01D4
:1016B0006091D4027091D50280914E0290914F02B8
:1016C0006E5F7F4F00D680911B0290911C02A0910B
:1016D0001D02B0911E02C816D906EA06FB0640F4A8
:1016E000C0921B02D0921C02E0921D02F0921E02D8
:1016F000FF90EF90DF90CF9008955F926F927F926E
:101700008F929F92AF92BF92CF92DF92EF92FF9211
:101710000F931F93CF93DF934C01162F572E5A012F
:101720003901C114D10431F4CA01DDD46C01892B13
:1017300009F4CAC08CE290E0D6D4EC01009779F0AD
:10174000DC8ECB8E21E0A21AB108AC0CBD1CBC0112
:10175000635E7F4FE12FF52DCF01089606C0C601CD
:1017600052D5B2C0E817F90749F09F014191DB015A
:101770004D93BD01D9012C912111F4CF1CA2102F42
:101780000A3008F019E01A8F1DA31EA26E01B2E004
:10179000CB0ED11CC60172D5CE010E966FD5DB875C
:1017A000CA878AE090E0A0E0B0E0811B9109A1091E
:1017B000B1098E879F87A88BB98BDF8BCE8B1FA239
:1017C00018A619A61AA61BA6A301B401C50111DB10
:1017D00099838883E114F10419F0F701D183C08360
:1017E0000FB6F8940F92809129028F5F809329029F
:1017F0008091D4029091D502892B99F5D093D5028E
:10180000C093D40280912902813009F039C086E664
:10181000E82E82E0F82EC70120D5FBE0EF0EF11C88
:1018200024EDE21622E0F206B1F78BE592E015D541
:1018300080E592E012D581E492E00FD586E392E054
:101840000CD58AE292E009D58BE592E090934F02A5
:1018500080934E0280E592E090934D0280934C027B
:101860000FC08091230281110BC0E091D402F0914E
:10187000D502828D081720F0D093D502C093D402F0
:1018800080911F028F5F80931F028A8D90912402A6
:10189000981710F480932402ABE08A9FC0011124B2
:1018A000B6018A599D4FEED40F900FBE809123024E
:1018B000882341F0E091D402F091D502828D801707
:1018C00008F43EDB81E001C08FEFDF91CF911F91E3
:1018D0000F91FF90EF90DF90CF90BF90AF909F90CF
:1018E0008F907F906F905F900895AF92BF92CF924C
:1018F000DF92EF92FF920F93A12CB12CC12CD12C2F
:10190000E12CF12C00E020E030E045E550E06CE413
:1019100071E087E69EE0F1DE8130F1F4F8944FEF5C
:101920005FEFBA0140931B0250931C0260931D02AB
:1019300070931E02809323021092250210922602B9
:1019400010922702109228020F91FF90EF90DF90E3
:10195000CF90BF90AF90B9CA0F91FF90EF90DF90FA
:10196000CF90BF90AF90089580911A028F5F8093BF
:101970001A0208950FB6F8940F92609125027091A3
:10198000260280912702909128020F900FBE0895A1
:101990008F929F92AF92BF92EF92FF920F931F93FD
:1019A000CF93DF9380911A028111A9C08091250203
:1019B00090912602A0912702B09128020196A11DC4
:1019C000B11D8093250290932602A0932702B09325
:1019D00028028090250290902602A0902702B090C5
:1019E000280281149104A104B104B1F480914E0243
:1019F00090914F0220914C0230914D0230934F0252
:101A000020934E0290934D0280934C0280912002CD
:101A10008F5F8093200200DE80911B0290911C0258
:101A2000A0911D02B0911E02C0E088169906AA0678
:101A3000BB0608F454C0DBE0E0914E02F0914F0287
:101A40008081811104C08FEF9FEFDC0113C0E09112
:101A50004E02F0914F020780F085E02D0085118540
:101A6000F80182819381A481B58188169906AA061E
:101A7000BB0648F480931B0290931C02A0931D02A6
:101A8000B0931E022CC07801F2E0EF0EF11CC701EA
:101A90005ED4D80158968D919C915997892B19F055
:101AA000C8010E9654D4F801928D809124028917B2
:101AB00010F490932402D99FC0011124B7018A59D0
:101AC0009D4FE0D3E091D402F091D502D8015A960F
:101AD0009C91828D981708F4AFCFC1E0ADCFE09113
:101AE000D402F091D502E28DBBE0EB9FF00111240E
:101AF000EA59FD4F8081823040F0C1E006C08091FC
:101B000022028F5F80932202C0E080912102811126
:101B1000C1E08C2FDF91CF911F910F91FF90EF903B
:101B2000BF90AF909F908F900895EF92FF920F9388
:101B30001F93CF93DF930FB6F8940F9280911A0200
:101B4000815080931A0280911A02882311F080E05C
:101B50004EC0809129028823D1F38BE0F82EEE2429
:101B6000E39480914102882339F1E0914802F09199
:101B70004902C085D185CE010E96E9D38E010E5F54
:101B80001F4FC801E4D39A8D80912402891710F465
:101B900090932402F99EC0011124B8018A599D4FE7
:101BA00071D3E091D402F091D5029A8D828D98176D
:101BB000C0F2E0922102D5CF80912202811108C0AB
:101BC00080912102813009F0C2CFBAD981E00FC0E3
:101BD000C1E080912202882399F3DADE8111C0935B
:101BE000210280912202815080932202F2CF0F9035
:101BF0000FBEDF91CF911F910F91FF90EF9008954D
:101C0000AF92BF92CF92DF92EF92FF920F931F930A
:101C1000CF93DF9300D000D0CDB7DEB75C0149830E
:101C20005A836B837C83A0DE0091250210912602EB
:101C30002091270230912802F50180819181A281B3
:101C4000B38149815A816B817C816C017D01C40E15
:101C5000D51EE61EF71E081719072A073B0730F4A2
:101C6000C816D906EA06FB0660F405C0C816D906F0
:101C7000EA06FB0640F091E00C151D052E053F0518
:101C800018F090E001C091E0F501C082D182E282BB
:101C9000F382992349F08091D4029091D502029663
:101CA00056D3C701B601DADC40DF811101C048D943
:101CB0000F900F900F900F90DF91CF911F910F9188
:101CC000FF90EF90DF90CF90BF90AF9008958091FC
:101CD0003502882321F148DEC091360226DFCC236D
:101CE000B1F30FB6F8940F92E0913D02F0913E02ED
:101CF000C085D185CE0102962AD3809129028150D8
:101D000080932902809135028150809335020F9093
:101D10000FBE8B8D9C8D77D2CE0175D2D8CF80919E
:101D200066028230A0F20CD9D2CF80911A028823A9
:101D300021F081E0809321020895109221029BE01E
:101D4000E09124029E9FF0011124EA59FD4F808109
:101D5000811106C080912402815080932402F0CF2B
:101D60008091240290E04BE0489F9001499F300D04
:101D70001124F901EA59FD4FA181B28114960D9009
:101D8000BC91A02DB283A18327593D4FA217B30761
:101D900031F414962D913C911597328321832BE0D9
:101DA000289FF001299FF00D1124EA59FD4F018071
:101DB000F281E02D808591859093D5028093D402A5
:101DC0000895CF92DF92EF92FF926A017B012091FA
:101DD000D4023091D502B901625F7F4F74D28091F5
:101DE000D4029091D5020296B2D28FEFC816D806CF
:101DF000E806F80669F46091D4027091D5026E5F2E
:101E00007F4F8AE292E0FF90EF90DF90CF903AC24E
:101E10008091250290912602A0912702B09128027C
:101E2000BC01CD016C0D7D1D8E1D9F1DFF90EF909F
:101E3000DF90CF9013CC0F931F93CF93DF93DC01F0
:101E40001796ED91FC911897C085D1858E01025FA0
:101E50001F4FC8017CD280911A02811113C00C500F
:101E60001109C80174D29A8D80912402891710F447
:101E700090932402BBE09B9FC0011124B8018A59B2
:101E80009D4F03C0B80181E492E0FCD1E091D402FF
:101E9000F091D5029A8D828D891720F481E080938C
:101EA000210201C080E0DF91CF911F910F91089531
:101EB00020912002FC0120834091250250912602AE
:101EC0006091270270912802418352836383748357
:101ED00008958F929F92AF92BF92CF92DF92EF922E
:101EE000FF920F931F93CF93DF93FB010FB6F894EC
:101EF0000F92C0902502D0902602E0902702F09029
:101F0000280240815181628173814F3F2FEF520738
:101F10006207720739F1B0912002EC01A8810981B2
:101F20001A812B813C81BA1729F0C016D106E2062E
:101F3000F306D0F446015701801A910AA20AB30AA7
:101F400084169506A606B70678F40C191D092E0905
:101F50003F09400F511F621F731F408351836283EB
:101F60007383A6DF80E001C081E00F900FBEDF9198
:101F7000CF911F910F91FF90EF90DF90CF90BF9086
:101F8000AF909F908F90089581E0809321020895F3
:101F90000F931F93CF93DF93FC01892B09F452C059
:101FA000828DA091D402B091D5025A969C91891746
:101FB00008F048C0468557856089718977FD12C051
:101FC000A091D402B091D5025A969C914AE050E07B
:101FD00060E070E0491B5109610971094687578724
:101FE000608B718B2BE0829FC00111248A599D4F19
:101FF0002485358528173907F1F48F01EF012296E2
:10200000CE01A5D1E091D402F091D502928DF801D4
:10201000928F80912402891710F490932402FBE0A0
:102020009F9FC0011124BE018A599D4FDF91CF911E
:102030001F910F9127C1A091D402B091D5025A9659
:102040008C91828FDF91CF911F910F9108950F9303
:102050001F93CF93DF93FC01892B11F480E02CC0F8
:1020600086A1815086A3228D95A12917B9F38111EC
:10207000F5CFEF018F010E5F1F4FC80168D19DA101
:102080009A8F4AE050E060E070E0491B5109610915
:1020900071094E875F87688B798B8091240289173D
:1020A00010F4909324022BE0929FC0011124B801F8
:1020B0008A599D4FE7D081E0DF91CF911F910F9119
:1020C00008958091D4029091D502892B39F0E09146
:1020D000D402F091D50286A18F5F86A38091D402AD
:1020E0009091D50208950F931F93CF93DF93EC0146
:1020F0003BDC8091D602811121C080EE92E090936A
:10210000DC028093DB021092DE021092DD028BED86
:1021100095E09093DA028093D9021092D80210923F
:10212000D7029093E3028093E20287ED92E09093CE
:10213000E1028093E00281E08093D602209709F0CB
:102140002496CE0101978A3D954008F053C0E09156
:10215000DB02F091DC02ABEDB2E0828193818C175F
:102160009D0728F022E0E73DF20749F443C02081B3
:10217000318121153105B1F3DF01F901EECF0D9168
:102180001C9111970C5F1F4F208131812D933C933F
:102190008C1B9D0B8930910500F1DF01AC0FBD1F39
:1021A00013969C938E931297D383C28312962D918C
:1021B0003C9113976BED72E0EB0188819981EC0102
:1021C0004A815B814217530710F4BC01F5CF119689
:1021D0009C938E93EB01B983A88380911401909115
:1021E000150122813381821B930B909315018093FB
:1021F000140102C000E010E098DCC801DF91CF912B
:102200001F910F910895CF93DF93009719F1EC017F
:102210002497AADB8A819B81EBEDF2E0A081B1815A
:1022200012962D913C9113972817390710F4FD0150
:10223000F5CFB983A883D183C08320911401309155
:102240001501820F931F9093150180931401DF9164
:10225000CF916BCCDF91CF910895FC0103969283CF
:1022600081834FEF5FEFBA014383548365837683A5
:10227000908787839287818710820895FC01138657
:1022800012860895CF93DF939C01FB01DC01119628
:10229000CD91DC911297D583C4838E819F819783E2
:1022A00086838E819F81DC0115967C936E931497B3
:1022B0007F836E8333872287F90180818F5F8083DC
:1022C000DF91CF910895EF92FF920F931F93CF93D9
:1022D000DF937C01FB0140815181628173814F3F1B
:1022E0008FEF58076807780721F4E701A985BA85B9
:1022F00012C0D701139614968D919C911597EC01FD
:10230000088119812A813B814017510762077307B1
:1023100010F0DC01F0CF14968D919C911597958368
:102320008483EC01FF83EE83B783A6831596FC9329
:10233000EE931497F386E286F70180818F5F8083A6
:10234000DF91CF911F910F91FF90EF900895CF9360
:10235000DF93FC01A285B385848195812681378135
:10236000EC013F832E83C681D7819D838C83119698
:102370008D919C9112978E179F0721F41296DC93F2
:10238000CE931197138612868C9181508C93DF9196
:10239000CF910895A1E21A2EAA1BBB1BFD010DC00F
:1023A000AA1FBB1FEE1FFF1FA217B307E407F50705
:1023B00020F0A21BB30BE40BF50B661F771F881FE1
:1023C000991F1A9469F760957095809590959B0177
:1023D000AC01BD01CF010895EE0FFF1F0590F491F0
:1023E000E02D0994FB01DC0102C001900D924150E7
:0A23F0005040D8F70895F894FFCF8D
:1023FA000000BB08800001000000FF2B042B040131
:10240A00C8000000DB0500000000FF008102820016
:10241A009C008E00DE000000000037020D0A006EEC
:10242A00616E00696E66006F76660074657374008B
:10243A005461736B31005461736B320049444C45EB
:02244A00000090
:00000001FF
