:1000000059C0000039C400005EC400007AC000007E
:1000100078C0000076C0000074C00000B1C30000CA
:1000200070C000006EC000006CC00000BAC70000C5
:1000300068C0000066C0000064C0000062C000002C
:1000400074C400005EC0000085C10000B5C100009E
:1000500058C0000056C0000054C0000052C000004C
:1000600050C000004EC00000020000000800020165
:10007000000003040700000000000000000102046B
:10008000081020408001020408102001020408101A
:100090002004040404040404040202020202020311
:1000A000030303030300000000250028002B0000C9
:1000B0000A02760211241FBECFEFD8E0DEBFCDBF0B
:1000C00011E0A0E0B1E0EAE8F2E202C005900D9292
:1000D000AC34B107D9F728E0ACE4B1E001C01D921F
:1000E000A13BB207E1F710E0CAE5D0E004C02197D8
:1000F000FE010E943411C835D107C9F70CD40C9405
:1001000043117ECFFC01918D228D892F90E0805C80
:100110009F4F821B91098F7399270895FC01918D40
:10012000828D981731F0828DE80FF11D858D90E05A
:1001300008958FEF9FEF0895FC01918D828D9817A0
:1001400061F0828DDF01A80FB11D5D968C91928DBB
:100150009F5F9F73928F90E008958FEF9FEF0895B8
:1001600081E092E0892B41F080E090E0892B21F042
:1001700048D181110C9400000895FC01848DDF01A9
:10018000A80FB11DA35ABF4F2C91848D90E001960A
:100190008F739927848FA689B7892C93A089B189F9
:1001A0008C9180648C93938D848D981306C0028803
:1001B000F389E02D80818F7D80830895CF93DF9335
:1001C000EC01888D8823C1F0EA89FB89808185FD57
:1001D00005C0A889B9898C9186FD0EC00FB607FCB1
:1001E000F5CF808185FFF2CFA889B9898C9185FFF1
:1001F000EDCFCE01C2DFE8CFDF91CF910895EF922E
:10020000FF920F931F93CF93DF93EC0181E0888FD0
:100210009B8D8C8D981305C0E889F989808185FDB7
:1002200023C0F62E0B8D10E00F5F1F4F0F731127A9
:10023000E02E8C8DE8120BC00FB607FCFACFE889D0
:10024000F989808185FFF5CFCE0197DFF2CF8B8DC5
:10025000FE01E80FF11DE35AFF4FF0820B8FEA8990
:10026000FB898081806207C0EE89FF896083E8890D
:10027000F98980818064808381E090E0DF91CF9173
:100280001F910F91FF90EF900895CF92DF92EF9220
:10029000FF921F93CF93DF93EC016A017B01122F32
:1002A000E889F98982E080834115514E6105710525
:1002B000B1F060E079E08DE390E0A70196010E9443
:1002C0001211DA01C9010197A109B109B695A795E3
:1002D00097958795AC01411580E15807A8F0E8890A
:1002E000F989108260E874E88EE190E0A701960138
:1002F0000E941211BA01A901415051096109710905
:100300007695679557954795EC85FD855083EE85E5
:10031000FF854083188EEC89FD891083EA89FB896B
:10032000808180618083EA89FB8980818860808305
:10033000EA89FB89808180688083EA89FB898081E2
:100340008F7D8083DF91CF911F91FF90EF90DF90A1
:10035000CF9008951F920F920FB60F9211242F93F2
:100360008F939F93EF93FF93E0915C01F0915D0178
:100370008081E0916201F091630182FD12C0908161
:10038000809165018F5F8F7320916601821751F014
:10039000E0916501F0E0E45BFE4F958F809365018D
:1003A00001C08081FF91EF919F918F912F910F90CC
:1003B0000FBE0F901F9018951F920F920FB60F92BD
:1003C00011242F933F934F935F936F937F938F935A
:1003D0009F93AF93BF93EF93FF938CE491E0CDDEB7
:1003E000FF91EF91BF91AF919F918F917F916F910D
:1003F0005F914F913F912F910F900FBE0F901F90E3
:1004000018958CE491E07EDE21E0892B09F420E050
:10041000822F0895ECE4F1E01382128288EE93E0DB
:10042000A0E0B0E084839583A683B7838AE191E05E
:100430009183808385EC90E09587848784EC90E0BD
:100440009787868780EC90E0918B808B81EC90E0A1
:10045000938B828B82EC90E0958B848B86EC90E082
:10046000978B868B118E128E138E148E08958F9219
:100470009F92AF92BF92CF92DF92EF92FF920F9333
:100480001F93CF93DF937C018B016C0182E0C80E38
:10049000D11C4701E5E08E0E911CC0E0D0E0F601D2
:1004A00061916F014AE050E0C80130D15C016EE219
:1004B000C80167D08A0D9B1DC80FD91FC814D90465
:1004C00071F74AE050E0F7016581C8011FD18C0F38
:1004D0009D1FDF91CF911F910F91FF90EF90DF90C3
:1004E000CF90BF90AF909F908F900895E9EEF1E08C
:1004F0008AE291E0918380831282138214821582B2
:100500000895CF92DF92EF92FF920F931F93CF93B4
:10051000DF936C017A018B01C0E0D0E0CE15DF05DE
:1005200089F0D8016D918D01D601ED91FC9101907A
:10053000F081E02DC6010995892B11F47E0102C0DE
:100540002196ECCFC701DF91CF911F910F91FF90C2
:10055000EF90DF90CF9008956115710579F0FB0160
:1005600001900020E9F73197AF01461B570BDC01E2
:10057000ED91FC910280F381E02D099480E090E000
:100580000895DC01ED91FC910190F081E02D09943A
:100590006CE271E0E1CF8F929F92AF92BF92CF92C7
:1005A000DF92EF92FF920F931F93CF93DF93CDB71C
:1005B000DEB7A1970FB6F894DEBF0FBECDBF7C01AA
:1005C000D42EC52EDB0119A2223008F42AE08E01B8
:1005D0000F5D1F4F822E912CA12CB12C6D2D7C2DE7
:1005E000CD01A50194010E941211D22EC32EDA0171
:1005F000015011096A3071058105910510F4605DA3
:1006000001C0695CF8016083232B242B252B31F773
:10061000B801C701A1DFA1960FB6F894DEBF0FBEE7
:10062000CDBFDF91CF911F910F91FF90EF90DF90A1
:10063000CF90BF90AF909F908F900895CF92DF9210
:10064000EF92FF920F931F93CF93DF93EC016A0118
:100650007B012115310579F4E881F9810190F08160
:10066000E02D642FDF91CF911F910F91FF90EF90BC
:10067000DF90CF9009942A303105D9F477FF18C064
:100680006DE27FDF8C0144275527BA014C195D09C3
:100690006E097F092AE0CE017EDF800F911FDF9176
:1006A000CF911F910F91FF90EF90DF90CF90089521
:1006B0002AE0B701A601CE01DF91CF911F910F91E2
:1006C000FF90EF90DF90CF9066CF0F931F93CF9363
:1006D000DF93EC019A01AB01770F660B770BAEDF6E
:1006E0008C01CE0155DF800F911FDF91CF911F91BB
:1006F0000F9108952115310541F4DC01ED91FC9134
:100700000190F081E02D642F099445CF9A01462F86
:1007100050E060E070E0EECF813039F018F08230C8
:1007200051F0089510926E00089580916F008D7FB2
:1007300080936F000895809170008D7F809370008A
:1007400081E08093B0008091B100887F84608093C5
:10075000B1001092B3000895CF93C82F80910A0181
:100760008C1307C0E8E6F0E0E4918FEF80930A0174
:1007700001C0EFEF8E2FD0DF60E08C2FCF91ACC1A6
:100780001F920F920FB60F9211242F933F934F9306
:100790005F936F937F938F939F93AF93BF93EF93E9
:1007A000FF938091F2019091F301A091F401B09137
:1007B000F501892B8A2B8B2B51F18091EF01E09170
:1007C000F001F091F1019081892780838091F201FD
:1007D0009091F301A091F401B091F501181619065A
:1007E0001A061B06BCF48091F2019091F301A091CE
:1007F000F401B091F5010197A109B1098093F201CB
:100800009093F301A093F401B093F50103C080919C
:100810000A01A2DFFF91EF91BF91AF919F918F915C
:100820007F916F915F914F913F912F910F900FBEEC
:100830000F901F90189508958230E8F4E82FF0E0AB
:10084000EE0FFF1FE55FFE4F71836083813041F043
:10085000809169008C7F482B40936900E89A089545
:1008600080916900440F551F440F551F837F482B0B
:1008700040936900E99A08951F920F920FB60F9264
:1008800011242F933F934F935F936F937F938F9395
:100890009F93AF93BF93EF93FF93E0910B01F09180
:1008A0000C010995FF91EF91BF91AF919F918F91AD
:1008B0007F916F915F914F913F912F910F900FBE5C
:1008C0000F901F9018951F920F920FB60F92112440
:1008D0002F933F934F935F936F937F938F939F9348
:1008E000AF93BF93EF93FF93E0910D01F0910E0151
:1008F0000995FF91EF91BF91AF919F918F917F915A
:100900006F915F914F913F912F910F900FBE0F907C
:100910001F90189508955FD0FDDFA3D1C0EBD0E004
:10092000BFD12097E9F31CDCFBCF1F920F920FB6CB
:100930000F9211242F933F938F939F93AF93BF9365
:100940008091F7019091F801A091F901B091FA011D
:100950003091F60123E0230F2D3720F40196A11DDD
:10096000B11D05C026E8230F0296A11DB11D2093DD
:10097000F6018093F7019093F801A093F901B093E9
:10098000FA018091FB019091FC01A091FD01B091D1
:10099000FE010196A11DB11D8093FB019093FC0106
:1009A000A093FD01B093FE01BF91AF919F918F91F4
:1009B0003F912F910F900FBE0F901F9018952FB75A
:1009C000F8946091F7017091F8018091F90190918C
:1009D000FA012FBF0895789484B5826084BD84B5F0
:1009E000816084BD85B5826085BD85B5816085BD2A
:1009F000EEE6F0E0808181608083E1E8F0E0108243
:100A0000808182608083808181608083E0E8F0E083
:100A1000808181608083E1EBF0E08081846080836D
:100A2000E0EBF0E0808181608083EAE7F0E08081A4
:100A30008460808380818260808380818160808304
:100A40008081806880831092C10008958E3008F004
:100A50008E50877020910F0190E4299F90011124FE
:100A6000822B80937C0080917A00806480937A004E
:100A700080917A0086FDFCCF8091780020917900EA
:100A800090E0922B0895833081F028F4813099F022
:100A90008230A1F008958730A9F08830B9F0843011
:100AA000D1F4809180008F7D03C0809180008F778A
:100AB00080938000089584B58F7702C084B58F7DC0
:100AC00084BD08958091B0008F7703C08091B000FD
:100AD0008F7D8093B00008951F93CF93DF93282FCD
:100AE00030E0F901E759FF4F8491F901E358FF4FD6
:100AF000D491F901EF56FF4FC491CC23C1F0162FCA
:100B00008111C1DFEC2FF0E0EE0FFF1FEB55FF4F1F
:100B1000A591B4918FB7F894111105C09C91ED2F58
:100B2000E095E92302C0EC91ED2BEC938FBFDF91B0
:100B3000CF911F91089500E02FEF3FEFA90160E0F2
:100B400070E080910E0290910F02F9D3813099F7F5
:100B500080910C0290910D02892B69F380E076DF81
:100B6000909303028093020222E030E040E050E0E4
:100B700062E072E080910C0290910D0226D3DBCFEF
:100B8000CF93DF9300D000D0CDB7DEB73BD66983DB
:100B90007A838B839C8380910C0290910D02009745
:100BA00041F000E022E030E040E050E060E072E040
:100BB000C6D360910002709101024AE050E08CE4DB
:100BC00091E083DD48E853E160E070E0CE010196FA
:100BD0005FD7E1CFCF92DF92EF92FF920F931F93F7
:100BE000EEDE609308027093090280930A029093EC
:100BF0000B021092FF010091040210910502209156
:100C00000602309107026B017C01C01AD10AE20A88
:100C1000F30A0091100110911101209112013091FD
:100C200013010C151D052E053F0578F46093040291
:100C30007093050280930602909307026FEF71E0B4
:100C400080910E0290910F0256D38091FF01813066
:100C500009F4F5D01F910F91FF90EF90DF90CF90A6
:100C6000089526E040E052EC61E070E08CE491E011
:100C70000CDB43E050E06AEE75E080E0DDDD43E050
:100C800060E081E070D290930F0280930E0240E00A
:100C900062E084E068D290930D0280930C02089584
:100CA000AF92BF92CF92DF92EF92FF920F93A12C5F
:100CB000B12CC12CD12CE12CF12C01E020E030E052
:100CC00048EC50E06BE371E08BE995E05ED420E006
:100CD00030E048EC50E061E471E080EC95E055D400
:100CE0000F91FF90EF90DF90CF90BF90AF9045C5F0
:100CF00031E1FC013083319722E220833197A3E375
:100D0000A083319760833197708331971082319738
:100D100060E8608331971082319762E06083319799
:100D200063E06083319764E06083319765E06083BE
:100D3000319766E06083319767E06083319768E0C0
:100D40006083319769E06083319760E16083319718
:100D50003083319732E13083319733E130833197FB
:100D600034E13083319735E13083319736E1308398
:100D7000319737E13083319738E13083319739E16A
:100D80003083319730E23083319731E230833197CD
:100D90002083319723E2208331974083319750831A
:100DA000319726E22083319727E22083319728E28A
:100DB0002083319729E22083319720E320833197E4
:100DC00021E320838697089589E08093890083EC4E
:100DD000809388008BE080938100EFE6F0E08081D3
:100DE00082608083A091CA02B091CB02CD91CDBF29
:100DF000DD91DEBFFF91EF91DF91CF91BF91AF9178
:100E00009F918F917F916F915F914F913F912F9122
:100E10001F910F91FF90EF90DF90CF90BF90AF9018
:100E20009F908F907F906F905F904F903F902F900A
:100E30001F900F900FBE0F90089581E008950F92BC
:100E40000FB6F8940F921F9211242F923F924F9257
:100E50005F926F927F928F929F92AF92BF92CF924A
:100E6000DF92EF92FF920F931F932F933F934F9335
:100E70005F936F937F938F939F93AF93BF93CF9322
:100E8000DF93EF93FF93A091CA02B091CB020DB60E
:100E90000D920EB60D9291D6A091CA02B091CB02DE
:100EA000CD91CDBFDD91DEBFFF91EF91DF91CF916D
:100EB000BF91AF919F918F917F916F915F914F9172
:100EC0003F912F911F910F91FF90EF90DF90CF9066
:100ED000BF90AF909F908F907F906F905F904F905A
:100EE0003F902F901F900F900FBE0F9008950F927C
:100EF0000FB6F8940F921F9211242F923F924F92A7
:100F00005F926F927F928F929F92AF92BF92CF9299
:100F1000DF92EF92FF920F931F932F933F934F9384
:100F20005F936F937F938F939F93AF93BF93CF9371
:100F3000DF93EF93FF93A091CA02B091CB020DB65D
:100F40000D920EB60D926CD4811137D6A091CA02C3
:100F5000B091CB02CD91CDBFDD91DEBFFF91EF917E
:100F6000DF91CF91BF91AF919F918F917F916F91C1
:100F70005F914F913F912F911F910F91FF90EF90B3
:100F8000DF90CF90BF90AF909F908F907F906F90A9
:100F90005F904F903F902F901F900F900FBE0F903B
:100FA0000895A5DF18951F93CF93DF93EC01142FBD
:100FB00088A181110BC088819981892B09F041C0DA
:100FC0008A819B818CD71B821A823CC0482F50E0BB
:100FD000111115C08C819D810E943A1128A18C812C
:100FE0009D81820F911D9D838C832A813B81821775
:100FF000930738F1888199819D838C8322C08E81EB
:101000009F810E943A1188A190E091958195910964
:101010002E813F81280F391F3F832E8348815981BC
:101020002417350730F42A813B81820F931F9F8359
:101030008E83123031F48E8D882319F08E8D81507D
:101040008E8F80E09E8D9F5F9E8FDF91CF911F914D
:101050000895FC01CB0140A14423A1F050E026817A
:101060003781240F351F37832683628173812617CA
:10107000370720F02081318137832683668177818D
:101080000C943A1108950F931F93CF93DF93EC01C3
:101090000FB6F8940F928C010D5E1F4F9AA119168E
:1010A0005CF48B89882341F0C8010DD68111B4D638
:1010B0009AA191509AA3F2CF8FEF8AA30F900FBEFF
:1010C0000FB6F8940F928E01085F1F4F99A1191661
:1010D0005CF48885882341F0C801F5D581119CD640
:1010E00099A1915099A3F2CF8FEF89A30F900FBED2
:1010F000DF91CF911F910F910895CF93DF93EC0172
:101100000FB6F8940F92288139819F8D48A1949F42
:10111000C0011124F901E80FF91FFB83EA831E8E39
:101120003D832C83841B9109820F931F9F838E83A1
:101130008FEF89A38AA361110AC08885882369F08B
:10114000CE010896C0D5813041F479DE06C0CE01CB
:101150000896CBD7CE014396C8D70F900FBE81E03B
:10116000DF91CF910895EF92FF921F93CF93DF937A
:101170001F92CDB7DEB7182F662331F0869F9001FE
:101180001124C901019602C080E090E08396698332
:10119000F2D67C016981009781F0611104C0FC01E5
:1011A0009183808304C08396F70191838083F70144
:1011B000178F60A361E0C701A0DFC7010F90DF9127
:1011C000CF911F91FF90EF900895AF92BF92CF9271
:1011D000DF92EF92FF920F93CF93DF93CDB7DEB7FD
:1011E00029970FB6F894DEBF0FBECDBF7C016B010F
:1011F0002E833F834887598790E0570188E0A80EE7
:10120000B11C0FB6F8940F92F701268D878D281721
:1012100010F00230A9F4402FB601C701C4DEF70177
:101220009389992339F0C70143964DD5813021F434
:1012300006DE02C08111FCCF0F900FBE81E04BC0D3
:101240004E815F8168857985452B462B472B19F4A4
:101250000F900FBE3FC0911103C0CE01019670D513
:101260000F900FBEC9D20FB6F8940F92F70181A16B
:101270008F3F09F411A2F70182A18F3F09F412A256
:101280000F900FBEBE016A5F7F4FCE01019669D5F8
:1012900081111DC00FB6F8940F92F701968D0F9033
:1012A0000FBE878D98130FC04E815F816885798549
:1012B000C501CFD4C701E7DE80D3882311F091E0C8
:1012C000A0CFBDDDFCCFC701DEDE77D3F8CFC701ED
:1012D000DADE73D380E029960FB6F894DEBF0FBE36
:1012E000CDBFDF91CF910F91FF90EF90DF90CF9026
:1012F000BF90AF900895CF93DF93FC01968D878DBB
:101300009817C8F4868D8F5F868F82A18F3F71F406
:101310008389882371F0EB01CF014396D4D48823CD
:1013200041F0209731F081E0888306C082A18F5F71
:1013300082A381E001C080E0DF91CF910895AF9258
:10134000BF92CF92DF92EF92FF920F93CF93DF93F2
:10135000CDB7DEB729970FB6F894DEBF0FBECDBF6D
:101360007C016B012E833F834887598790E05701AA
:1013700083E1A80EB11C0FB6F8940F92F701868D89
:10138000882361F1A680B780B601C70162DEF7014C
:10139000011116C0868D8150868F80819181892BA5
:1013A00021F4D7D5F70193838283F70180858823C1
:1013B00089F0C701089687D4813061F440DD0AC006
:1013C000B782A6828389882329F0C70143967BD4FC
:1013D0008111F4CF0F900FBE81E056C04E815F8126
:1013E00068857985452B462B472B19F40F900FBE46
:1013F0004AC0911103C0CE010196A2D40F900FBE36
:10140000FBD10FB6F8940F92F70181A18F3F09F439
:1014100011A2F70182A18F3F09F412A20F900FBE13
:10142000BE016A5F7F4FCE0101969BD4811128C017
:101430000FB6F8940F92F701868D0F900FBE8111B1
:101440001BC080819181892B41F40FB6F8940F92D3
:1014500082819381E5D40F900FBE4E815F816885B4
:101460007985C501F6D3C7010EDEA7D2882311F016
:1014700091E081CFE4DCFCCFC70105DE9ED2F8CF3E
:10148000C70101DE9AD280E029960FB6F894DEBF3C
:101490000FBECDBFDF91CF910F91FF90EF90DF9006
:1014A000CF90BF90AF900895E0914402F091450233
:1014B0008081811104C08FEF9FEFDC010EC0E091AD
:1014C0004402F09145020780F085E02D0084F1850B
:1014D000E02D82819381A481B58180931102909344
:1014E0001202A0931302B09314020895CF92DF92D8
:1014F000EF92FF92E091CA02F091CB026283738374
:1015000084839583C0901B02D0901C02E0901D0242
:10151000F0901E026C157D058E059F0578F4609194
:10152000CA027091CB0280914202909143026E5F99
:101530007F4FFF90EF90DF90CF900DC66B017C0145
:101540006091CA027091CB02809144029091450251
:101550006E5F7F4F00D68091110290911202A09190
:101560001302B0911402C816D906EA06FB0640F42D
:10157000C0921102D0921202E0921302F092140271
:10158000FF90EF90DF90CF9008955F926F927F92DF
:101590008F929F92AF92BF92CF92DF92EF92FF9283
:1015A0000F931F93CF93DF934C01162F572E5A01A1
:1015B0003901C114D10431F4CA01DDD46C01892B85
:1015C00009F4CAC08CE290E0D6D4EC01009779F01F
:1015D000DC8ECB8E21E0A21AB108AC0CBD1CBC0184
:1015E000635E7F4FE12FF52DCF01089606C0C6013F
:1015F00052D5B2C0E817F90749F09F014191DB01CC
:101600004D93BD01D9012C912111F4CF1CA2102FB3
:101610000A3008F019E01A8F1DA31EA26E01B2E075
:10162000CB0ED11CC60172D5CE010E966FD5DB87CD
:10163000CA878AE090E0A0E0B0E0811B9109A1098F
:10164000B1098E879F87A88BB98BDF8BCE8B1FA2AA
:1016500018A619A61AA61BA6A301B401C50148DB4A
:1016600099838883E114F10419F0F701D183C083D1
:101670000FB6F8940F9280911F028F5F80931F0224
:101680008091CA029091CB02892B99F5D093CB021D
:10169000C093CA0280911F02813009F039C08CE5E5
:1016A000E82E82E0F82EC70120D5FBE0EF0EF11CFA
:1016B0002AECE21622E0F206B1F781E592E015D5B8
:1016C00086E492E012D587E392E00FD58CE292E0B7
:1016D0000CD580E292E009D581E592E09093450235
:1016E0008093440286E492E0909343028093420206
:1016F0000FC08091190281110BC0E091CA02F091D4
:10170000CB02828D081720F0D093CB02C093CA027F
:10171000809115028F5F809315028A8D90911A0235
:10172000981710F480931A02ABE08A9FC00111242D
:10173000B601845A9D4FEED40F900FBE80911902CE
:10174000882341F0E091CA02F091CB02828D80178C
:1017500008F475DB81E001C08FEFDF91CF911F911D
:101760000F91FF90EF90DF90CF90BF90AF909F9040
:101770008F907F906F905F900895AF92BF92CF92BD
:10178000DF92EF92FF920F93A12CB12CC12CD12CA0
:10179000E12CF12C00E020E030E045E550E067E48A
:1017A00071E08FEA9DE0F1DE8130F1F4F8944FEFC3
:1017B0005FEFBA014093110250931202609313023B
:1017C000709314028093190210921B0210921C0253
:1017D00010921D0210921E020F91FF90EF90DF9069
:1017E000CF90BF90AF90F0CA0F91FF90EF90DF9035
:1017F000CF90BF90AF900895809110028F5F80933B
:10180000100208950FB6F8940F9260911B02709128
:101810001C0280911D0290911E020F900FBE089530
:101820008F929F92AF92BF92EF92FF920F931F936E
:10183000CF93DF93809110028111A9C080911B0288
:1018400090911C02A0911D02B0911E020196A11D53
:10185000B11D80931B0290931C02A0931D02B093B4
:101860001E0280901B0290901C02A0901D02B0905E
:101870001E0281149104A104B104B1F480914402C8
:1018800090914502209142023091430230934502EB
:101890002093440290934302809342028091160267
:1018A0008F5F8093160200DE8091110290911202E8
:1018B000A0911302B0911402C0E088169906AA06FE
:1018C000BB0608F454C0DBE0E0914402F09145020D
:1018D0008081811104C08FEF9FEFDC0113C0E09184
:1018E0004402F09145020780F085E02D00851185C6
:1018F000F80182819381A481B58188169906AA0690
:10190000BB0648F48093110290931202A093130235
:10191000B09314022CC07801F2E0EF0EF11CC70165
:101920005ED4D80158968D919C915997892B19F0C6
:10193000C8010E9654D4F801928D80911A0289172D
:1019400010F490931A02D99FC0011124B701845A50
:101950009D4FE0D3E091CA02F091CB02D8015A9694
:101960009C91828D981708F4AFCFC1E0ADCFE09184
:10197000CA02F091CB02E28DBBE0EB9FF001112493
:10198000E45AFD4F8081823040F0C1E006C0809172
:1019900018028F5F80931802C0E0809117028111B6
:1019A000C1E08C2FDF91CF911F910F91FF90EF90AD
:1019B000BF90AF909F908F900895EF92FF920F93FA
:1019C0001F93CF93DF930FB6F8940F92809110027C
:1019D00081508093100280911002882311F080E0E2
:1019E0004EC080911F028823D1F38BE0F82EEE24A5
:1019F000E39480913702882339F1E0913E02F0911F
:101A00003F02C085D185CE010E96E9D38E010E5FCF
:101A10001F4FC801E4D39A8D80911A02891710F4E0
:101A200090931A02F99EC0011124B801845A9D4F67
:101A300071D3E091CA02F091CB029A8D828D9817F2
:101A4000C0F2E0921702D5CF80911802811108C030
:101A500080911702813009F0C2CFF1D981E00FC027
:101A6000C1E080911802882399F3DADE8111C093D6
:101A7000170280911802815080931802F2CF0F90C4
:101A80000FBEDF91CF911F910F91FF90EF900895BE
:101A9000AF92BF92CF92DF92EF92FF920F931F937C
:101AA000CF93DF9300D000D0CDB7DEB75C01498380
:101AB0005A836B837C83A0DE00911B0210911C0271
:101AC00020911D0230911E02F50180819181A28139
:101AD000B38149815A816B817C816C017D01C40E87
:101AE000D51EE61EF71E081719072A073B0730F414
:101AF000C816D906EA06FB0660F405C0C816D90662
:101B0000EA06FB0640F091E00C151D052E053F0589
:101B100018F090E001C091E0F501C082D182E2822C
:101B2000F382992349F08091CA029091CB020296E8
:101B300056D3C701B601DADC40DF811101C07FD97D
:101B40000F900F900F900F90DF91CF911F910F91F9
:101B5000FF90EF90DF90CF90BF90AF90089580916D
:101B60002B02882321F148DEC0912C0226DFCC23F2
:101B7000B1F30FB6F8940F92E0913302F091340272
:101B8000C085D185CE0102962AD380911F02815053
:101B900080931F0280912B02815080932B020F9023
:101BA0000FBE8B8D9C8D77D2CE0175D2D8CF809110
:101BB0005C028230A0F243D9D2CF809110028823F8
:101BC00021F081E0809317020895109217029BE0A4
:101BD000E0911A029E9FF0011124E45AFD4F80818A
:101BE000811106C080911A02815080931A02F0CFB1
:101BF00080911A0290E04BE0489F9001499F300D80
:101C00001124F901E45AFD4FA181B28114960D907F
:101C1000BC91A02DB283A183215A3D4FA217B307D7
:101C200031F414962D913C911597328321832BE04A
:101C3000289FF001299FF00D1124E45AFD4F0180E7
:101C4000F281E02D808591859093CB028093CA022A
:101C50000895CF92DF92EF92FF926A017B0120916B
:101C6000CA023091CB02B901625F7F4F74D280917A
:101C7000CA029091CB020296B2D28FEFC816D80654
:101C8000E806F80669F46091CA027091CB026E5FB3
:101C90007F4F80E292E0FF90EF90DF90CF903AC2CA
:101CA00080911B0290911C02A0911D02B0911E0216
:101CB000BC01CD016C0D7D1D8E1D9F1DFF90EF9011
:101CC000DF90CF9013CC0F931F93CF93DF93DC0162
:101CD0001796ED91FC911897C085D1858E01025F12
:101CE0001F4FC8017CD280911002811113C00C508B
:101CF0001109C80174D29A8D80911A02891710F4C3
:101D000090931A02BBE09B9FC0011124B801845A32
:101D10009D4F03C0B80187E392E0FCD1E091CA0275
:101D2000F091CB029A8D828D891720F481E0809307
:101D3000170201C080E0DF91CF911F910F910895AC
:101D400020911602FC01208340911B0250911C023D
:101D500060911D0270911E024183528363837483DC
:101D600008958F929F92AF92BF92CF92DF92EF929F
:101D7000FF920F931F93CF93DF93FB010FB6F8945D
:101D80000F92C0901B02D0901C02E0901D02F090B8
:101D90001E0240815181628173814F3F2FEF5207B4
:101DA0006207720739F1B0911602EC01A88109812E
:101DB0001A812B813C81BA1729F0C016D106E206A0
:101DC000F306D0F446015701801A910AA20AB30A19
:101DD00084169506A606B70678F40C191D092E0977
:101DE0003F09400F511F621F731F4083518362835D
:101DF0007383A6DF80E001C081E00F900FBEDF910A
:101E0000CF911F910F91FF90EF90DF90CF90BF90F7
:101E1000AF909F908F90089581E08093170208956E
:101E20000F931F93CF93DF93FC01892B09F452C0CA
:101E3000828DA091CA02B091CB025A969C918917CB
:101E400008F048C0468557856089718977FD12C0C2
:101E5000A091CA02B091CB025A969C914AE050E000
:101E600060E070E0491B5109610971094687578795
:101E7000608B718B2BE0829FC0011124845A9D4F8F
:101E80002485358528173907F1F48F01EF01229653
:101E9000CE01A5D1E091CA02F091CB02928DF8015A
:101EA000928F80911A02891710F490931A02FBE026
:101EB0009F9FC0011124BE01845A9D4FDF91CF9195
:101EC0001F910F9127C1A091CA02B091CB025A96DF
:101ED0008C91828FDF91CF911F910F9108950F9375
:101EE0001F93CF93DF93FC01892B11F480E02CC06A
:101EF00086A1815086A3228D95A12917B9F381115E
:101F0000F5CFEF018F010E5F1F4FC80168D19DA172
:101F10009A8F4AE050E060E070E0491B5109610986
:101F200071094E875F87688B798B80911A028917B8
:101F300010F490931A022BE0929FC0011124B80173
:101F4000845A9D4FE7D081E0DF91CF911F910F918F
:101F500008958091CA029091CB02892B39F0E091CB
:101F6000CA02F091CB0286A18F5F86A38091CA023C
:101F70009091CB0208950F931F93CF93DF93EC01C1
:101F80003BDC8091CC02811121C086ED92E09093E0
:101F9000D2028093D1021092D4021092D3028BED20
:101FA00095E09093D0028093CF021092CE021092CF
:101FB000CD029093D9028093D8028DEC92E0909359
:101FC000D7028093D60281E08093CC02209709F05B
:101FD0002496CE0101978A3D954008F053C0E091C8
:101FE000D102F091D202A1EDB2E0828193818C17EF
:101FF0009D0728F022E0ED3CF20749F443C0208120
:10200000318121153105B1F3DF01F901EECF0D91D9
:102010001C9111970C5F1F4F208131812D933C93B0
:102020008C1B9D0B8930910500F1DF01AC0FBD1FAA
:1020300013969C938E931297D383C28312962D91FD
:102040003C91139761ED72E0EB0188819981EC017D
:102050004A815B814217530710F4BC01F5CF1196FA
:102060009C938E93EB01B983A88380911401909186
:10207000150122813381821B930B9093150180936C
:10208000140102C000E010E098DCC801DF91CF919C
:102090001F910F910895CF93DF93009719F1EC01F1
:1020A0002497AADB8A819B81E1EDF2E0A081B181D6
:1020B00012962D913C9113972817390710F4FD01C2
:1020C000F5CFB983A883D183C083209114013091C7
:1020D0001501820F931F9093150180931401DF91D6
:1020E000CF916BCCDF91CF910895FC010396928341
:1020F00081834FEF5FEFBA01438354836583768317
:10210000908787839287818710820895FC011386C8
:1021100012860895CF93DF939C01FB01DC01119699
:10212000CD91DC911297D583C4838E819F81978353
:1021300086838E819F81DC0115967C936E93149724
:102140007F836E8333872287F90180818F5F80834D
:10215000DF91CF910895EF92FF920F931F93CF934A
:10216000DF937C01FB0140815181628173814F3F8C
:102170008FEF58076807780721F4E701A985BA852A
:1021800012C0D701139614968D919C911597EC016E
:10219000088119812A813B81401751076207730723
:1021A00010F0DC01F0CF14968D919C9115979583DA
:1021B0008483EC01FF83EE83B783A6831596FC939B
:1021C000EE931497F386E286F70180818F5F808318
:1021D000DF91CF911F910F91FF90EF900895CF93D2
:1021E000DF93FC01A285B3858481958126813781A7
:1021F000EC013F832E83C681D7819D838C8311960A
:102200008D919C9112978E179F0721F41296DC9363
:10221000CE931197138612868C9181508C93DF9107
:10222000CF910895A1E21A2EAA1BBB1BFD010DC080
:10223000AA1FBB1FEE1FFF1FA217B307E407F50776
:1022400020F0A21BB30BE40BF50B661F771F881F52
:10225000991F1A9469F760957095809590959B01E8
:10226000AC01BD01CF010895EE0FFF1F0590F49161
:10227000E02D0994FB01DC0102C001900D92415058
:0A2280005040D8F70895F894FFCFFE
:10228A000000B108800001000000FF1B041B0401CC
:10229A00C8000000DB0500000000FF008102820088
:1022AA009C008E00DE000000000037020D0A006E5E
:1022BA00616E00696E66006F7666005461736B31F9
:0C22CA00005461736B320049444C450025
:00000001FF
