:100000005EC000005AC300007FC300007FC0000034
:100010007DC000007BC0000079C00000F2C200007B
:1000200075C0000073C0000071C000000C94920BFA
:100030006DC000006BC0000069C0000067C0000018
:1000400095C3000063C0000025C1000055C1000039
:100050005DC000005BC0000059C0000057C0000038
:1000600055C0000053C0000002000000080002015B
:10007000000003040700000000000000000102046B
:10008000081020408001020408102001020408101A
:100090002004040404040404040202020202020311
:1000A000030303030300000000250028002B0000C9
:1000B000000000240027002A0000AA0116021124D3
:1000C0001FBECFEFD8E0DEBFCDBF11E0A0E0B1E0B2
:1000D000E6EBF8E102C005900D92A434B107D9F720
:1000E00028E0A4E4B1E001C01D92AD38B207E1F709
:1000F00010E0CFE5D0E004C02197FE010E94530C30
:10010000CD35D107C9F728D30C94590C79CFFC0110
:10011000918D228D892F90E0805C9F4F821B9109E9
:100120008F7399270895FC01918D828D981731F076
:10013000828DE80FF11D858D90E008958FEF9FEF80
:100140000895FC01918D828D981761F0828DDF01F9
:10015000A80FB11D5D968C91928D9F5F9F73928FBA
:1001600090E008958FEF9FEF089581EA91E0892B49
:1001700041F080E090E0892B21F0E3D081110C94D4
:1001800000000895FC01848DDF01A80FB11DA35A62
:10019000BF4F2C91848D90E001968F739927848FA7
:1001A000A689B7892C93A089B1898C9180648C939E
:1001B000938D848D981306C00288F389E02D808189
:1001C0008F7D80830895CF93DF93EC01888D882302
:1001D000C1F0EA89FB89808185FD05C0A889B989BC
:1001E0008C9186FD0EC00FB607FCF5CF808185FF90
:1001F000F2CFA889B9898C9185FFEDCFCE01C2DFFE
:10020000E8CFDF91CF910895EF92FF920F931F9364
:10021000CF93DF93EC0181E0888F9B8D8C8D9813B9
:1002200005C0E889F989808185FD23C0F62E0B8DF4
:1002300010E00F5F1F4F0F731127E02E8C8DE81217
:100240000BC00FB607FCFACFE889F989808185FFDA
:10025000F5CFCE0197DFF2CF8B8DFE01E80FF11DB8
:10026000E35AFF4FF0820B8FEA89FB89808180621D
:1002700007C0EE89FF896083E889F98980818064FD
:10028000808381E090E0DF91CF911F910F91FF90EB
:10029000EF9008951F920F920FB60F9211242F9393
:1002A0008F939F93EF93FF93E0915401F091550149
:1002B0008081E0915A01F0915B0182FD12C0908132
:1002C00080915D018F5F8F7320915E01821751F0E5
:1002D000E0915D01F0E0EC5BFE4F958F80935D0156
:1002E00001C08081FF91EF919F918F912F910F908D
:1002F0000FBE0F901F9018951F920F920FB60F927E
:1003000011242F933F934F935F936F937F938F931A
:100310009F93AF93BF93EF93FF9384E491E032DF19
:10032000FF91EF91BF91AF919F918F917F916F91CD
:100330005F914F913F912F910F900FBE0F901F90A3
:10034000189584E491E0E3DE21E0892B09F420E0B4
:10035000822F0895E4E4F1E01382128288EE93E0A4
:10036000A0E0B0E084839583A683B78385E191E024
:100370009183808385EC90E09587848784EC90E07E
:100380009787868780EC90E0918B808B81EC90E062
:10039000938B828B82EC90E0958B848B86EC90E043
:1003A000978B868B118E128E138E148E08958F92DA
:1003B0009F92AF92BF92CF92DF92EF92FF920F93F4
:1003C0001F93CF93DF937C018B016C0182E0C80EF9
:1003D000D11C4701E5E08E0E911CC0E0D0E0F60193
:1003E00061916F014AE050E0C801D1D05C016EE23A
:1003F000C80167D08A0D9B1DC80FD91FC814D90426
:1004000071F74AE050E0F7016581C801C0D08C0F58
:100410009D1FDF91CF911F910F91FF90EF90DF9083
:10042000CF90BF90AF909F908F900895E1EEF1E054
:1004300085E291E091838083128213821482158277
:100440000895CF92DF92EF92FF920F931F93CF9375
:10045000DF936C017A018B01C0E0D0E0CE15DF059F
:1004600089F0D8016D918D01D601ED91FC9101903B
:10047000F081E02DC6010995892B11F47E0102C09F
:100480002196ECCFC701DF91CF911F910F91FF9083
:10049000EF90DF90CF9008956115710579F0FB0121
:1004A00001900020E9F73197AF01461B570BDC01A3
:1004B000ED91FC910280F381E02D099480E090E0C1
:1004C0000895DC01ED91FC910190F081E02D0994FB
:1004D0008F929F92AF92BF92CF92DF92EF92FF9254
:1004E0000F931F93CF93DF93CDB7DEB7A1970FB6CE
:1004F000F894DEBF0FBECDBF7C01D42EC52EDB012C
:1005000019A2223008F42AE08E010F5D1F4F822EBF
:10051000912CA12CB12C6D2D7C2DCD01A501940128
:100520000E94310CD22EC32EDA01015011096A301B
:1005300071058105910510F4605D01C0695CF801E9
:100540006083232B242B252B31F7B801C701A4DFAF
:10055000A1960FB6F894DEBF0FBECDBFDF91CF914D
:100560001F910F91FF90EF90DF90CF90BF90AF90D1
:100570009F908F9008952115310541F4DC01ED9194
:10058000FC910190F081E02D642F0994A1CF9A0194
:10059000462F50E060E070E0EECF813039F018F087
:1005A000823051F0089510926E00089580916F008E
:1005B0008D7F80936F000895809170008D7F809370
:1005C000700081E08093B0008091B100887F8460EA
:1005D0008093B1001092B3000895CF93C82F8091FB
:1005E0000A018C1307C0E8E6F0E0E4918FEF8093F6
:1005F0000A0101C0EFEF8E2FD0DF60E08C2FCF918A
:100600009FC11F920F920FB60F9211242F933F9309
:100610004F935F936F937F938F939F93AF93BF930A
:10062000EF93FF938091EA019091EB01A091EC018F
:10063000B091ED01892B8A2B8B2B51F18091E70131
:10064000E091E801F091E901908189278083809110
:10065000EA019091EB01A091EC01B091ED01181627
:1006600019061A061B06BCF48091EA019091EB0171
:10067000A091EC01B091ED010197A109B10980931E
:10068000EA019093EB01A093EC01B093ED0103C05C
:1006900080910A01A2DFFF91EF91BF91AF919F91ED
:1006A0008F917F916F915F914F913F912F910F901B
:1006B0000FBE0F901F90189508951F920F920FB6BE
:1006C0000F9211242F933F934F935F936F937F93D8
:1006D0008F939F93AF93BF93EF93FF93E0910B01A1
:1006E000F0910C010995FF91EF91BF91AF919F910E
:1006F0008F917F916F915F914F913F912F910F90CB
:100700000FBE0F901F9018951F920F920FB60F9269
:1007100011242F933F934F935F936F937F938F9306
:100720009F93AF93BF93EF93FF93E0910D01F091EF
:100730000E010995FF91EF91BF91AF919F918F911C
:100740007F916F915F914F913F912F910F900FBECD
:100750000F901F901895089553D0FDDFB8D1C5EBC9
:10076000D0E0C1D12097E9F300DDFBCF1F920F92BB
:100770000FB60F9211242F933F938F939F93AF93B4
:10078000BF938091EF019091F001A091F101B091A0
:10079000F2013091EE0123E0230F2D3720F4019672
:1007A000A11DB11D05C026E8230F0296A11DB11D94
:1007B0002093EE018093EF019093F001A093F1015B
:1007C000B093F2018091F3019091F401A091F501B1
:1007D000B091F6010196A11DB11D8093F301909394
:1007E000F401A093F501B093F601BF91AF919F91F1
:1007F0008F913F912F910F900FBE0F901F901895E2
:10080000789484B5826084BD84B5816084BD85B5EB
:10081000826085BD85B5816085BDEEE6F0E08081B2
:1008200081608083E1E8F0E01082808182608083D3
:10083000808181608083E0E8F0E080818160808356
:10084000E1EBF0E0808184608083E0EBF0E0808188
:1008500081608083EAE7F0E080818460808380812A
:1008600082608083808181608083808180688083D2
:100870001092C1000895833081F028F4813099F0FE
:100880008230A1F008958730A9F08830B9F0843023
:10089000D1F4809180008F7D03C0809180008F779C
:1008A00080938000089584B58F7702C084B58F7DD2
:1008B00084BD08958091B0008F7703C08091B0000F
:1008C0008F7D8093B0000895CF93DF9390E0FC017B
:1008D000E358FF4F2491FC01EF56FF4F849188238A
:1008E00061F190E0880F991FFC01E155FF4FC59120
:1008F000D491FC01EB55FF4FA591B491611109C052
:100900009FB7F8948881209582238883EC912E23C9
:100910000BC0623061F49FB7F8943881822F8095C4
:1009200083238883EC912E2B2C939FBF06C08FB717
:10093000F894E8812E2B28838FBFDF91CF91089503
:100940001F93CF93DF93282F30E0F901E759FF4F32
:100950008491F901E358FF4FD491F901EF56FF4F0D
:10096000C491CC23C1F0162F811185DFEC2FF0E06C
:10097000EE0FFF1FEB55FF4FA591B4918FB7F89481
:10098000111105C09C91ED2FE095E92302C0EC9177
:10099000ED2BEC938FBFDF91CF911F910895CF93F3
:1009A000DF9300D000D0CDB7DEB782D269837A83DF
:1009B0008B839C8361E086E0C3DF4BE450E060E022
:1009C00070E0CE010196BAD360E086E0B9DF4BE477
:1009D00050E060E070E0CE010196B0D3EBCFCF9352
:1009E000DF9300D000D0CDB7DEB762D269837A83BF
:1009F0008B839C8361E087E0A3DF48EE53E060E0F7
:100A000070E0CE0101969AD360E087E099DF48EE6E
:100A100053E060E070E0CE01019690D3EBCFCF932E
:100A2000DF9300D000D0CDB7DEB742D269837A839E
:100A30008B839C8361E088E083DF40ED57E060E0DA
:100A400070E0CE0101967AD360E088E079DF40ED76
:100A500057E060E070E0CE01019670D3EBCFCF930A
:100A6000DF9300D000D0CDB7DEB706EF1FEF8AE0EE
:100A7000882E912CA12CB12C1BD269837A838B8375
:100A80009C8361E089E05CDF6801012E000CEE08C8
:100A9000FF08B701A601465F5F4F6F4F7F4FCE0142
:100AA00001964CD360E089E04BDFB501A4014C19FD
:100AB0005D096E097F09CE01019640D30A30110508
:100AC00019F406EF1FEFD8CF0F5F1F4FD5CF61E0AE
:100AD00086E0FADE61E087E0F7DE61E088E0F4DEE0
:100AE00061E089E0F1CEAF92BF92CF92DF92EF92B8
:100AF000FF920F93A12CB12CC12CD12CE12CF12C05
:100B000003E020E030E048EC50E067E271E08FEC79
:100B100094E097D002E020E030E048EC50E06DE255
:100B200071E08FEE94E08DD001E020E030E048EC01
:100B300050E063E371E08FE095E083D004E020E0D3
:100B400030E048EC50E069E371E08FE295E079D065
:100B50000F91FF90EF90DF90CF90BF90AF9063C167
:100B6000E0912002F09121028081811104C08FEF79
:100B70009FEFDC010EC0E0912002F091210207807E
:100B8000F085E02D0084F185E02D82819381A481A0
:100B9000B5818093F8019093F901A093FA01B09385
:100BA000FB010895CF92DF92EF92FF92E091A602AF
:100BB000F091A7026283738384839583C0900202BD
:100BC000D0900302E0900402F09005026C157D05C0
:100BD0008E059F0578F46091A6027091A70280911E
:100BE0001E0290911F026E5F7F4FFF90EF90DF908B
:100BF000CF90D0C56B017C016091A6027091A702D5
:100C000080912002909121026E5F7F4FC3D5809129
:100C1000F8019091F901A091FA01B091FB01C81679
:100C2000D906EA06FB0640F4C092F801D092F90119
:100C3000E092FA01F092FB01FF90EF90DF90CF90ED
:100C400008955F926F927F928F929F92AF92BF9220
:100C5000CF92DF92EF92FF920F931F93CF93DF9388
:100C60004C01162F572E5A013901C114D10431F409
:100C7000CA0145D36C01892B09F4C4C08AE290E013
:100C80003ED3EC01009779F0DC8ECB8E21E0A21AE6
:100C9000B108AC0CBD1CBC01635E7F4FE12FF52D8C
:100CA000CF01089606C0C601BAD3ACC0E817F90751
:100CB00049F09F014191DB014D93BD01D9012C9178
:100CC0002111F4CF1CA2102F0A3008F019E01A8F5E
:100CD0006E01B2E0CB0ED11CC60137D5CE010E9607
:100CE00034D5DB87CA878AE090E0A0E0B0E0811BC2
:100CF0009109A109B1098E879F87A88BB98BDF8BDA
:100D0000CE8B1DA21EA21FA218A619A6A301B40174
:100D1000C501AFD399838883E114F10419F0F70179
:100D2000D183C0830FB6F8940F92809106028F5F33
:100D3000809306028091A6029091A702892B79F5F3
:100D4000D093A702C093A602809106028130B1F52C
:100D500088E3E82E82E0F82EC701E6D4FBE0EF0E30
:100D6000F11C26EAE21622E0F206B1F78DE292E0EB
:100D7000DBD482E292E0D8D483E192E0D5D488E05B
:100D800092E0D2D48DE292E09093210280932002EF
:100D900082E292E090931F0280931E020FC0809126
:100DA000000281110BC0E091A602F091A702828D92
:100DB000081720F0D093A702C093A6028091FC01EF
:100DC0008F5F8093FC018A8D90910102981710F437
:100DD00080930102ABE08A9FC0011124B601885CB8
:100DE0009D4FB7D40F900FBE80910002882341F031
:100DF000E091A602F091A702828D801708F4E0D35B
:100E000081E001C08FEFDF91CF911F910F91FF9093
:100E1000EF90DF90CF90BF90AF909F908F907F909A
:100E20006F905F900895AF92BF92CF92DF92EF9252
:100E3000FF920F93A12CB12CC12CD12CE12CF12CC1
:100E400000E020E030E045E550E06FE371E085E050
:100E500099E0F7DE8130F1F4F8944FEF5FEFBA01DB
:100E60004093F8015093F9016093FA017093FB01EC
:100E70008093000210920202109203021092040268
:100E8000109205020F91FF90EF90DF90CF90BF90EE
:100E9000AF905BC30F91FF90EF90DF90CF90BF902A
:100EA000AF9008958091F7018F5F8093F7010895C7
:100EB0000FB6F8940F926091020270910302809134
:100EC0000402909105020F900FBE08958F929F9299
:100ED000AF92BF92EF92FF920F931F93CF93DF9346
:100EE0008091F7018111A9C08091020290910302C3
:100EF000A0910402B09105020196A11DB11D80933D
:100F0000020290930302A0930402B0930502809022
:100F1000020290900302A0900402B0900502811496
:100F20009104A104B104B1F48091200290912102B6
:100F300020911E0230911F02309321022093200243
:100F400090931F0280931E028091FD018F5F80931A
:100F5000FD0106DE8091F8019091F901A091FA015E
:100F6000B091FB01C0E088169906AA06BB0608F4FA
:100F700054C0DBE0E0912002F091210280818111D8
:100F800004C08FEF9FEFDC0113C0E0912002F091CD
:100F900021020780F085E02D00851185F80182810E
:100FA0009381A481B58188169906AA06BB0648F4E8
:100FB0008093F8019093F901A093FA01B093FB019B
:100FC0002CC07801F2E0EF0EF11CC70127D4D80144
:100FD00058968D919C915997892B19F0C8010E96BE
:100FE0001DD4F801928D80910102891710F490931D
:100FF0000102D99FC0011124B701885C9D4FA9D37C
:10100000E091A602F091A702D8015A969C91828D98
:10101000981708F4AFCFC1E0ADCFE091A602F091F0
:10102000A702E28DBBE0EB9FF0011124E85CFD4FCD
:101030008081823040F0C1E006C08091FF018F5F67
:101040008093FF01C0E08091FE018111C1E08C2FEF
:10105000DF91CF911F910F91FF90EF90BF90AF90D4
:101060009F908F900895EF92FF920F931F93CF93CD
:10107000DF930FB6F8940F928091F701815080931F
:10108000F7018091F701882311F080E04EC0809134
:1010900006028823D1F38BE0F82EEE24E3948091AE
:1010A0001302882339F1E0911A02F0911B02C085E6
:1010B000D185CE010E96B2D38E010E5F1F4FC801AF
:1010C000ADD39A8D80910102891710F4909301029B
:1010D000F99EC0011124B801885C9D4F3AD3E0917C
:1010E000A602F091A7029A8D828D9817C0F2E09225
:1010F000FE01D5CF8091FF01811108C08091FE01D2
:10110000813009F0C2CF5CD281E00FC0C1E0809194
:10111000FF01882399F3DADE8111C093FE018091EB
:10112000FF0181508093FF01F2CF0F900FBEDF913E
:10113000CF911F910F91FF90EF900895AF92BF92C2
:10114000CF92DF92EF92FF920F931F93CF93DF9393
:1011500000D000D0CDB7DEB75C0149835A836B83E2
:101160007C83A0DE00910202109103022091040210
:1011700030910502F50180819181A281B38149817D
:101180005A816B817C816C017D01C40ED51EE61EE7
:10119000F71E081719072A073B0730F4C816D906A7
:1011A000EA06FB0660F405C0C816D906EA06FB0687
:1011B00040F091E00C151D052E053F0518F090E05C
:1011C00001C091E0F501C082D182E282F3829923CD
:1011D00049F08091A6029091A70202961FD3C70101
:1011E000B601E0DC40DF811101C0EAD10F900F9021
:1011F0000F900F90DF91CF911F910F91FF90EF9083
:10120000DF90CF90BF90AF90089580910702882320
:1012100021F148DEC091080226DFCC23B1F30FB6DE
:10122000F8940F92E0910F02F0911002C085D185E1
:10123000CE010296F3D2809106028150809306027D
:10124000809107028150809307020F900FBE8B8D13
:101250009C8DE5D0CE01E3D0D8CF8091380282308A
:10126000A0F2AED1D2CF8091F701882321F081E0A6
:101270008093FE0108951092FE019BE0E09101022F
:101280009E9FF0011124E85CFD4F8081811106C012
:1012900080910102815080930102F0CF8091010280
:1012A00090E04BE0489F9001499F300D1124F901D7
:1012B000E85CFD4FA181B28114960D90BC91A02DE8
:1012C000B283A183255C3D4FA217B30731F4149676
:1012D0002D913C911597328321832BE0289FF001BB
:1012E000299FF00D1124E85CFD4F0180F281E02D73
:1012F000808591859093A7028093A60208950F930D
:101300001F93CF93DF93EC01CDDD8091A802811173
:1013100021C082EB92E09093AE028093AD021092D6
:10132000B0021092AF028BED95E09093AC028093E7
:10133000AB021092AA021092A9029093B502809378
:10134000B40289EA92E09093B3028093B20281E002
:101350008093A802209709F02496CE0101978A3D38
:10136000954008F053C0E091AD02F091AE02ADEAB5
:10137000B2E0828193818C179D0728F022E0E93A40
:10138000F20749F443C02081318121153105B1F3C1
:10139000DF01F901EECF0D911C9111970C5F1F4FEA
:1013A000208131812D933C938C1B9D0B89309105BD
:1013B00000F1DF01AC0FBD1F13969C938E93129723
:1013C000D383C28312962D913C9113976DEA72E0FC
:1013D000EB0188819981EC014A815B8142175307B7
:1013E00010F4BC01F5CF11969C938E93EB01B98359
:1013F000A88380910F019091100122813381821B7B
:10140000930B9093100180930F0102C000E010E055
:101410002ADEC801DF91CF911F910F910895CF93DC
:10142000DF93009719F1EC0124973CDD8A819B81C1
:10143000EDEAF2E0A081B18112962D913C911397D3
:101440002817390710F4FD01F5CFB983A883D1839C
:10145000C08320910F0130911001820F931F909350
:10146000100180930F01DF91CF91FDCDDF91CF91DE
:10147000089531E1FC013083319722E220833197D6
:10148000A3E3A083319760833197708331971082F3
:10149000319760E8608331971082319762E0608312
:1014A000319763E06083319764E06083319765E052
:1014B0006083319766E06083319767E0608331979E
:1014C00068E06083319769E06083319760E1608311
:1014D00031973083319732E13083319733E1308374
:1014E000319734E13083319735E13083319736E1FC
:1014F0003083319737E13083319738E1308331974A
:1015000039E13083319730E23083319731E23083F3
:1015100031972083319723E220833197408331979D
:101520005083319726E22083319727E22083319739
:1015300028E22083319729E22083319720E320831A
:10154000319721E320838697089589E0809389006D
:1015500083EC809388008BE080938100EFE6F0E0DD
:10156000808182608083A091A602B091A702CD9174
:10157000CDBFDD91DEBFFF91EF91DF91CF91BF91A4
:10158000AF919F918F917F916F915F914F913F911B
:101590002F911F910F91FF90EF90DF90CF90BF9010
:1015A000AF909F908F907F906F905F904F903F9003
:1015B0002F901F900F900FBE0F90089581E0089517
:1015C0000F920FB6F8940F921F9211242F923F9210
:1015D0004F925F926F927F928F929F92AF92BF9243
:1015E000CF92DF92EF92FF920F931F932F933F932F
:1015F0004F935F936F937F938F939F93AF93BF931B
:10160000CF93DF93EF93FF93A091A602B091A7022F
:101610000DB60D920EB60D9226DEA091A602B091E7
:10162000A702CD91CDBFDD91DEBFFF91EF91DF919C
:10163000CF91BF91AF919F918F917F916F915F916A
:101640004F913F912F911F910F91FF90EF90DF905D
:10165000CF90BF90AF909F908F907F906F905F9052
:101660004F903F902F901F900F900FBE0F900895B6
:101670000F920FB6F8940F921F9211242F923F925F
:101680004F925F926F927F928F929F92AF92BF9292
:10169000CF92DF92EF92FF920F931F932F933F937E
:1016A0004F935F936F937F938F939F93AF93BF936A
:1016B000CF93DF93EF93FF93A091A602B091A7027F
:1016C0000DB60D920EB60D9201DC8111CCDDA0910C
:1016D000A602B091A702CD91CDBFDD91DEBFFF91F3
:1016E000EF91DF91CF91BF91AF919F918F917F91BA
:1016F0006F915F914F913F912F911F910F91FF90AB
:10170000EF90DF90CF90BF90AF909F908F907F90A1
:101710006F905F904F903F902F901F900F900FBE53
:101720000F900895A5DF1895FC010396928381839D
:101730004FEF5FEFBA0143835483658376839087CD
:1017400087839287818710820895FC011386128611
:101750000895CF93DF939C01FB01DC011196CD919D
:10176000DC911297D583C4838E819F819783868372
:101770008E819F81DC0115967C936E9314977F83F5
:101780006E8333872287F90180818F5F8083DF91A9
:10179000CF910895EF92FF920F931F93CF93DF9312
:1017A0007C01FB0140815181628173814F3F8FEF4A
:1017B00058076807780721F4E701A985BA8512C0A0
:1017C000D701139614968D919C911597EC01088181
:1017D00019812A813B81401751076207730710F076
:1017E000DC01F0CF14968D919C911597958384839D
:1017F000EC01FF83EE83B783A6831596FC93EE93EB
:101800001497F386E286F70180818F5F8083DF91F2
:10181000CF911F910F91FF90EF900895CF93DF9399
:10182000FC01A285B3858481958126813781EC01F5
:101830003F832E83C681D7819D838C8311968D91A2
:101840009C9112978E179F0721F41296DC93CE93EA
:101850001197138612868C9181508C93DF91CF91D2
:101860000895A1E21A2EAA1BBB1BFD010DC0AA1FE1
:10187000BB1FEE1FFF1FA217B307E407F50720F0F9
:10188000A21BB30BE40BF50B661F771F881F991F74
:101890001A9469F760957095809590959B01AC01BD
:1018A000BD01CF010895EE0FFF1F0590F491E02DCB
:0618B0000994F894FFCF3B
:1018B60000008D08800001000000FF5C035C03DB74
:1018C6000500000000040121028700A1009300E347
:1018D6000000000000D7015461736B31005461733E
:1018E6006B32005461736B33005461736B3400497F
:0418F600444C450019
:00000001FF
