:100000005EC0000057C300007CC300007DC000003C
:100010007BC0000079C0000077C00000EFC2000084
:1000200073C0000071C000006FC000006DC0000010
:100030006BC0000069C0000067C0000065C0000020
:1000400093C3000061C0000023C1000053C1000041
:100050005BC0000059C0000057C0000055C0000040
:1000600053C0000051C0000002000000080002015F
:10007000000003040700000000000000000102046B
:10008000081020408001020408102001020408101A
:100090002004040404040404040202020202020311
:1000A000030303030300000000250028002B0000C9
:1000B000000000240027002A0000A80114021124D7
:1000C0001FBECFEFD8E0DEBFCDBF11E0A0E0B1E0B2
:1000D000E6EEFAE002C005900D92A632B107D9F71C
:1000E00021E0A6E2B1E001C01D92A93DB207E1F70F
:1000F00010E0CFE5D0E003C02197FE01ECD4CD3570
:10010000D107D1F727D3EDC47BCFFC01918D228D90
:10011000892F90E0805C9F4F821B91098F739927F4
:100120000895FC01918D828D981731F0828DE80F32
:10013000F11D858D90E008958FEF9FEF0895FC01EC
:10014000918D828D981761F0828DDF01A80FB11D0E
:100150005D968C91928D9F5F9F73928F90E0089532
:100160008FEF9FEF08958FE991E0892B41F080E0B8
:1001700090E0892B21F0E3D081110C9400000895C8
:10018000FC01848DDF01A80FB11DA35ABF4F2C9134
:10019000848D90E001968F739927848FA689B78903
:1001A0002C93A089B1898C9180648C93938D848DDC
:1001B000981306C00288F389E02D80818F7D8083AB
:1001C0000895CF93DF93EC01888D8823C1F0EA89ED
:1001D000FB89808185FD05C0A889B9898C9186FD40
:1001E0000EC00FB607FCF5CF808185FFF2CFA8893E
:1001F000B9898C9185FFEDCFCE01C2DFE8CFDF91C9
:10020000CF910895EF92FF920F931F93CF93DF93B7
:10021000EC0181E0888F9B8D8C8D981305C0E88957
:10022000F989808185FD23C0F62E0B8D10E00F5FCC
:100230001F4F0F731127E02E8C8DE8120BC00FB6E5
:1002400007FCFACFE889F989808185FFF5CFCE01D7
:1002500097DFF2CF8B8DFE01E80FF11DE35AFF4FC0
:10026000F0820B8FEA89FB898081806207C0EE896A
:10027000FF896083E889F98980818064808381E0D7
:1002800090E0DF91CF911F910F91FF90EF90089533
:100290001F920F920FB60F9211242F938F939F935B
:1002A000EF93FF93E0913601F09137018081E09167
:1002B0003C01F0913D0182FD12C0908180913F018F
:1002C0008F5F8F7320914001821751F0E0913F01C1
:1002D000F0E0EA5DFE4F958F80933F0101C0808181
:1002E000FF91EF919F918F912F910F900FBE0F90E3
:1002F0001F9018951F920F920FB60F9211242F93F3
:100300003F934F935F936F937F938F939F93AF939D
:10031000BF93EF93FF9386E291E032DFFF91EF917D
:10032000BF91AF919F918F917F916F915F914F910D
:100330003F912F910F900FBE0F901F90189586E25E
:1003400091E0E3DE21E0892B09F420E0822F08957B
:10035000E6E2F1E01382128288EE93E0A0E0B0E0E2
:1003600084839583A683B78383E191E0918380831F
:1003700085EC90E09587848784EC90E0978786876A
:1003800080EC90E0918B808B81EC90E0938B828B62
:1003900082EC90E0958B848B86EC90E0978B868B3B
:1003A000118E128E138E148E08958F929F92AF929B
:1003B000BF92CF92DF92EF92FF920F931F93CF9352
:1003C000DF937C018B016C0182E0C80ED11C4701D8
:1003D000E5E08E0E911CC0E0D0E0F60161916F0166
:1003E0004AE050E0C801D0D05C016EE2C80167D09D
:1003F0008A0D9B1DC80FD91FC814D90471F74AE094
:1004000050E0F7016581C801BFD08C0F9D1FDF91BF
:10041000CF911F910F91FF90EF90DF90CF90BF9001
:10042000AF909F908F900895E3ECF1E083E291E02C
:100430009183808312821382148215820895CF9251
:10044000DF92EF92FF920F931F93CF93DF936C0194
:100450007A018B01C0E0D0E0CE15DF0589F0D8012C
:100460006D918D01D601ED91FC910190F081E02D0F
:10047000C6010995892B11F47E0102C02196ECCFAB
:10048000C701DF91CF911F910F91FF90EF90DF9007
:10049000CF9008956115710579F0FB01019000205E
:1004A000E9F73197AF01461B570BDC01ED91FC9149
:1004B0000280F381E02D099480E090E00895DC0152
:1004C000ED91FC910190F081E02D09948F929F9223
:1004D000AF92BF92CF92DF92EF92FF920F931F9352
:1004E000CF93DF93CDB7DEB7A1970FB6F894DEBFF9
:1004F0000FBECDBF7C01D42EC52EDB0119A2223048
:1005000008F42AE08E010F5D1F4F822E912CA12C42
:10051000B12C6D2D7C2DCD01A5019401BAD2D22E26
:10052000C32EDA01015011096A3071058105910568
:1005300010F4605D01C0695CF8016083232B242BFB
:10054000252B39F7B801C701A5DFA1960FB6F8949E
:10055000DEBF0FBECDBFDF91CF911F910F91FF90F6
:10056000EF90DF90CF90BF90AF909F908F900895C5
:100570002115310541F4DC01ED91FC910190F081F0
:10058000E02D642F0994A2CF9A01462F50E060E03D
:1005900070E0EECF813039F018F0823051F00895DC
:1005A00010926E00089580916F008D7F80936F0090
:1005B0000895809170008D7F8093700081E080931A
:1005C000B0008091B100887F84608093B100109268
:1005D000B3000895CF93C82F80910A018C1307C0F0
:1005E000E8E6F0E0E4918FEF80930A0101C0EFEFBD
:1005F0008E2FD0DF60E08C2FCF91FEC11F920F9223
:100600000FB60F9211242F933F934F935F936F93E5
:100610007F938F939F93AF93BF93EF93FF938091BB
:10062000CC019091CD01A091CE01B091CF01892B49
:100630008A2B8B2B51F18091C901E091CA01F09175
:10064000CB019081892780838091CC019091CD014D
:10065000A091CE01B091CF01181619061A061B06FB
:10066000BCF48091CC019091CD01A091CE01B091CC
:10067000CF010197A109B1098093CC019093CD01DD
:10068000A093CE01B093CF0103C080910A01A2DFF5
:10069000FF91EF91BF91AF919F918F917F916F915A
:1006A0005F914F913F912F910F900FBE0F901F9030
:1006B000189508951F920F920FB60F9211242F9341
:1006C0003F934F935F936F937F938F939F93AF93DA
:1006D000BF93EF93FF93E0910B01F0910C0109950B
:1006E000FF91EF91BF91AF919F918F917F916F910A
:1006F0005F914F913F912F910F900FBE0F901F90E0
:1007000018951F920F920FB60F9211242F933F93BB
:100710004F935F936F937F938F939F93AF93BF9309
:10072000EF93FF93E0910D01F0910E010995FF9178
:10073000EF91BF91AF919F918F917F916F915F9159
:100740004F913F912F910F900FBE0F901F901895D2
:1007500008950895B1D0FDDF90D1C3EBD0E093D1DF
:100760002097E9F300DDFBCF1F920F920FB60F9297
:1007700011242F933F938F939F93AF93BF938091B7
:10078000D1019091D201A091D301B091D4013091C7
:10079000D00123E0230F2D3720F40196A11DB11DB8
:1007A00005C026E8230F0296A11DB11D2093D0019C
:1007B0008093D1019093D201A093D301B093D4013F
:1007C0008091D5019091D601A091D701B091D80127
:1007D0000196A11DB11D8093D5019093D601A093E0
:1007E000D701B093D801BF91AF919F918F913F9165
:1007F0002F910F900FBE0F901F9018953FB7F89450
:100800008091D5019091D601A091D701B091D801E6
:1008100026B5A89B05C02F3F19F00196A11DB11D5B
:100820003FBFBA2FA92F982F8827820F911DA11D96
:10083000B11DBC01CD0142E0660F771F881F991FD3
:100840004A95D1F708958F929F92AF92BF92CF921F
:10085000DF92EF92FF926B017C01D0DF4B015C01D4
:10086000C114D104E104F104F1F072DFC7DFDC014F
:10087000CB0188199909AA09BB09883E9340A105B3
:10088000B10570F321E0C21AD108E108F10888EE41
:10089000880E83E0981EA11CB11CC114D104E10490
:1008A000F10421F7DDCFFF90EF90DF90CF90BF9064
:1008B000AF909F908F900895789484B5826084BDA6
:1008C00084B5816084BD85B5826085BD85B5816054
:1008D00085BDEEE6F0E0808181608083E1E8F0E0B4
:1008E0001082808182608083808181608083E0E8E3
:1008F000F0E0808181608083E1EBF0E080818460C2
:100900008083E0EBF0E0808181608083EAE7F0E0C3
:100910008081846080838081826080838081816027
:1009200080838081806880831092C1000895833025
:1009300081F028F4813099F08230A1F00895873059
:10094000A9F08830B9F08430D1F4809180008F7D97
:1009500003C0809180008F7780938000089584B5D4
:100960008F7702C084B58F7D84BD08958091B000DB
:100970008F7703C08091B0008F7D8093B000089581
:10098000CF93DF9390E0FC01E358FF4F2491FC01EB
:10099000EF56FF4F8491882361F190E0880F991FF3
:1009A000FC01E155FF4FC591D491FC01EB55FF4F80
:1009B000A591B491611109C09FB7F89488812095E1
:1009C00082238883EC912E230BC0623061F49FB7A1
:1009D000F8943881822F809583238883EC912E2B85
:1009E0002C939FBF06C08FB7F894E8812E2B2883E5
:1009F0008FBFDF91CF9108951F93CF93DF93282F5F
:100A000030E0F901E759FF4F8491F901E358FF4FB6
:100A1000D491F901EF56FF4FC491CC23C1F0162FAA
:100A2000811185DFEC2FF0E0EE0FFF1FEB55FF4F3C
:100A3000A591B4918FB7F894111105C09C91ED2F39
:100A4000E095E92302C0EC91ED2BEC938FBFDF9191
:100A5000CF911F910895CF93C82F61E0CDDF68EE4D
:100A600073E080E090E0EFDE60E08C2FC5DF68EEA1
:100A700073E080E090E0CF91E6CE61E08CE080DF33
:100A800061E08DE07DCF8DE090E0E5DF8CE090E0EF
:100A9000E2CFA1E21A2EAA1BBB1BFD010DC0AA1FAB
:100AA000BB1FEE1FFF1FA217B307E407F50720F0D7
:100AB000A21BB30BE40BF50B661F771F881F991F52
:100AC0001A9469F760957095809590959B01AC019B
:100AD000BD01CF010895EE0FFF1F0590F491E02DA9
:060AE0000994F894FFCF19
:100AE6000000D901800001000000FF5903590300EE
:100AF60000000002011F0285009F009100E1000036
:060B0600000000D5010013
:00000001FF
