:100000005EC0000077C300009CC300007DC00000FC
:100010007BC0000079C0000077C00000EFC2000084
:1000200073C0000071C000006FC000006DC0000010
:100030006BC0000069C0000067C0000065C0000020
:10004000B2C3000061C0000023C1000053C1000022
:100050005BC0000059C0000057C0000055C0000040
:1000600053C0000051C0000002000000080002015F
:10007000000003040700000000000000000102046B
:10008000081020408001020408102001020408101A
:100090002004040404040404040202020202020311
:1000A000030303030300000000250028002B0000C9
:1000B000000000240027002A0000A80114021124D7
:1000C0001FBECFEFD8E0DEBFCDBF11E0A0E0B1E0B2
:1000D000EEEDFAE002C005900D92AA32B107D9F711
:1000E00021E0AAE2B1E001C01D92A53EB207E1F70E
:1000F00010E0CFE5D0E003C02197FE01E8D4CD3574
:10010000D107D1F746D3E9C47BCFFC01918D228D75
:10011000892F90E0805C9F4F821B91098F739927F4
:100120000895FC01918D828D981731F0828DE80F32
:10013000F11D858D90E008958FEF9FEF0895FC01EC
:10014000918D828D981761F0828DDF01A80FB11D0E
:100150005D968C91928D9F5F9F73928F90E0089532
:100160008FEF9FEF08958FE991E0892B41F080E0B8
:1001700090E0892B21F0E3D081110C9400000895C8
:10018000FC01848DDF01A80FB11DA35ABF4F2C9134
:10019000848D90E001968F739927848FA689B78903
:1001A0002C93A089B1898C9180648C93938D848DDC
:1001B000981306C00288F389E02D80818F7D8083AB
:1001C0000895CF93DF93EC01888D8823C1F0EA89ED
:1001D000FB89808185FD05C0A889B9898C9186FD40
:1001E0000EC00FB607FCF5CF808185FFF2CFA8893E
:1001F000B9898C9185FFEDCFCE01C2DFE8CFDF91C9
:10020000CF910895EF92FF920F931F93CF93DF93B7
:10021000EC0181E0888F9B8D8C8D981305C0E88957
:10022000F989808185FD23C0F62E0B8D10E00F5FCC
:100230001F4F0F731127E02E8C8DE8120BC00FB6E5
:1002400007FCFACFE889F989808185FFF5CFCE01D7
:1002500097DFF2CF8B8DFE01E80FF11DE35AFF4FC0
:10026000F0820B8FEA89FB898081806207C0EE896A
:10027000FF896083E889F98980818064808381E0D7
:1002800090E0DF91CF911F910F91FF90EF90089533
:100290001F920F920FB60F9211242F938F939F935B
:1002A000EF93FF93E0913A01F0913B018081E0915F
:1002B0004001F091410182FD12C090818091430183
:1002C0008F5F8F7320914401821751F0E0914301B9
:1002D000F0E0E65DFE4F958F8093430101C0808181
:1002E000FF91EF919F918F912F910F900FBE0F90E3
:1002F0001F9018951F920F920FB60F9211242F93F3
:100300003F934F935F936F937F938F939F93AF939D
:10031000BF93EF93FF938AE291E032DFFF91EF9179
:10032000BF91AF919F918F917F916F915F914F910D
:100330003F912F910F900FBE0F901F9018958AE25A
:1003400091E0E3DE21E0892B09F420E0822F08957B
:10035000EAE2F1E01382128288EE93E0A0E0B0E0DE
:1003600084839583A683B78388E191E0918380831A
:1003700085EC90E09587848784EC90E0978786876A
:1003800080EC90E0918B808B81EC90E0938B828B62
:1003900082EC90E0958B848B86EC90E0978B868B3B
:1003A000118E128E138E148E08958F929F92AF929B
:1003B000BF92CF92DF92EF92FF920F931F93CF9352
:1003C000DF937C018B016C0182E0C80ED11C4701D8
:1003D000E5E08E0E911CC0E0D0E0F60161916F0166
:1003E0004AE050E0C801D0D05C016EE2C80167D09D
:1003F0008A0D9B1DC80FD91FC814D90471F74AE094
:1004000050E0F7016581C801BFD08C0F9D1FDF91BF
:10041000CF911F910F91FF90EF90DF90CF90BF9001
:10042000AF909F908F900895E7ECF1E088E291E023
:100430009183808312821382148215820895CF9251
:10044000DF92EF92FF920F931F93CF93DF936C0194
:100450007A018B01C0E0D0E0CE15DF0589F0D8012C
:100460006D918D01D601ED91FC910190F081E02D0F
:10047000C6010995892B11F47E0102C02196ECCFAB
:10048000C701DF91CF911F910F91FF90EF90DF9007
:10049000CF9008956115710579F0FB01019000205E
:1004A000E9F73197AF01461B570BDC01ED91FC9149
:1004B0000280F381E02D099480E090E00895DC0152
:1004C000ED91FC910190F081E02D09948F929F9223
:1004D000AF92BF92CF92DF92EF92FF920F931F9352
:1004E000CF93DF93CDB7DEB7A1970FB6F894DEBFF9
:1004F0000FBECDBF7C01D42EC52EDB0119A2223048
:1005000008F42AE08E010F5D1F4F822E912CA12C42
:10051000B12C6D2D7C2DCD01A5019401B6D2D22E2A
:10052000C32EDA01015011096A3071058105910568
:1005300010F4605D01C0695CF8016083232B242BFB
:10054000252B39F7B801C701A5DFA1960FB6F8949E
:10055000DEBF0FBECDBFDF91CF911F910F91FF90F6
:10056000EF90DF90CF90BF90AF909F908F900895C5
:100570002115310541F4DC01ED91FC910190F081F0
:10058000E02D642F0994A2CF9A01462F50E060E03D
:1005900070E0EECF813039F018F0823051F00895DC
:1005A00010926E00089580916F008D7F80936F0090
:1005B0000895809170008D7F8093700081E080931A
:1005C000B0008091B100887F84608093B100109268
:1005D000B3000895CF93C82F80910A018C1307C0F0
:1005E000E8E6F0E0E4918FEF80930A0101C0EFEFBD
:1005F0008E2FD0DF60E08C2FCF91CBC11F920F9256
:100600000FB60F9211242F933F934F935F936F93E5
:100610007F938F939F93AF93BF93EF93FF938091BB
:10062000D0019091D101A091D201B091D301892B39
:100630008A2B8B2B51F18091CD01E091CE01F0916D
:10064000CF019081892780838091D0019091D10141
:10065000A091D201B091D301181619061A061B06F3
:10066000BCF48091D0019091D101A091D201B091C0
:10067000D3010197A109B1098093D0019093D101D1
:10068000A093D201B093D30103C080910A01A2DFED
:10069000FF91EF91BF91AF919F918F917F916F915A
:1006A0005F914F913F912F910F900FBE0F901F9030
:1006B000189508958230E8F4E82FF0E0EE0FFF1F60
:1006C000E55FFE4F71836083813041F08091690066
:1006D0008C7F482B40936900E89A089580916900C7
:1006E000440F551F440F551F837F482B40936900CB
:1006F000E99A08951F920F920FB60F9211242F932B
:100700003F934F935F936F937F938F939F93AF9399
:10071000BF93EF93FF93E0910B01F0910C010995CA
:10072000FF91EF91BF91AF919F918F917F916F91C9
:100730005F914F913F912F910F900FBE0F901F909F
:1007400018951F920F920FB60F9211242F933F937B
:100750004F935F936F937F938F939F93AF93BF93C9
:10076000EF93FF93E0910D01F0910E010995FF9138
:10077000EF91BF91AF919F918F917F916F915F9119
:100780004F913F912F910F900FBE0F901F90189592
:1007900008955FD0FDDF6CD1C3EBD0E072D120971C
:1007A000E9F3E1DCFBCF1F920F920FB60F921124F9
:1007B0002F933F938F939F93AF93BF938091D501D6
:1007C0009091D601A091D701B091D8013091D40178
:1007D00023E0230F2D3720F40196A11DB11D05C084
:1007E00026E8230F0296A11DB11D2093D40180930A
:1007F000D5019093D601A093D701B093D8018091F1
:10080000D9019091DA01A091DB01B091DC01019650
:10081000A11DB11D8093D9019093DA01A093DB0152
:10082000B093DC01BF91AF919F918F913F912F9138
:100830000F900FBE0F901F9018952FB7F8946091EE
:10084000D5017091D6018091D7019091D8012FBF29
:100850000895789484B5826084BD84B5816084BD38
:1008600085B5826085BD85B5816085BDEEE6F0E029
:10087000808181608083E1E8F0E010828081826085
:100880008083808181608083E0E8F0E08081816006
:100890008083E1EBF0E0808184608083E0EBF0E036
:1008A000808181608083EAE7F0E0808184608083DA
:1008B0008081826080838081816080838081806884
:1008C00080831092C1000895833081F028F4813034
:1008D00099F08230A1F008958730A9F08830B9F0FE
:1008E0008430D1F4809180008F7D03C0809180009E
:1008F0008F7780938000089584B58F7702C084B588
:100900008F7D84BD08958091B0008F7703C0809162
:10091000B0008F7D8093B0000895CF93DF9390E077
:10092000FC01E358FF4F2491FC01EF56FF4F8491E7
:10093000882361F190E0880F991FFC01E155FF4F7A
:10094000C591D491FC01EB55FF4FA591B491611174
:1009500009C09FB7F8948881209582238883EC9101
:100960002E230BC0623061F49FB7F8943881822F38
:10097000809583238883EC912E2B2C939FBF06C0F8
:100980008FB7F894E8812E2B28838FBFDF91CF910A
:1009900008951F93CF93DF93282F30E0F901E75993
:1009A000FF4F8491F901E358FF4FD491F901EF56BD
:1009B000FF4FC491CC23C1F0162F811185DFEC2F9E
:1009C000F0E0EE0FFF1FEB55FF4FA591B4918FB7ED
:1009D000F894111105C09C91ED2FE095E92302C018
:1009E000EC91ED2BEC938FBFDF91CF911F91089588
:1009F000CF92DF92EF92FF920F931F931EDF6093CF
:100A0000E1017093E2018093E3019093E40100918E
:100A1000DD011091DE012091DF013091E0016B01D9
:100A20007C01C01AD10AE20AF30A00910F01109169
:100A3000100120911101309112010C151D052E0598
:100A40003F0578F421E030911301311120E020932B
:100A500013016093DD017093DE018093DF019093B9
:100A6000E0011F910F91FF90EF90DF90CF900895DC
:100A700043E050E068EF74E080E01CDE61E086E077
:100A80004CCF6091130186E084CFA1E21A2EAA1BFD
:100A9000BB1BFD010DC0AA1FBB1FEE1FFF1FA2172E
:100AA000B307E407F50720F0A21BB30BE40BF50B2B
:100AB000661F771F881F991F1A9469F760957095B4
:100AC000809590959B01AC01BD01CF010895EE0F7B
:0E0AD000FF1F0590F491E02D0994F894FFCFDC
:100ADE000000E501800001000000FF5903590305E5
:100AEE00000000010000000002011F0285009F00AF
:0A0AFE009100E10000000000D501A6
:00000001FF
